{
  "contracts/Aetherium.sol": {
    "Aetherium": {
      "abi": [
        {
          "inputs": [],
          "stateMutability": "nonpayable",
          "type": "constructor"
        },
        {
          "inputs": [
            {
              "internalType": "address",
              "name": "sender",
              "type": "address"
            },
            {
              "internalType": "uint256",
              "name": "tokenId",
              "type": "uint256"
            },
            {
              "internalType": "address",
              "name": "owner",
              "type": "address"
            }
          ],
          "name": "ERC721IncorrectOwner",
          "type": "error"
        },
        {
          "inputs": [
            {
              "internalType": "address",
              "name": "operator",
              "type": "address"
            },
            {
              "internalType": "uint256",
              "name": "tokenId",
              "type": "uint256"
            }
          ],
          "name": "ERC721InsufficientApproval",
          "type": "error"
        },
        {
          "inputs": [
            {
              "internalType": "address",
              "name": "approver",
              "type": "address"
            }
          ],
          "name": "ERC721InvalidApprover",
          "type": "error"
        },
        {
          "inputs": [
            {
              "internalType": "address",
              "name": "operator",
              "type": "address"
            }
          ],
          "name": "ERC721InvalidOperator",
          "type": "error"
        },
        {
          "inputs": [
            {
              "internalType": "address",
              "name": "owner",
              "type": "address"
            }
          ],
          "name": "ERC721InvalidOwner",
          "type": "error"
        },
        {
          "inputs": [
            {
              "internalType": "address",
              "name": "receiver",
              "type": "address"
            }
          ],
          "name": "ERC721InvalidReceiver",
          "type": "error"
        },
        {
          "inputs": [
            {
              "internalType": "address",
              "name": "sender",
              "type": "address"
            }
          ],
          "name": "ERC721InvalidSender",
          "type": "error"
        },
        {
          "inputs": [
            {
              "internalType": "uint256",
              "name": "tokenId",
              "type": "uint256"
            }
          ],
          "name": "ERC721NonexistentToken",
          "type": "error"
        },
        {
          "anonymous": false,
          "inputs": [
            {
              "indexed": true,
              "internalType": "address",
              "name": "owner",
              "type": "address"
            },
            {
              "indexed": true,
              "internalType": "address",
              "name": "approved",
              "type": "address"
            },
            {
              "indexed": true,
              "internalType": "uint256",
              "name": "tokenId",
              "type": "uint256"
            }
          ],
          "name": "Approval",
          "type": "event"
        },
        {
          "anonymous": false,
          "inputs": [
            {
              "indexed": true,
              "internalType": "address",
              "name": "owner",
              "type": "address"
            },
            {
              "indexed": true,
              "internalType": "address",
              "name": "operator",
              "type": "address"
            },
            {
              "indexed": false,
              "internalType": "bool",
              "name": "approved",
              "type": "bool"
            }
          ],
          "name": "ApprovalForAll",
          "type": "event"
        },
        {
          "anonymous": false,
          "inputs": [
            {
              "indexed": false,
              "internalType": "uint256",
              "name": "_fromTokenId",
              "type": "uint256"
            },
            {
              "indexed": false,
              "internalType": "uint256",
              "name": "_toTokenId",
              "type": "uint256"
            }
          ],
          "name": "BatchMetadataUpdate",
          "type": "event"
        },
        {
          "anonymous": false,
          "inputs": [
            {
              "indexed": false,
              "internalType": "uint256",
              "name": "_tokenId",
              "type": "uint256"
            }
          ],
          "name": "MetadataUpdate",
          "type": "event"
        },
        {
          "anonymous": false,
          "inputs": [
            {
              "indexed": true,
              "internalType": "address",
              "name": "from",
              "type": "address"
            },
            {
              "indexed": true,
              "internalType": "address",
              "name": "to",
              "type": "address"
            },
            {
              "indexed": true,
              "internalType": "uint256",
              "name": "tokenId",
              "type": "uint256"
            }
          ],
          "name": "Transfer",
          "type": "event"
        },
        {
          "anonymous": false,
          "inputs": [
            {
              "indexed": true,
              "internalType": "uint256",
              "name": "marketItemId",
              "type": "uint256"
            },
            {
              "indexed": true,
              "internalType": "uint256",
              "name": "tokenId",
              "type": "uint256"
            },
            {
              "indexed": false,
              "internalType": "address",
              "name": "seller",
              "type": "address"
            },
            {
              "indexed": false,
              "internalType": "address",
              "name": "owner",
              "type": "address"
            },
            {
              "indexed": false,
              "internalType": "uint256",
              "name": "price",
              "type": "uint256"
            },
            {
              "indexed": false,
              "internalType": "bool",
              "name": "sold",
              "type": "bool"
            },
            {
              "indexed": false,
              "internalType": "address",
              "name": "nftContract",
              "type": "address"
            }
          ],
          "name": "idMarketItemCreated",
          "type": "event"
        },
        {
          "inputs": [
            {
              "internalType": "address",
              "name": "to",
              "type": "address"
            },
            {
              "internalType": "uint256",
              "name": "tokenId",
              "type": "uint256"
            }
          ],
          "name": "approve",
          "outputs": [],
          "stateMutability": "nonpayable",
          "type": "function"
        },
        {
          "inputs": [
            {
              "internalType": "address",
              "name": "owner",
              "type": "address"
            }
          ],
          "name": "balanceOf",
          "outputs": [
            {
              "internalType": "uint256",
              "name": "",
              "type": "uint256"
            }
          ],
          "stateMutability": "view",
          "type": "function"
        },
        {
          "inputs": [
            {
              "internalType": "string",
              "name": "name",
              "type": "string"
            },
            {
              "internalType": "string",
              "name": "imageURL",
              "type": "string"
            },
            {
              "internalType": "string",
              "name": "description",
              "type": "string"
            }
          ],
          "name": "createCreator",
          "outputs": [],
          "stateMutability": "nonpayable",
          "type": "function"
        },
        {
          "inputs": [
            {
              "internalType": "string",
              "name": "_tokenURI",
              "type": "string"
            },
            {
              "internalType": "string",
              "name": "_title",
              "type": "string"
            },
            {
              "internalType": "string",
              "name": "_symbol",
              "type": "string"
            },
            {
              "internalType": "uint256",
              "name": "price",
              "type": "uint256"
            }
          ],
          "name": "createCustomNFT",
          "outputs": [],
          "stateMutability": "nonpayable",
          "type": "function"
        },
        {
          "inputs": [
            {
              "internalType": "uint256",
              "name": "marketItemId",
              "type": "uint256"
            }
          ],
          "name": "createMarketSale",
          "outputs": [],
          "stateMutability": "payable",
          "type": "function"
        },
        {
          "inputs": [
            {
              "internalType": "string",
              "name": "tokenURI",
              "type": "string"
            },
            {
              "internalType": "uint256",
              "name": "price",
              "type": "uint256"
            }
          ],
          "name": "createToken",
          "outputs": [
            {
              "internalType": "uint256",
              "name": "",
              "type": "uint256"
            }
          ],
          "stateMutability": "nonpayable",
          "type": "function"
        },
        {
          "inputs": [],
          "name": "fetchItemsListed",
          "outputs": [
            {
              "components": [
                {
                  "internalType": "uint256",
                  "name": "marketItemId",
                  "type": "uint256"
                },
                {
                  "internalType": "uint256",
                  "name": "tokenId",
                  "type": "uint256"
                },
                {
                  "internalType": "address payable",
                  "name": "seller",
                  "type": "address"
                },
                {
                  "internalType": "address payable",
                  "name": "owner",
                  "type": "address"
                },
                {
                  "internalType": "uint256",
                  "name": "price",
                  "type": "uint256"
                },
                {
                  "internalType": "bool",
                  "name": "sold",
                  "type": "bool"
                },
                {
                  "internalType": "address",
                  "name": "nftContract",
                  "type": "address"
                }
              ],
              "internalType": "struct Aetherium.MarketItem[]",
              "name": "",
              "type": "tuple[]"
            }
          ],
          "stateMutability": "view",
          "type": "function"
        },
        {
          "inputs": [],
          "name": "fetchMarketItems",
          "outputs": [
            {
              "components": [
                {
                  "internalType": "uint256",
                  "name": "marketItemId",
                  "type": "uint256"
                },
                {
                  "internalType": "uint256",
                  "name": "tokenId",
                  "type": "uint256"
                },
                {
                  "internalType": "address payable",
                  "name": "seller",
                  "type": "address"
                },
                {
                  "internalType": "address payable",
                  "name": "owner",
                  "type": "address"
                },
                {
                  "internalType": "uint256",
                  "name": "price",
                  "type": "uint256"
                },
                {
                  "internalType": "bool",
                  "name": "sold",
                  "type": "bool"
                },
                {
                  "internalType": "address",
                  "name": "nftContract",
                  "type": "address"
                }
              ],
              "internalType": "struct Aetherium.MarketItem[]",
              "name": "",
              "type": "tuple[]"
            }
          ],
          "stateMutability": "view",
          "type": "function"
        },
        {
          "inputs": [],
          "name": "fetchMyArt",
          "outputs": [
            {
              "components": [
                {
                  "internalType": "uint256",
                  "name": "marketItemId",
                  "type": "uint256"
                },
                {
                  "internalType": "uint256",
                  "name": "tokenId",
                  "type": "uint256"
                },
                {
                  "internalType": "address payable",
                  "name": "seller",
                  "type": "address"
                },
                {
                  "internalType": "address payable",
                  "name": "owner",
                  "type": "address"
                },
                {
                  "internalType": "uint256",
                  "name": "price",
                  "type": "uint256"
                },
                {
                  "internalType": "bool",
                  "name": "sold",
                  "type": "bool"
                },
                {
                  "internalType": "address",
                  "name": "nftContract",
                  "type": "address"
                }
              ],
              "internalType": "struct Aetherium.MarketItem[]",
              "name": "",
              "type": "tuple[]"
            }
          ],
          "stateMutability": "view",
          "type": "function"
        },
        {
          "inputs": [
            {
              "internalType": "uint256",
              "name": "tokenId",
              "type": "uint256"
            }
          ],
          "name": "getApproved",
          "outputs": [
            {
              "internalType": "address",
              "name": "",
              "type": "address"
            }
          ],
          "stateMutability": "view",
          "type": "function"
        },
        {
          "inputs": [],
          "name": "getListingFeePercentage",
          "outputs": [
            {
              "internalType": "uint256",
              "name": "",
              "type": "uint256"
            }
          ],
          "stateMutability": "view",
          "type": "function"
        },
        {
          "inputs": [
            {
              "internalType": "address",
              "name": "owner",
              "type": "address"
            },
            {
              "internalType": "address",
              "name": "operator",
              "type": "address"
            }
          ],
          "name": "isApprovedForAll",
          "outputs": [
            {
              "internalType": "bool",
              "name": "",
              "type": "bool"
            }
          ],
          "stateMutability": "view",
          "type": "function"
        },
        {
          "inputs": [
            {
              "internalType": "address",
              "name": "nftContract",
              "type": "address"
            },
            {
              "internalType": "uint256",
              "name": "tokenId",
              "type": "uint256"
            },
            {
              "internalType": "uint256",
              "name": "price",
              "type": "uint256"
            }
          ],
          "name": "listExistingNFT",
          "outputs": [],
          "stateMutability": "nonpayable",
          "type": "function"
        },
        {
          "inputs": [],
          "name": "listingFeePercentage",
          "outputs": [
            {
              "internalType": "uint256",
              "name": "",
              "type": "uint256"
            }
          ],
          "stateMutability": "view",
          "type": "function"
        },
        {
          "inputs": [],
          "name": "name",
          "outputs": [
            {
              "internalType": "string",
              "name": "",
              "type": "string"
            }
          ],
          "stateMutability": "view",
          "type": "function"
        },
        {
          "inputs": [
            {
              "internalType": "address",
              "name": "",
              "type": "address"
            },
            {
              "internalType": "address",
              "name": "",
              "type": "address"
            },
            {
              "internalType": "uint256",
              "name": "",
              "type": "uint256"
            },
            {
              "internalType": "bytes",
              "name": "",
              "type": "bytes"
            }
          ],
          "name": "onERC721Received",
          "outputs": [
            {
              "internalType": "bytes4",
              "name": "",
              "type": "bytes4"
            }
          ],
          "stateMutability": "nonpayable",
          "type": "function"
        },
        {
          "inputs": [],
          "name": "owner",
          "outputs": [
            {
              "internalType": "address payable",
              "name": "",
              "type": "address"
            }
          ],
          "stateMutability": "view",
          "type": "function"
        },
        {
          "inputs": [
            {
              "internalType": "uint256",
              "name": "tokenId",
              "type": "uint256"
            }
          ],
          "name": "ownerOf",
          "outputs": [
            {
              "internalType": "address",
              "name": "",
              "type": "address"
            }
          ],
          "stateMutability": "view",
          "type": "function"
        },
        {
          "inputs": [
            {
              "internalType": "address",
              "name": "nftContract",
              "type": "address"
            },
            {
              "internalType": "uint256",
              "name": "marketItemId",
              "type": "uint256"
            },
            {
              "internalType": "uint256",
              "name": "price",
              "type": "uint256"
            }
          ],
          "name": "reSellToken",
          "outputs": [],
          "stateMutability": "nonpayable",
          "type": "function"
        },
        {
          "inputs": [
            {
              "internalType": "address",
              "name": "from",
              "type": "address"
            },
            {
              "internalType": "address",
              "name": "to",
              "type": "address"
            },
            {
              "internalType": "uint256",
              "name": "tokenId",
              "type": "uint256"
            }
          ],
          "name": "safeTransferFrom",
          "outputs": [],
          "stateMutability": "nonpayable",
          "type": "function"
        },
        {
          "inputs": [
            {
              "internalType": "address",
              "name": "from",
              "type": "address"
            },
            {
              "internalType": "address",
              "name": "to",
              "type": "address"
            },
            {
              "internalType": "uint256",
              "name": "tokenId",
              "type": "uint256"
            },
            {
              "internalType": "bytes",
              "name": "data",
              "type": "bytes"
            }
          ],
          "name": "safeTransferFrom",
          "outputs": [],
          "stateMutability": "nonpayable",
          "type": "function"
        },
        {
          "inputs": [
            {
              "internalType": "address",
              "name": "operator",
              "type": "address"
            },
            {
              "internalType": "bool",
              "name": "approved",
              "type": "bool"
            }
          ],
          "name": "setApprovalForAll",
          "outputs": [],
          "stateMutability": "nonpayable",
          "type": "function"
        },
        {
          "inputs": [
            {
              "internalType": "bytes4",
              "name": "interfaceId",
              "type": "bytes4"
            }
          ],
          "name": "supportsInterface",
          "outputs": [
            {
              "internalType": "bool",
              "name": "",
              "type": "bool"
            }
          ],
          "stateMutability": "view",
          "type": "function"
        },
        {
          "inputs": [],
          "name": "symbol",
          "outputs": [
            {
              "internalType": "string",
              "name": "",
              "type": "string"
            }
          ],
          "stateMutability": "view",
          "type": "function"
        },
        {
          "inputs": [
            {
              "internalType": "uint256",
              "name": "tokenId",
              "type": "uint256"
            }
          ],
          "name": "tokenURI",
          "outputs": [
            {
              "internalType": "string",
              "name": "",
              "type": "string"
            }
          ],
          "stateMutability": "view",
          "type": "function"
        },
        {
          "inputs": [
            {
              "internalType": "address",
              "name": "from",
              "type": "address"
            },
            {
              "internalType": "address",
              "name": "to",
              "type": "address"
            },
            {
              "internalType": "uint256",
              "name": "tokenId",
              "type": "uint256"
            }
          ],
          "name": "transferFrom",
          "outputs": [],
          "stateMutability": "nonpayable",
          "type": "function"
        },
        {
          "inputs": [
            {
              "internalType": "uint256",
              "name": "_listingFeePercentage",
              "type": "uint256"
            }
          ],
          "name": "updateListingFeePercentage",
          "outputs": [],
          "stateMutability": "nonpayable",
          "type": "function"
        }
      ],
      "evm": {
        "bytecode": {
          "linkReferences": {},
          "object": "60806040523461033c57604080519081016001600160401b03811182821017610249576040908152600982526841657468657269756d60b81b602083015280519081016001600160401b038111828210176102495760405260048152630828aa8960e31b602082015281516001600160401b03811161024957600054600181811c91168015610332575b602082101461022957601f81116102ce575b50602092601f821160011461026a579281929360009261025f575b50508160011b916000199060031b1c1916176000555b80516001600160401b03811161024957600154600181811c9116801561023f575b602082101461022957601f81116101c4575b50602091601f821160011461016057918192600092610155575b50508160011b916000199060031b1c1916176001555b6002600a55600b80546001600160a01b03191633179055604051613a0f90816103428239f35b015190503880610119565b601f198216926001600052806000209160005b8581106101ac57508360019510610193575b505050811b0160015561012f565b015160001960f88460031b161c19169055388080610185565b91926020600181928685015181550194019201610173565b60016000527fb10e2d527612073b26eecdfd717e6a320cf44b4afac2b0732d9fcbe2b7fa0cf6601f830160051c8101916020841061021f575b601f0160051c01905b81811061021357506100ff565b60008155600101610206565b90915081906101fd565b634e487b7160e01b600052602260045260246000fd5b90607f16906100ed565b634e487b7160e01b600052604160045260246000fd5b0151905038806100b6565b601f1982169360008052806000209160005b8681106102b6575083600195961061029d575b505050811b016000556100cc565b015160001960f88460031b161c1916905538808061028f565b9192602060018192868501518155019401920161027c565b600080527f290decd9548b62a8d60345a988386fc84ba6bc95484008f6362f93160ef3e563601f830160051c81019160208410610328575b601f0160051c01905b81811061031c575061009b565b6000815560010161030f565b9091508190610306565b90607f1690610089565b600080fdfe608080604052600436101561001357600080fd5b600090813560e01c90816301bb8cc5146118f65750806301ffc9a71461186d57806306fdde03146117c8578063081812fc1461178b5780630888de3914610416578063095ea7b3146116a35780630f08efe0146115a5578063150b7a021461158157806323b872dd1461156957806342842e0e1461153f57806345f8fa80146114085780636352211e146113d7578063671dcfaf1461133e57806370a08231146112eb57806372b3b6201461104d57806384fcd61714610bb157806386591f2814610a665780638da5cb5b14610a3d5780638fc38b80146106f657806395d89b4114610627578063a010c4fd146104e1578063a22cb46514610434578063b30927b514610416578063b88d4fde146103f8578063be9af536146101ed578063c87b56dd146101b55763e985e9c51461014a57600080fd5b346101b25760403660031901126101b2576101636119cc565b60243591906001600160a01b03831683036101b0579060409160018060a01b031681526005602052209060018060a01b0316600052602052602060ff604060002054166040519015158152f35b505b80fd5b50346101b25760203660031901126101b2576101e96101d5600435612077565b60405191829160208352602083019061198d565b0390f35b5060203660031901126101b2576004358152600c6020526040812060048101549081340361039f5760028101546003820180546001600160a01b0319163317905560058201805460ff1916600190811782556008546001600160a01b039390931693869390929061025d90611f21565b600855818060a01b03905460081c1691015490803b1561039b576040516323b872dd60e01b8152306004820152336024820152604481019290925282908290606490829084905af1801561035557610386575b5050600a54808302908382041483151715610372578380806102d760648295048097611c3d565b600b549096906001600160a01b0316828215610369575bf11561035557828282828215610360575b839283928392f11561035557808352600e602052604083206103218154611f21565b90558252600d602052600460408320018054918201809211610341575580f35b634e487b7160e01b83526011600452602483fd5b6040513d84823e3d90fd5b506108fc6102ff565b506108fc6102ee565b634e487b7160e01b84526011600452602484fd5b8161039091611aa6565b61039b5782386102b0565b8280fd5b60405162461bcd60e51b815260206004820152602b60248201527f5375626d69742061736b696e6720707269636520746f20636f6d706c6574652060448201526a3a3930b739b0b1ba34b7b760a91b6064820152608490fd5b50346101b25761041361040a36611b19565b92919091611f30565b80f35b50346101b257806003193601126101b2576020600a54604051908152f35b50346101b25760403660031901126101b25761044e6119cc565b60243590811515908183036104dd576001600160a01b03169182156104c95761049a903385526005602052604085208460005260205260406000209060ff801983541691151516179055565b6040519081527f17307eab39ab6107e8899845ad3d59bd9653f200f220920489ca2b5937696c3160203392a380f35b630b61174360e31b84526004839052602484fd5b8380fd5b50346101b2576104f036611bbe565b90929192338352600d60205261050f60ff600360408620015416611ec9565b8252600c602052604082209060038201903360018060a01b03835416036105d85760058301805460ff1916905560048301556002820180546001600160a01b0319908116331790915581541630179055600854801561034157600019016008556001015490918291906001600160a01b0316803b156105d4576040516323b872dd60e01b8152336004820152306024820152604481019290925282908290606490829084905af18015610355576105c35750f35b816105cd91611aa6565b6101b25780f35b5050fd5b60405162461bcd60e51b815260206004820152602160248201527f4f6e6c7920746865206974656d206f776e65722063616e20726573656c6c20696044820152601d60fa1b6064820152608490fd5b50346101b257806003193601126101b25760405190806001549061064a82611c03565b80855291600181169081156106cf5750600114610672575b6101e9846101d581860382611aa6565b600181527fb10e2d527612073b26eecdfd717e6a320cf44b4afac2b0732d9fcbe2b7fa0cf6939250905b8082106106b5575090915081016020016101d582610662565b91926001816020925483858801015201910190929161069c565b60ff191660208087019190915292151560051b850190920192506101d59150839050610662565b50346101b25760803660031901126101b2576004356001600160401b0381116101b057610727903690600401611be8565b6024356001600160401b03811161039b57610746903690600401611be8565b6044356001600160401b0381116104dd57610765903690600401611be8565b9060643592338552600d60205261078560ff600360408820015416611ec9565b6040519261170f92838501938585106001600160401b03861117610a29578594926107c56107e195936107d3936122cb893960608652606086019061198d565b90848203602086015261198d565b91604081840391015261198d565b039083f08015610355576040516354ba0f2760e01b81523360048201526001600160a01b03919091169060208160248187865af18015610a1e576109ef575b50803b1561039b576040516323b872dd60e01b8152336004820152306024820152600160448201528390818160648183875af18015610355576109da575b50508115610995577f181a47b5695555f517b1a68c10fcf517a29223f2036c9e3871a63f8ffa6c583160a06001936009549361089985611f21565b600955868561095560056040516108af81611a75565b838152602081018b815260408201338152606083019030825260808401928a845260408c860199808b5260c08701998c8b528152600c6020522094518555518e8501558d808c1b0390511660028401908e808d1b03166001600160601b038c1b8254161790558c808b1b0390511660038301908d808c1b03166001600160601b038b1b8254161790555160048201550192511515839060ff801983541691151516179055565b518154906101008960a81b039060081b16906101008960a81b0319161790556040519133835230602084015260408301528660608301526080820152a380f35b60405162461bcd60e51b815260206004820152601c60248201527f5072696365206d757374206265206174206c65617374203120776569000000006044820152606490fd5b816109e491611aa6565b61039b57823861085e565b6020813d602011610a16575b81610a0860209383611aa6565b810103126104dd5751610820565b3d91506109fb565b6040513d86823e3d90fd5b634e487b7160e01b88526041600452602488fd5b50346101b257806003193601126101b257600b546040516001600160a01b039091168152602090f35b50346101b257806003193601126101b257600954819081805b828110610b775750610a9090611c77565b91835b828110610aa857604051806101e986826119e7565b808552600c60205260408520600301546001600160a01b03163314610ad0575b600101610a93565b90818552600c60205260408520600560405191610aec83611a75565b805483526001810154602084015260028101546001600160a01b0390811660408501526003820154811660608501526004820154608085015291015460ff8116151560a084015260081c1660c0820152610b468286611cf8565b52610b518185611cf8565b5060018101809111610b635790610ac8565b634e487b7160e01b85526011600452602485fd5b808552600c60205260408520600301546001600160a01b03163314610b9f575b600101610a7f565b9060018101809111610b635790610b97565b50346101b25760603660031901126101b2576004356001600160401b0381116101b057610be2903690600401611be8565b6024356001600160401b03811161039b57610c01903690600401611be8565b6044356001600160401b0381116104dd57610c20903690600401611be8565b338452600d60205260ff600360408620015416611008576040519260a084018481106001600160401b03821117610ff457604052835260208301918252604083019081526060830190600182526080840192858452338652600d6020526040862094518051906001600160401b038211610a29578190610ca08854611c03565b601f8111610fa4575b50602090601f8311600114610f41578992610f36575b50508160011b916000199060031b1c19161785555b51805160018601916001600160401b038211610a29578190610cf68454611c03565b601f8111610ee6575b50602090601f8311600114610e83578992610e78575b50508160011b916000199060031b1c19161790555b51805160028501916001600160401b038211610e6457610d4a8354611c03565b601f8111610e1f575b50602090601f8311600114610db4579180610da2949260049796948a92610da9575b50508160011b916000199060031b1c19161790555b511515600385019060ff801983541691151516179055565b5191015580f35b015190503880610d75565b8388528188209190601f198416895b818110610e0757509260019285926004999896610da2989610610dee575b505050811b019055610d8a565b015160001960f88460031b161c19169055388080610de1565b92936020600181928786015181550195019301610dc3565b83885260208820601f840160051c81019160208510610e5a575b601f0160051c01905b818110610e4f5750610d53565b888155600101610e42565b9091508190610e39565b634e487b7160e01b87526041600452602487fd5b015190503880610d15565b848a52818a209250601f1984168a5b818110610ece5750908460019594939210610eb5575b505050811b019055610d2a565b015160001960f88460031b161c19169055388080610ea8565b92936020600181928786015181550195019301610e92565b90915083895260208920601f840160051c81019160208510610f2c575b90601f859493920160051c01905b818110610f1e5750610cff565b8a8155849350600101610f11565b9091508190610f03565b015190503880610cbf565b888a52818a209250601f1984168a5b818110610f8c5750908460019594939210610f73575b505050811b018555610cd4565b015160001960f88460031b161c19169055388080610f66565b92936020600181928786015181550195019301610f50565b90915087895260208920601f840160051c81019160208510610fea575b90601f859493920160051c01905b818110610fdc5750610ca9565b8a8155849350600101610fcf565b9091508190610fc1565b634e487b7160e01b86526041600452602486fd5b60405162461bcd60e51b815260206004820152601a60248201527f43726561746f7220616c726561647920726567697374657265640000000000006044820152606490fd5b50346101b25760403660031901126101b2576004356001600160401b0381116101b05761107e903690600401611be8565b338252600d60205261109960ff600360408520015416611ec9565b6007546110a581611f21565b60075533156112d757808352600260205260408320546001600160a01b031680151590816112a2575b33808652600360209081526040808820805460010190558588526002909152862080546001600160a01b031916821790558390827fddf252ad1be2c89b69c2b068fc378daa952ba7f163c4a11628f55a4df523b3ef8880a45061128e5780835260066020526040832082516001600160401b03811161127a576111518254611c03565b601f8111611235575b5060209485906001601f8411146111d5579482939495926111ca575b50508160011b916000199060031b1c19161790555b7ff8e1a15aba9398e019f0b49df1a4fde98ee17ae345cb5f6b5e2c27f5033e8ce782604051838152a16111c233602435833061217a565b604051908152f35b015190503880611176565b90601f19831695848352818320925b87811061121e575083600195969710611205575b505050811b01905561118b565b015160001960f88460031b161c191690553880806111f8565b9192886001819286850151815501940192016111e4565b82865260208620601f830160051c81019160208410611270575b601f0160051c01905b818110611265575061115a565b868155600101611258565b909150819061124f565b634e487b7160e01b85526041600452602485fd5b6339e3563760e11b83526004839052602483fd5b600083815260046020526040902080546001600160a01b031916905580855260036020526040852080546000190190556110ce565b633250574960e11b83526004839052602483fd5b50346101b25760203660031901126101b2576001600160a01b0361130d6119cc565b16801561132a578160409160209352600383522054604051908152f35b6322718ad960e21b82526004829052602482fd5b50346101b25761134d36611bbe565b92919092338352600d60205261136c60ff600360408620015416611ec9565b6001600160a01b038216803b156104dd576040516323b872dd60e01b8152336004820152306024820152604481018690529084908290606490829084905af18015610a1e576113c3575b506104139293339261217a565b926113d18161041395611aa6565b926113b6565b50346101b25760203660031901126101b25760206113f6600435612143565b6040516001600160a01b039091168152f35b50346101b257806003193601126101b257600954819081805b828110611505575061143290611c77565b91835b82811061144a57604051806101e986826119e7565b808552600c60205260408520600201546001600160a01b03163314611472575b600101611435565b90818552600c6020526040852060056040519161148e83611a75565b805483526001810154602084015260028101546001600160a01b0390811660408501526003820154811660608501526004820154608085015291015460ff8116151560a084015260081c1660c08201526114e88286611cf8565b526114f38185611cf8565b5060018101809111610b63579061146a565b808552600c60205260408520600201546001600160a01b0316331461152d575b600101611421565b9060018101809111610b635790611525565b50346101b25761041361155136611b84565b9060405192611561602085611aa6565b858452611f30565b50346101b25761041361157b36611b84565b91611d22565b50346101b25761159036611b19565b505050506020604051630a85bd0160e11b8152f35b50346101b257806003193601126101b2576009546115c560085482611c3d565b906115d08392611c77565b91835b8281106115e857604051806101e986826119e7565b808552600c60205260408520600301546001600160a01b03163014611610575b6001016115d3565b90818552600c6020526040852060056040519161162c83611a75565b805483526001810154602084015260028101546001600160a01b0390811660408501526003820154811660608501526004820154608085015291015460ff8116151560a084015260081c1660c08201526116868286611cf8565b526116918185611cf8565b5060018101809111610b635790611608565b50346101b25760403660031901126101b2576116bd6119cc565b6024356116c981612143565b33151580611778575b8061174d575b61173a5781906001600160a01b0384811691167f8c5be1e5ebec7d5bd14f71427d1e84f3dd0314c0f7b2291e5b200ac8c7c3b9258680a4825260046020526040822080546001600160a01b0319166001600160a01b0390921691909117905580f35b63a9fbf51f60e01b845233600452602484fd5b506001600160a01b038116845260056020908152604080862033875290915284205460ff16156116d8565b506001600160a01b0381163314156116d2565b50346101b25760203660031901126101b2576020906004356117ac81612143565b50815260048252604060018060a01b0391205416604051908152f35b50346101b257806003193601126101b25760405190808054906117ea82611c03565b80855291600181169081156106cf5750600114611811576101e9846101d581860382611aa6565b8080527f290decd9548b62a8d60345a988386fc84ba6bc95484008f6362f93160ef3e563939250905b808210611853575090915081016020016101d582610662565b91926001816020925483858801015201910190929161183a565b50346101b25760203660031901126101b25760043563ffffffff60e01b81168091036101b057602090632483248360e11b81149081156118b3575b506040519015158152f35b6380ac58cd60e01b8114915081156118e5575b81156118d4575b50826118a8565b6301ffc9a760e01b149050826118cd565b635b5e139f60e01b811491506118c6565b9050346101b05760203660031901126101b057600b546001600160a01b031633036119255750600435600a5580f35b62461bcd60e51b815260206004820152604060248201527f4f6e6c7920746865206d61726b6574706c616365206f776e65722063616e206360448201527f68616e676520746865206c697374696e67206665652070657263656e746167656064820152608490fd5b919082518082526020808301940160005b8281106119bc575050600081602094950152601f8019910116010190565b818101518682015260200161199e565b600435906001600160a01b03821682036119e257565b600080fd5b602060408183019282815284518094520192019060005b818110611a0b5750505090565b825180518552602081810151818701526040808301516001600160a01b03908116918801919091526060808401518216908801526080808401519088015260a08084015115159088015260c092830151169186019190915260e090940193909201916001016119fe565b60e081019081106001600160401b03821117611a9057604052565b634e487b7160e01b600052604160045260246000fd5b90601f801991011681019081106001600160401b03821117611a9057604052565b6001600160401b038111611a9057601f01601f191660200190565b929192611aee82611ac7565b91611afc6040519384611aa6565b8294818452818301116119e2578281602093846000960137010152565b9060806003198301126119e2576004356001600160a01b03811681036119e257916024356001600160a01b03811681036119e2579160443591606435906001600160401b0382116119e257806023830112156119e257816024611b8193600401359101611ae2565b90565b60609060031901126119e2576004356001600160a01b03811681036119e257906024356001600160a01b03811681036119e2579060443590565b60609060031901126119e2576004356001600160a01b03811681036119e257906024359060443590565b9080601f830112156119e257816020611b8193359101611ae2565b90600182811c92168015611c33575b6020831014611c1d57565b634e487b7160e01b600052602260045260246000fd5b91607f1691611c12565b91908203918211611c4a57565b634e487b7160e01b600052601160045260246000fd5b6001600160401b038111611a905760051b60200190565b90611c8182611c60565b611c8e6040519182611aa6565b8281528092611c9f601f1991611c60565b019060005b828110611cb057505050565b602090604051611cbf81611a75565b60008152600083820152600060408201526000606082015260006080820152600060a0820152600060c082015282828501015201611ca4565b8051821015611d0c5760209160051b010190565b634e487b7160e01b600052603260045260246000fd5b6001600160a01b0390911691908215611eb3576000828152600260205260408120546001600160a01b0316938391859033151580611e1b575b507fddf252ad1be2c89b69c2b068fc378daa952ba7f163c4a11628f55a4df523b3ef9082611de6575b83815260036020526040812060018154019055848152600260205260408120846001600160601b0360a01b82541617905580a46001600160a01b0316808303611dcc57505050565b6364283d7b60e01b60005260045260245260445260646000fd5b600085815260046020526040902080546001600160a01b03191690558281526003602052604081208054600019019055611d84565b915091925080611e64575b15611e35579084849238611d5b565b839085611e4e57602491637e27328960e01b8252600452fd5b60449163177e802f60e01b825233600452602452fd5b503385148015611e92575b80611e265750838152600460205260408120546001600160a01b03163314611e26565b5084815260056020908152604080832033845290915281205460ff16611e6f565b633250574960e11b600052600060045260246000fd5b15611ed057565b60405162461bcd60e51b8152602060048201526024808201527f4f6e6c792063726561746f72732063616e2063616c6c20746869732066756e636044820152633a34b7b760e11b6064820152608490fd5b6000198114611c4a5760010190565b9291611f3d818386611d22565b813b611f4a575b50505050565b604051630a85bd0160e11b81523360048201526001600160a01b0394851660248201526044810191909152608060648201529216919060209082908190611f9590608483019061198d565b03816000865af18091600091612034575b5090611fff57503d15611ff8573d611fbd81611ac7565b90611fcb6040519283611aa6565b81523d6000602083013e5b80519081611ff35782633250574960e11b60005260045260246000fd5b602001fd5b6060611fd6565b6001600160e01b03191663757a42ff60e11b01612020575038808080611f44565b633250574960e11b60005260045260246000fd5b6020813d60201161206f575b8161204d60209383611aa6565b810103126101b05751906001600160e01b0319821682036101b2575038611fa6565b3d9150612040565b61208081612143565b5060005260066020526040600020604051908160008254926120a184611c03565b808452936001811690811561212157506001146120da575b506120c692500382611aa6565b60006040516120d6602082611aa6565b5290565b90506000929192526020600020906000915b8183106121055750509060206120c692820101386120b9565b60209193508060019154838588010152019101909183926120ec565b9050602092506120c694915060ff191682840152151560051b820101386120b9565b6000818152600260205260409020546001600160a01b0316908115612166575090565b637e27328960e01b60005260045260246000fd5b90928215610995577f181a47b5695555f517b1a68c10fcf517a29223f2036c9e3871a63f8ffa6c58319160a0916009549485916121b683611f21565b600955600180861b031692604051906121ce82611a75565b83825261228a600560208401938b8552604081018881526060820130815260808301918883528b8401976000895260c08501976001808f1b03169a8b8952600052600c6020526040600020945185555160018501556001808d1b0390511660028401906001808e1b03166001600160601b038d1b8254161790556001808c1b0390511660038301906001808d1b03166001600160601b038c1b8254161790555160048201550192511515839060ff801983541691151516179055565b518154610100600160a81b03191660089190911b610100600160a81b031617905560408051938452306020850152830152600060608301526080820152a356fe6080604052346104eb5761170f80380380610019816104f0565b92833981016060828203126104eb5781516001600160401b0381116104eb5781610044918401610515565b60208301519092906001600160401b0381116104eb5782610066918301610515565b60408201519092906001600160401b0381116104eb576100869201610515565b82516001600160401b03811161030157600054600181811c911680156104e1575b60208210146102e157601f811161047d575b506020601f8211600114610417578192939460009261040c575b50508160011b916000199060031b1c1916176000555b81516001600160401b03811161030157600154600181811c91168015610402575b60208210146102e157601f811161039d575b50602092601f8211600114610338579281929360009261032d575b50508160011b916000199060031b1c1916176001555b33156103175760078054336001600160a01b0319821681179092556001600160a01b03167f8be0079c531659141344cd1fd0a4f28419497f9722a3daafe3b4186f6b6457e0600080a3600060085580516001600160401b03811161030157600954600181811c911680156102f7575b60208210146102e157601f811161027c575b50602091601f82116001146102185791819260009261020d575b50508160011b916000199060031b1c1916176009555b60405161118e90816105818239f35b0151905038806101e8565b601f198216926009600052806000209160005b8581106102645750836001951061024b575b505050811b016009556101fe565b015160001960f88460031b161c1916905538808061023d565b9192602060018192868501518155019401920161022b565b60096000527f6e1540171b6c0c960b71a7020d9f60077f6af931a8bbf590da0223dacf75c7af601f830160051c810191602084106102d7575b601f0160051c01905b8181106102cb57506101ce565b600081556001016102be565b90915081906102b5565b634e487b7160e01b600052602260045260246000fd5b90607f16906101bc565b634e487b7160e01b600052604160045260246000fd5b631e4fbdf760e01b600052600060045260246000fd5b015190503880610137565b601f198216936001600052806000209160005b868110610385575083600195961061036c575b505050811b0160015561014d565b015160001960f88460031b161c1916905538808061035e565b9192602060018192868501518155019401920161034b565b60016000527fb10e2d527612073b26eecdfd717e6a320cf44b4afac2b0732d9fcbe2b7fa0cf6601f830160051c810191602084106103f8575b601f0160051c01905b8181106103ec575061011c565b600081556001016103df565b90915081906103d6565b90607f169061010a565b0151905038806100d3565b601f1982169060008052806000209160005b8181106104655750958360019596971061044c575b505050811b016000556100e9565b015160001960f88460031b161c1916905538808061043e565b9192602060018192868b015181550194019201610429565b600080527f290decd9548b62a8d60345a988386fc84ba6bc95484008f6362f93160ef3e563601f830160051c810191602084106104d7575b601f0160051c01905b8181106104cb57506100b9565b600081556001016104be565b90915081906104b5565b90607f16906100a7565b600080fd5b6040519190601f01601f191682016001600160401b0381118382101761030157604052565b81601f820112156104eb578051906001600160401b03821161030157610544601f8301601f19166020016104f0565b92828452602083830101116104eb5760005b82811061056b57505060206000918301015290565b8060208092840101518282870101520161055656fe608080604052600436101561001357600080fd5b60003560e01c90816301ffc9a714610b135750806306fdde0314610a6e578063081812fc14610a30578063095ea7b31461094157806323b872dd1461092a5780633c130d901461090e57806342842e0e146108de57806354ba0f27146105165780636352211e146104e657806370a0823114610490578063715018a6146104335780638da5cb5b1461040a57806395d89b411461033d578063a22cb4651461029c578063b88d4fde14610206578063c87b56dd146101cf578063e985e9c5146101745763f2fde38b146100e557600080fd5b3461016f57602036600319011261016f576100fe610bd7565b610106611007565b6001600160a01b0316801561015957600780546001600160a01b0319811683179091556001600160a01b03167f8be0079c531659141344cd1fd0a4f28419497f9722a3daafe3b4186f6b6457e0600080a3005b631e4fbdf760e01b600052600060045260246000fd5b600080fd5b3461016f57604036600319011261016f5761018d610bd7565b610195610bed565b9060018060a01b0316600052600560205260406000209060018060a01b0316600052602052602060ff604060002054166040519015158152f35b3461016f57602036600319011261016f576102026101ee600435610f04565b604051918291602083526020830190610b98565b0390f35b3461016f57608036600319011261016f5761021f610bd7565b610227610bed565b906044356064359267ffffffffffffffff841161016f573660238501121561016f5783600401359261025884610d52565b936102666040519586610c77565b808552366024828801011161016f57602081600092602461029a99018389013786010152610295838383610d6e565b611030565b005b3461016f57604036600319011261016f576102b5610bd7565b6024359081151580920361016f576001600160a01b031690811561032857336000526005602052604060002082600052602052604060002060ff1981541660ff83161790556040519081527f17307eab39ab6107e8899845ad3d59bd9653f200f220920489ca2b5937696c3160203392a3005b50630b61174360e31b60005260045260246000fd5b3461016f57600036600319011261016f57604051600060015461035f81610c3d565b80845290600181169081156103e65750600114610387575b610202836101ee81850382610c77565b600160009081527fb10e2d527612073b26eecdfd717e6a320cf44b4afac2b0732d9fcbe2b7fa0cf6939250905b8082106103cc575090915081016020016101ee610377565b9192600181602092548385880101520191019092916103b4565b60ff191660208086019190915291151560051b840190910191506101ee9050610377565b3461016f57600036600319011261016f576007546040516001600160a01b039091168152602090f35b3461016f57600036600319011261016f5761044c611007565b600780546001600160a01b031981169091556000906001600160a01b03167f8be0079c531659141344cd1fd0a4f28419497f9722a3daafe3b4186f6b6457e08280a3005b3461016f57602036600319011261016f576001600160a01b036104b1610bd7565b1680156104d05760005260036020526020604060002054604051908152f35b6322718ad960e21b600052600060045260246000fd5b3461016f57602036600319011261016f576020610504600435610fd0565b6040516001600160a01b039091168152f35b602036600319011261016f5761052a610bd7565b60085460001981146108c8576001018060085560209060405161054d8382610c77565b600081526001600160a01b0384169384156108b25760008381526002855260018060a01b036040822054168487827fddf252ad1be2c89b69c2b068fc378daa952ba7f163c4a11628f55a4df523b3ef811515958661087e575b83815260038b5260408082208054600101905585825260028c52812080546001600160a01b0319168517905580a450610868573b610749575b509091506105eb610c99565b9080600052600683526040600020825167ffffffffffffffff8111610733576106148254610c3d565b601f81116106ed575b508493601f821160011461068957938192939460009261067e575b50508160011b916000199060031b1c19161790555b7ff8e1a15aba9398e019f0b49df1a4fde98ee17ae345cb5f6b5e2c27f5033e8ce782604051838152a1604051908152f35b015190508580610638565b601f1982169483600052866000209160005b888882106106d7575050836001959697106106be575b505050811b01905561064d565b015160001960f88460031b161c191690558580806106b1565b600184958293958501518155019401920161069b565b8260005285600020601f830160051c810191878410610729575b601f0160051c01905b81811061071d575061061d565b60008155600101610710565b9091508190610707565b634e487b7160e01b600052604160045260246000fd5b826107839160405180938192630a85bd0160e11b835233600484015260006024840152866044840152608060648401526084830190610b98565b03816000885af18091600091610823575b50906107eb5750503d156107e4573d6107ac81610d52565b906107ba6040519283610c77565b81523d60008383013e5b805191826107e15783633250574960e11b60005260045260246000fd5b01fd5b60606107c4565b919290916001600160e01b03191663757a42ff60e11b0161080f57508190836105df565b633250574960e11b60005260045260246000fd5b8481813d8311610861575b6108388183610c77565b8101031261085d5751906001600160e01b03198216820361085a575085610794565b80fd5b5080fd5b503d61082e565b6339e3563760e11b600052600060045260246000fd5b600085815260046020526040902080546001600160a01b031916905582815260038b526040812080546000190190556105a6565b633250574960e11b600052600060045260246000fd5b634e487b7160e01b600052601160045260246000fd5b3461016f5761029a6108ef36610c03565b90604051926108ff602085610c77565b60008452610295838383610d6e565b3461016f57600036600319011261016f576102026101ee610c99565b3461016f5761029a61093b36610c03565b91610d6e565b3461016f57604036600319011261016f5761095a610bd7565b60243561096681610fd0565b33151580610a1d575b806109ef575b6109da5781906001600160a01b0384811691167f8c5be1e5ebec7d5bd14f71427d1e84f3dd0314c0f7b2291e5b200ac8c7c3b925600080a4600090815260046020526040902080546001600160a01b0319166001600160a01b03909216919091179055005b63a9fbf51f60e01b6000523360045260246000fd5b506001600160a01b038116600090815260056020908152604080832033845290915290205460ff1615610975565b506001600160a01b03811633141561096f565b3461016f57602036600319011261016f57600435610a4d81610fd0565b506000526004602052602060018060a01b0360406000205416604051908152f35b3461016f57600036600319011261016f5760405160008054610a8f81610c3d565b80845290600181169081156103e65750600114610ab657610202836101ee81850382610c77565b60008080527f290decd9548b62a8d60345a988386fc84ba6bc95484008f6362f93160ef3e563939250905b808210610af9575090915081016020016101ee610377565b919260018160209254838588010152019101909291610ae1565b3461016f57602036600319011261016f576004359063ffffffff60e01b821680920361016f57602091632483248360e11b8114908115610b55575b5015158152f35b6380ac58cd60e01b811491508115610b87575b8115610b76575b5083610b4e565b6301ffc9a760e01b14905083610b6f565b635b5e139f60e01b81149150610b68565b919082518082526020808301940160005b828110610bc7575050600081602094950152601f8019910116010190565b8181015186820152602001610ba9565b600435906001600160a01b038216820361016f57565b602435906001600160a01b038216820361016f57565b606090600319011261016f576004356001600160a01b038116810361016f57906024356001600160a01b038116810361016f579060443590565b90600182811c92168015610c6d575b6020831014610c5757565b634e487b7160e01b600052602260045260246000fd5b91607f1691610c4c565b90601f8019910116810190811067ffffffffffffffff82111761073357604052565b6040519060008260095491610cad83610c3d565b8083529260018116908115610d335750600114610cd3575b610cd192500383610c77565b565b506009600090815290917f6e1540171b6c0c960b71a7020d9f60077f6af931a8bbf590da0223dacf75c7af5b818310610d17575050906020610cd192820101610cc5565b6020919350806001915483858901015201910190918492610cff565b60209250610cd194915060ff191682840152151560051b820101610cc5565b67ffffffffffffffff811161073357601f01601f191660200190565b6001600160a01b03909116919082156108b2576000828152600260205260408120546001600160a01b0316938391859033151580610e6c575b507fddf252ad1be2c89b69c2b068fc378daa952ba7f163c4a11628f55a4df523b3ef9082610e37575b83815260036020526040812060018154019055848152600260205260408120846bffffffffffffffffffffffff60a01b82541617905580a46001600160a01b0316808303610e1d57505050565b6364283d7b60e01b60005260045260245260445260646000fd5b600085815260046020526040902080546001600160a01b03191690558281526003602052604081208054600019019055610dd0565b915091925080610eb5575b15610e86579084849238610da7565b839085610e9f57602491637e27328960e01b8252600452fd5b60449163177e802f60e01b825233600452602452fd5b503385148015610ee3575b80610e775750838152600460205260408120546001600160a01b03163314610e77565b5084815260056020908152604080832033845290915281205460ff16610ec0565b610f0d81610fd0565b506000526006602052604060002060405190816000825492610f2e84610c3d565b8084529360018116908115610fae5750600114610f67575b50610f5392500382610c77565b6000604051610f63602082610c77565b5290565b90506000929192526020600020906000915b818310610f92575050906020610f539282010138610f46565b6020919350806001915483858801015201910190918392610f79565b905060209250610f5394915060ff191682840152151560051b82010138610f46565b6000818152600260205260409020546001600160a01b0316908115610ff3575090565b637e27328960e01b60005260045260246000fd5b6007546001600160a01b0316330361101b57565b63118cdaa760e01b6000523360045260246000fd5b9291813b61103f575b50505050565b604051630a85bd0160e11b81523360048201526001600160a01b039485166024820152604481019190915260806064820152921691906020908290819061108a906084830190610b98565b03816000865af18091600091611115575b50906110f457503d156110ed573d6110b281610d52565b906110c06040519283610c77565b81523d6000602083013e5b805190816110e85782633250574960e11b60005260045260246000fd5b602001fd5b60606110cb565b6001600160e01b03191663757a42ff60e11b0161080f575038808080611039565b6020813d602011611150575b8161112e60209383610c77565b8101031261085d5751906001600160e01b03198216820361085a57503861109b565b3d915061112156fea2646970667358221220ed0868a212c0f14e57f85f5173fc3b880e852064d88813651af1919b1165a88b64736f6c634300081c0033a264697066735822122008afe13061dc4e494ed40e8625240b30eb5c962e0368a15177ae7e1fdf1b11e364736f6c634300081c0033",
          "opcodes": "PUSH1 0x80 PUSH1 0x40 MSTORE CALLVALUE PUSH2 0x33C JUMPI PUSH1 0x40 DUP1 MLOAD SWAP1 DUP2 ADD PUSH1 0x1 PUSH1 0x1 PUSH1 0x40 SHL SUB DUP2 GT DUP3 DUP3 LT OR PUSH2 0x249 JUMPI PUSH1 0x40 SWAP1 DUP2 MSTORE PUSH1 0x9 DUP3 MSTORE PUSH9 0x41657468657269756D PUSH1 0xB8 SHL PUSH1 0x20 DUP4 ADD MSTORE DUP1 MLOAD SWAP1 DUP2 ADD PUSH1 0x1 PUSH1 0x1 PUSH1 0x40 SHL SUB DUP2 GT DUP3 DUP3 LT OR PUSH2 0x249 JUMPI PUSH1 0x40 MSTORE PUSH1 0x4 DUP2 MSTORE PUSH4 0x828AA89 PUSH1 0xE3 SHL PUSH1 0x20 DUP3 ADD MSTORE DUP2 MLOAD PUSH1 0x1 PUSH1 0x1 PUSH1 0x40 SHL SUB DUP2 GT PUSH2 0x249 JUMPI PUSH1 0x0 SLOAD PUSH1 0x1 DUP2 DUP2 SHR SWAP2 AND DUP1 ISZERO PUSH2 0x332 JUMPI JUMPDEST PUSH1 0x20 DUP3 LT EQ PUSH2 0x229 JUMPI PUSH1 0x1F DUP2 GT PUSH2 0x2CE JUMPI JUMPDEST POP PUSH1 0x20 SWAP3 PUSH1 0x1F DUP3 GT PUSH1 0x1 EQ PUSH2 0x26A JUMPI SWAP3 DUP2 SWAP3 SWAP4 PUSH1 0x0 SWAP3 PUSH2 0x25F JUMPI JUMPDEST POP POP DUP2 PUSH1 0x1 SHL SWAP2 PUSH1 0x0 NOT SWAP1 PUSH1 0x3 SHL SHR NOT AND OR PUSH1 0x0 SSTORE JUMPDEST DUP1 MLOAD PUSH1 0x1 PUSH1 0x1 PUSH1 0x40 SHL SUB DUP2 GT PUSH2 0x249 JUMPI PUSH1 0x1 SLOAD PUSH1 0x1 DUP2 DUP2 SHR SWAP2 AND DUP1 ISZERO PUSH2 0x23F JUMPI JUMPDEST PUSH1 0x20 DUP3 LT EQ PUSH2 0x229 JUMPI PUSH1 0x1F DUP2 GT PUSH2 0x1C4 JUMPI JUMPDEST POP PUSH1 0x20 SWAP2 PUSH1 0x1F DUP3 GT PUSH1 0x1 EQ PUSH2 0x160 JUMPI SWAP2 DUP2 SWAP3 PUSH1 0x0 SWAP3 PUSH2 0x155 JUMPI JUMPDEST POP POP DUP2 PUSH1 0x1 SHL SWAP2 PUSH1 0x0 NOT SWAP1 PUSH1 0x3 SHL SHR NOT AND OR PUSH1 0x1 SSTORE JUMPDEST PUSH1 0x2 PUSH1 0xA SSTORE PUSH1 0xB DUP1 SLOAD PUSH1 0x1 PUSH1 0x1 PUSH1 0xA0 SHL SUB NOT AND CALLER OR SWAP1 SSTORE PUSH1 0x40 MLOAD PUSH2 0x3A0F SWAP1 DUP2 PUSH2 0x342 DUP3 CODECOPY RETURN JUMPDEST ADD MLOAD SWAP1 POP CODESIZE DUP1 PUSH2 0x119 JUMP JUMPDEST PUSH1 0x1F NOT DUP3 AND SWAP3 PUSH1 0x1 PUSH1 0x0 MSTORE DUP1 PUSH1 0x0 KECCAK256 SWAP2 PUSH1 0x0 JUMPDEST DUP6 DUP2 LT PUSH2 0x1AC JUMPI POP DUP4 PUSH1 0x1 SWAP6 LT PUSH2 0x193 JUMPI JUMPDEST POP POP POP DUP2 SHL ADD PUSH1 0x1 SSTORE PUSH2 0x12F JUMP JUMPDEST ADD MLOAD PUSH1 0x0 NOT PUSH1 0xF8 DUP5 PUSH1 0x3 SHL AND SHR NOT AND SWAP1 SSTORE CODESIZE DUP1 DUP1 PUSH2 0x185 JUMP JUMPDEST SWAP2 SWAP3 PUSH1 0x20 PUSH1 0x1 DUP2 SWAP3 DUP7 DUP6 ADD MLOAD DUP2 SSTORE ADD SWAP5 ADD SWAP3 ADD PUSH2 0x173 JUMP JUMPDEST PUSH1 0x1 PUSH1 0x0 MSTORE PUSH32 0xB10E2D527612073B26EECDFD717E6A320CF44B4AFAC2B0732D9FCBE2B7FA0CF6 PUSH1 0x1F DUP4 ADD PUSH1 0x5 SHR DUP2 ADD SWAP2 PUSH1 0x20 DUP5 LT PUSH2 0x21F JUMPI JUMPDEST PUSH1 0x1F ADD PUSH1 0x5 SHR ADD SWAP1 JUMPDEST DUP2 DUP2 LT PUSH2 0x213 JUMPI POP PUSH2 0xFF JUMP JUMPDEST PUSH1 0x0 DUP2 SSTORE PUSH1 0x1 ADD PUSH2 0x206 JUMP JUMPDEST SWAP1 SWAP2 POP DUP2 SWAP1 PUSH2 0x1FD JUMP JUMPDEST PUSH4 0x4E487B71 PUSH1 0xE0 SHL PUSH1 0x0 MSTORE PUSH1 0x22 PUSH1 0x4 MSTORE PUSH1 0x24 PUSH1 0x0 REVERT JUMPDEST SWAP1 PUSH1 0x7F AND SWAP1 PUSH2 0xED JUMP JUMPDEST PUSH4 0x4E487B71 PUSH1 0xE0 SHL PUSH1 0x0 MSTORE PUSH1 0x41 PUSH1 0x4 MSTORE PUSH1 0x24 PUSH1 0x0 REVERT JUMPDEST ADD MLOAD SWAP1 POP CODESIZE DUP1 PUSH2 0xB6 JUMP JUMPDEST PUSH1 0x1F NOT DUP3 AND SWAP4 PUSH1 0x0 DUP1 MSTORE DUP1 PUSH1 0x0 KECCAK256 SWAP2 PUSH1 0x0 JUMPDEST DUP7 DUP2 LT PUSH2 0x2B6 JUMPI POP DUP4 PUSH1 0x1 SWAP6 SWAP7 LT PUSH2 0x29D JUMPI JUMPDEST POP POP POP DUP2 SHL ADD PUSH1 0x0 SSTORE PUSH2 0xCC JUMP JUMPDEST ADD MLOAD PUSH1 0x0 NOT PUSH1 0xF8 DUP5 PUSH1 0x3 SHL AND SHR NOT AND SWAP1 SSTORE CODESIZE DUP1 DUP1 PUSH2 0x28F JUMP JUMPDEST SWAP2 SWAP3 PUSH1 0x20 PUSH1 0x1 DUP2 SWAP3 DUP7 DUP6 ADD MLOAD DUP2 SSTORE ADD SWAP5 ADD SWAP3 ADD PUSH2 0x27C JUMP JUMPDEST PUSH1 0x0 DUP1 MSTORE PUSH32 0x290DECD9548B62A8D60345A988386FC84BA6BC95484008F6362F93160EF3E563 PUSH1 0x1F DUP4 ADD PUSH1 0x5 SHR DUP2 ADD SWAP2 PUSH1 0x20 DUP5 LT PUSH2 0x328 JUMPI JUMPDEST PUSH1 0x1F ADD PUSH1 0x5 SHR ADD SWAP1 JUMPDEST DUP2 DUP2 LT PUSH2 0x31C JUMPI POP PUSH2 0x9B JUMP JUMPDEST PUSH1 0x0 DUP2 SSTORE PUSH1 0x1 ADD PUSH2 0x30F JUMP JUMPDEST SWAP1 SWAP2 POP DUP2 SWAP1 PUSH2 0x306 JUMP JUMPDEST SWAP1 PUSH1 0x7F AND SWAP1 PUSH2 0x89 JUMP JUMPDEST PUSH1 0x0 DUP1 REVERT INVALID PUSH1 0x80 DUP1 PUSH1 0x40 MSTORE PUSH1 0x4 CALLDATASIZE LT ISZERO PUSH2 0x13 JUMPI PUSH1 0x0 DUP1 REVERT JUMPDEST PUSH1 0x0 SWAP1 DUP2 CALLDATALOAD PUSH1 0xE0 SHR SWAP1 DUP2 PUSH4 0x1BB8CC5 EQ PUSH2 0x18F6 JUMPI POP DUP1 PUSH4 0x1FFC9A7 EQ PUSH2 0x186D JUMPI DUP1 PUSH4 0x6FDDE03 EQ PUSH2 0x17C8 JUMPI DUP1 PUSH4 0x81812FC EQ PUSH2 0x178B JUMPI DUP1 PUSH4 0x888DE39 EQ PUSH2 0x416 JUMPI DUP1 PUSH4 0x95EA7B3 EQ PUSH2 0x16A3 JUMPI DUP1 PUSH4 0xF08EFE0 EQ PUSH2 0x15A5 JUMPI DUP1 PUSH4 0x150B7A02 EQ PUSH2 0x1581 JUMPI DUP1 PUSH4 0x23B872DD EQ PUSH2 0x1569 JUMPI DUP1 PUSH4 0x42842E0E EQ PUSH2 0x153F JUMPI DUP1 PUSH4 0x45F8FA80 EQ PUSH2 0x1408 JUMPI DUP1 PUSH4 0x6352211E EQ PUSH2 0x13D7 JUMPI DUP1 PUSH4 0x671DCFAF EQ PUSH2 0x133E JUMPI DUP1 PUSH4 0x70A08231 EQ PUSH2 0x12EB JUMPI DUP1 PUSH4 0x72B3B620 EQ PUSH2 0x104D JUMPI DUP1 PUSH4 0x84FCD617 EQ PUSH2 0xBB1 JUMPI DUP1 PUSH4 0x86591F28 EQ PUSH2 0xA66 JUMPI DUP1 PUSH4 0x8DA5CB5B EQ PUSH2 0xA3D JUMPI DUP1 PUSH4 0x8FC38B80 EQ PUSH2 0x6F6 JUMPI DUP1 PUSH4 0x95D89B41 EQ PUSH2 0x627 JUMPI DUP1 PUSH4 0xA010C4FD EQ PUSH2 0x4E1 JUMPI DUP1 PUSH4 0xA22CB465 EQ PUSH2 0x434 JUMPI DUP1 PUSH4 0xB30927B5 EQ PUSH2 0x416 JUMPI DUP1 PUSH4 0xB88D4FDE EQ PUSH2 0x3F8 JUMPI DUP1 PUSH4 0xBE9AF536 EQ PUSH2 0x1ED JUMPI DUP1 PUSH4 0xC87B56DD EQ PUSH2 0x1B5 JUMPI PUSH4 0xE985E9C5 EQ PUSH2 0x14A JUMPI PUSH1 0x0 DUP1 REVERT JUMPDEST CALLVALUE PUSH2 0x1B2 JUMPI PUSH1 0x40 CALLDATASIZE PUSH1 0x3 NOT ADD SLT PUSH2 0x1B2 JUMPI PUSH2 0x163 PUSH2 0x19CC JUMP JUMPDEST PUSH1 0x24 CALLDATALOAD SWAP2 SWAP1 PUSH1 0x1 PUSH1 0x1 PUSH1 0xA0 SHL SUB DUP4 AND DUP4 SUB PUSH2 0x1B0 JUMPI SWAP1 PUSH1 0x40 SWAP2 PUSH1 0x1 DUP1 PUSH1 0xA0 SHL SUB AND DUP2 MSTORE PUSH1 0x5 PUSH1 0x20 MSTORE KECCAK256 SWAP1 PUSH1 0x1 DUP1 PUSH1 0xA0 SHL SUB AND PUSH1 0x0 MSTORE PUSH1 0x20 MSTORE PUSH1 0x20 PUSH1 0xFF PUSH1 0x40 PUSH1 0x0 KECCAK256 SLOAD AND PUSH1 0x40 MLOAD SWAP1 ISZERO ISZERO DUP2 MSTORE RETURN JUMPDEST POP JUMPDEST DUP1 REVERT JUMPDEST POP CALLVALUE PUSH2 0x1B2 JUMPI PUSH1 0x20 CALLDATASIZE PUSH1 0x3 NOT ADD SLT PUSH2 0x1B2 JUMPI PUSH2 0x1E9 PUSH2 0x1D5 PUSH1 0x4 CALLDATALOAD PUSH2 0x2077 JUMP JUMPDEST PUSH1 0x40 MLOAD SWAP2 DUP3 SWAP2 PUSH1 0x20 DUP4 MSTORE PUSH1 0x20 DUP4 ADD SWAP1 PUSH2 0x198D JUMP JUMPDEST SUB SWAP1 RETURN JUMPDEST POP PUSH1 0x20 CALLDATASIZE PUSH1 0x3 NOT ADD SLT PUSH2 0x1B2 JUMPI PUSH1 0x4 CALLDATALOAD DUP2 MSTORE PUSH1 0xC PUSH1 0x20 MSTORE PUSH1 0x40 DUP2 KECCAK256 PUSH1 0x4 DUP2 ADD SLOAD SWAP1 DUP2 CALLVALUE SUB PUSH2 0x39F JUMPI PUSH1 0x2 DUP2 ADD SLOAD PUSH1 0x3 DUP3 ADD DUP1 SLOAD PUSH1 0x1 PUSH1 0x1 PUSH1 0xA0 SHL SUB NOT AND CALLER OR SWAP1 SSTORE PUSH1 0x5 DUP3 ADD DUP1 SLOAD PUSH1 0xFF NOT AND PUSH1 0x1 SWAP1 DUP2 OR DUP3 SSTORE PUSH1 0x8 SLOAD PUSH1 0x1 PUSH1 0x1 PUSH1 0xA0 SHL SUB SWAP4 SWAP1 SWAP4 AND SWAP4 DUP7 SWAP4 SWAP1 SWAP3 SWAP1 PUSH2 0x25D SWAP1 PUSH2 0x1F21 JUMP JUMPDEST PUSH1 0x8 SSTORE DUP2 DUP1 PUSH1 0xA0 SHL SUB SWAP1 SLOAD PUSH1 0x8 SHR AND SWAP2 ADD SLOAD SWAP1 DUP1 EXTCODESIZE ISZERO PUSH2 0x39B JUMPI PUSH1 0x40 MLOAD PUSH4 0x23B872DD PUSH1 0xE0 SHL DUP2 MSTORE ADDRESS PUSH1 0x4 DUP3 ADD MSTORE CALLER PUSH1 0x24 DUP3 ADD MSTORE PUSH1 0x44 DUP2 ADD SWAP3 SWAP1 SWAP3 MSTORE DUP3 SWAP1 DUP3 SWAP1 PUSH1 0x64 SWAP1 DUP3 SWAP1 DUP5 SWAP1 GAS CALL DUP1 ISZERO PUSH2 0x355 JUMPI PUSH2 0x386 JUMPI JUMPDEST POP POP PUSH1 0xA SLOAD DUP1 DUP4 MUL SWAP1 DUP4 DUP3 DIV EQ DUP4 ISZERO OR ISZERO PUSH2 0x372 JUMPI DUP4 DUP1 DUP1 PUSH2 0x2D7 PUSH1 0x64 DUP3 SWAP6 DIV DUP1 SWAP8 PUSH2 0x1C3D JUMP JUMPDEST PUSH1 0xB SLOAD SWAP1 SWAP7 SWAP1 PUSH1 0x1 PUSH1 0x1 PUSH1 0xA0 SHL SUB AND DUP3 DUP3 ISZERO PUSH2 0x369 JUMPI JUMPDEST CALL ISZERO PUSH2 0x355 JUMPI DUP3 DUP3 DUP3 DUP3 DUP3 ISZERO PUSH2 0x360 JUMPI JUMPDEST DUP4 SWAP3 DUP4 SWAP3 DUP4 SWAP3 CALL ISZERO PUSH2 0x355 JUMPI DUP1 DUP4 MSTORE PUSH1 0xE PUSH1 0x20 MSTORE PUSH1 0x40 DUP4 KECCAK256 PUSH2 0x321 DUP2 SLOAD PUSH2 0x1F21 JUMP JUMPDEST SWAP1 SSTORE DUP3 MSTORE PUSH1 0xD PUSH1 0x20 MSTORE PUSH1 0x4 PUSH1 0x40 DUP4 KECCAK256 ADD DUP1 SLOAD SWAP2 DUP3 ADD DUP1 SWAP3 GT PUSH2 0x341 JUMPI SSTORE DUP1 RETURN JUMPDEST PUSH4 0x4E487B71 PUSH1 0xE0 SHL DUP4 MSTORE PUSH1 0x11 PUSH1 0x4 MSTORE PUSH1 0x24 DUP4 REVERT JUMPDEST PUSH1 0x40 MLOAD RETURNDATASIZE DUP5 DUP3 RETURNDATACOPY RETURNDATASIZE SWAP1 REVERT JUMPDEST POP PUSH2 0x8FC PUSH2 0x2FF JUMP JUMPDEST POP PUSH2 0x8FC PUSH2 0x2EE JUMP JUMPDEST PUSH4 0x4E487B71 PUSH1 0xE0 SHL DUP5 MSTORE PUSH1 0x11 PUSH1 0x4 MSTORE PUSH1 0x24 DUP5 REVERT JUMPDEST DUP2 PUSH2 0x390 SWAP2 PUSH2 0x1AA6 JUMP JUMPDEST PUSH2 0x39B JUMPI DUP3 CODESIZE PUSH2 0x2B0 JUMP JUMPDEST DUP3 DUP1 REVERT JUMPDEST PUSH1 0x40 MLOAD PUSH3 0x461BCD PUSH1 0xE5 SHL DUP2 MSTORE PUSH1 0x20 PUSH1 0x4 DUP3 ADD MSTORE PUSH1 0x2B PUSH1 0x24 DUP3 ADD MSTORE PUSH32 0x5375626D69742061736B696E6720707269636520746F20636F6D706C65746520 PUSH1 0x44 DUP3 ADD MSTORE PUSH11 0x3A3930B739B0B1BA34B7B7 PUSH1 0xA9 SHL PUSH1 0x64 DUP3 ADD MSTORE PUSH1 0x84 SWAP1 REVERT JUMPDEST POP CALLVALUE PUSH2 0x1B2 JUMPI PUSH2 0x413 PUSH2 0x40A CALLDATASIZE PUSH2 0x1B19 JUMP JUMPDEST SWAP3 SWAP2 SWAP1 SWAP2 PUSH2 0x1F30 JUMP JUMPDEST DUP1 RETURN JUMPDEST POP CALLVALUE PUSH2 0x1B2 JUMPI DUP1 PUSH1 0x3 NOT CALLDATASIZE ADD SLT PUSH2 0x1B2 JUMPI PUSH1 0x20 PUSH1 0xA SLOAD PUSH1 0x40 MLOAD SWAP1 DUP2 MSTORE RETURN JUMPDEST POP CALLVALUE PUSH2 0x1B2 JUMPI PUSH1 0x40 CALLDATASIZE PUSH1 0x3 NOT ADD SLT PUSH2 0x1B2 JUMPI PUSH2 0x44E PUSH2 0x19CC JUMP JUMPDEST PUSH1 0x24 CALLDATALOAD SWAP1 DUP2 ISZERO ISZERO SWAP1 DUP2 DUP4 SUB PUSH2 0x4DD JUMPI PUSH1 0x1 PUSH1 0x1 PUSH1 0xA0 SHL SUB AND SWAP2 DUP3 ISZERO PUSH2 0x4C9 JUMPI PUSH2 0x49A SWAP1 CALLER DUP6 MSTORE PUSH1 0x5 PUSH1 0x20 MSTORE PUSH1 0x40 DUP6 KECCAK256 DUP5 PUSH1 0x0 MSTORE PUSH1 0x20 MSTORE PUSH1 0x40 PUSH1 0x0 KECCAK256 SWAP1 PUSH1 0xFF DUP1 NOT DUP4 SLOAD AND SWAP2 ISZERO ISZERO AND OR SWAP1 SSTORE JUMP JUMPDEST PUSH1 0x40 MLOAD SWAP1 DUP2 MSTORE PUSH32 0x17307EAB39AB6107E8899845AD3D59BD9653F200F220920489CA2B5937696C31 PUSH1 0x20 CALLER SWAP3 LOG3 DUP1 RETURN JUMPDEST PUSH4 0xB611743 PUSH1 0xE3 SHL DUP5 MSTORE PUSH1 0x4 DUP4 SWAP1 MSTORE PUSH1 0x24 DUP5 REVERT JUMPDEST DUP4 DUP1 REVERT JUMPDEST POP CALLVALUE PUSH2 0x1B2 JUMPI PUSH2 0x4F0 CALLDATASIZE PUSH2 0x1BBE JUMP JUMPDEST SWAP1 SWAP3 SWAP2 SWAP3 CALLER DUP4 MSTORE PUSH1 0xD PUSH1 0x20 MSTORE PUSH2 0x50F PUSH1 0xFF PUSH1 0x3 PUSH1 0x40 DUP7 KECCAK256 ADD SLOAD AND PUSH2 0x1EC9 JUMP JUMPDEST DUP3 MSTORE PUSH1 0xC PUSH1 0x20 MSTORE PUSH1 0x40 DUP3 KECCAK256 SWAP1 PUSH1 0x3 DUP3 ADD SWAP1 CALLER PUSH1 0x1 DUP1 PUSH1 0xA0 SHL SUB DUP4 SLOAD AND SUB PUSH2 0x5D8 JUMPI PUSH1 0x5 DUP4 ADD DUP1 SLOAD PUSH1 0xFF NOT AND SWAP1 SSTORE PUSH1 0x4 DUP4 ADD SSTORE PUSH1 0x2 DUP3 ADD DUP1 SLOAD PUSH1 0x1 PUSH1 0x1 PUSH1 0xA0 SHL SUB NOT SWAP1 DUP2 AND CALLER OR SWAP1 SWAP2 SSTORE DUP2 SLOAD AND ADDRESS OR SWAP1 SSTORE PUSH1 0x8 SLOAD DUP1 ISZERO PUSH2 0x341 JUMPI PUSH1 0x0 NOT ADD PUSH1 0x8 SSTORE PUSH1 0x1 ADD SLOAD SWAP1 SWAP2 DUP3 SWAP2 SWAP1 PUSH1 0x1 PUSH1 0x1 PUSH1 0xA0 SHL SUB AND DUP1 EXTCODESIZE ISZERO PUSH2 0x5D4 JUMPI PUSH1 0x40 MLOAD PUSH4 0x23B872DD PUSH1 0xE0 SHL DUP2 MSTORE CALLER PUSH1 0x4 DUP3 ADD MSTORE ADDRESS PUSH1 0x24 DUP3 ADD MSTORE PUSH1 0x44 DUP2 ADD SWAP3 SWAP1 SWAP3 MSTORE DUP3 SWAP1 DUP3 SWAP1 PUSH1 0x64 SWAP1 DUP3 SWAP1 DUP5 SWAP1 GAS CALL DUP1 ISZERO PUSH2 0x355 JUMPI PUSH2 0x5C3 JUMPI POP RETURN JUMPDEST DUP2 PUSH2 0x5CD SWAP2 PUSH2 0x1AA6 JUMP JUMPDEST PUSH2 0x1B2 JUMPI DUP1 RETURN JUMPDEST POP POP REVERT JUMPDEST PUSH1 0x40 MLOAD PUSH3 0x461BCD PUSH1 0xE5 SHL DUP2 MSTORE PUSH1 0x20 PUSH1 0x4 DUP3 ADD MSTORE PUSH1 0x21 PUSH1 0x24 DUP3 ADD MSTORE PUSH32 0x4F6E6C7920746865206974656D206F776E65722063616E20726573656C6C2069 PUSH1 0x44 DUP3 ADD MSTORE PUSH1 0x1D PUSH1 0xFA SHL PUSH1 0x64 DUP3 ADD MSTORE PUSH1 0x84 SWAP1 REVERT JUMPDEST POP CALLVALUE PUSH2 0x1B2 JUMPI DUP1 PUSH1 0x3 NOT CALLDATASIZE ADD SLT PUSH2 0x1B2 JUMPI PUSH1 0x40 MLOAD SWAP1 DUP1 PUSH1 0x1 SLOAD SWAP1 PUSH2 0x64A DUP3 PUSH2 0x1C03 JUMP JUMPDEST DUP1 DUP6 MSTORE SWAP2 PUSH1 0x1 DUP2 AND SWAP1 DUP2 ISZERO PUSH2 0x6CF JUMPI POP PUSH1 0x1 EQ PUSH2 0x672 JUMPI JUMPDEST PUSH2 0x1E9 DUP5 PUSH2 0x1D5 DUP2 DUP7 SUB DUP3 PUSH2 0x1AA6 JUMP JUMPDEST PUSH1 0x1 DUP2 MSTORE PUSH32 0xB10E2D527612073B26EECDFD717E6A320CF44B4AFAC2B0732D9FCBE2B7FA0CF6 SWAP4 SWAP3 POP SWAP1 JUMPDEST DUP1 DUP3 LT PUSH2 0x6B5 JUMPI POP SWAP1 SWAP2 POP DUP2 ADD PUSH1 0x20 ADD PUSH2 0x1D5 DUP3 PUSH2 0x662 JUMP JUMPDEST SWAP2 SWAP3 PUSH1 0x1 DUP2 PUSH1 0x20 SWAP3 SLOAD DUP4 DUP6 DUP9 ADD ADD MSTORE ADD SWAP2 ADD SWAP1 SWAP3 SWAP2 PUSH2 0x69C JUMP JUMPDEST PUSH1 0xFF NOT AND PUSH1 0x20 DUP1 DUP8 ADD SWAP2 SWAP1 SWAP2 MSTORE SWAP3 ISZERO ISZERO PUSH1 0x5 SHL DUP6 ADD SWAP1 SWAP3 ADD SWAP3 POP PUSH2 0x1D5 SWAP2 POP DUP4 SWAP1 POP PUSH2 0x662 JUMP JUMPDEST POP CALLVALUE PUSH2 0x1B2 JUMPI PUSH1 0x80 CALLDATASIZE PUSH1 0x3 NOT ADD SLT PUSH2 0x1B2 JUMPI PUSH1 0x4 CALLDATALOAD PUSH1 0x1 PUSH1 0x1 PUSH1 0x40 SHL SUB DUP2 GT PUSH2 0x1B0 JUMPI PUSH2 0x727 SWAP1 CALLDATASIZE SWAP1 PUSH1 0x4 ADD PUSH2 0x1BE8 JUMP JUMPDEST PUSH1 0x24 CALLDATALOAD PUSH1 0x1 PUSH1 0x1 PUSH1 0x40 SHL SUB DUP2 GT PUSH2 0x39B JUMPI PUSH2 0x746 SWAP1 CALLDATASIZE SWAP1 PUSH1 0x4 ADD PUSH2 0x1BE8 JUMP JUMPDEST PUSH1 0x44 CALLDATALOAD PUSH1 0x1 PUSH1 0x1 PUSH1 0x40 SHL SUB DUP2 GT PUSH2 0x4DD JUMPI PUSH2 0x765 SWAP1 CALLDATASIZE SWAP1 PUSH1 0x4 ADD PUSH2 0x1BE8 JUMP JUMPDEST SWAP1 PUSH1 0x64 CALLDATALOAD SWAP3 CALLER DUP6 MSTORE PUSH1 0xD PUSH1 0x20 MSTORE PUSH2 0x785 PUSH1 0xFF PUSH1 0x3 PUSH1 0x40 DUP9 KECCAK256 ADD SLOAD AND PUSH2 0x1EC9 JUMP JUMPDEST PUSH1 0x40 MLOAD SWAP3 PUSH2 0x170F SWAP3 DUP4 DUP6 ADD SWAP4 DUP6 DUP6 LT PUSH1 0x1 PUSH1 0x1 PUSH1 0x40 SHL SUB DUP7 GT OR PUSH2 0xA29 JUMPI DUP6 SWAP5 SWAP3 PUSH2 0x7C5 PUSH2 0x7E1 SWAP6 SWAP4 PUSH2 0x7D3 SWAP4 PUSH2 0x22CB DUP10 CODECOPY PUSH1 0x60 DUP7 MSTORE PUSH1 0x60 DUP7 ADD SWAP1 PUSH2 0x198D JUMP JUMPDEST SWAP1 DUP5 DUP3 SUB PUSH1 0x20 DUP7 ADD MSTORE PUSH2 0x198D JUMP JUMPDEST SWAP2 PUSH1 0x40 DUP2 DUP5 SUB SWAP2 ADD MSTORE PUSH2 0x198D JUMP JUMPDEST SUB SWAP1 DUP4 CREATE DUP1 ISZERO PUSH2 0x355 JUMPI PUSH1 0x40 MLOAD PUSH4 0x54BA0F27 PUSH1 0xE0 SHL DUP2 MSTORE CALLER PUSH1 0x4 DUP3 ADD MSTORE PUSH1 0x1 PUSH1 0x1 PUSH1 0xA0 SHL SUB SWAP2 SWAP1 SWAP2 AND SWAP1 PUSH1 0x20 DUP2 PUSH1 0x24 DUP2 DUP8 DUP7 GAS CALL DUP1 ISZERO PUSH2 0xA1E JUMPI PUSH2 0x9EF JUMPI JUMPDEST POP DUP1 EXTCODESIZE ISZERO PUSH2 0x39B JUMPI PUSH1 0x40 MLOAD PUSH4 0x23B872DD PUSH1 0xE0 SHL DUP2 MSTORE CALLER PUSH1 0x4 DUP3 ADD MSTORE ADDRESS PUSH1 0x24 DUP3 ADD MSTORE PUSH1 0x1 PUSH1 0x44 DUP3 ADD MSTORE DUP4 SWAP1 DUP2 DUP2 PUSH1 0x64 DUP2 DUP4 DUP8 GAS CALL DUP1 ISZERO PUSH2 0x355 JUMPI PUSH2 0x9DA JUMPI JUMPDEST POP POP DUP2 ISZERO PUSH2 0x995 JUMPI PUSH32 0x181A47B5695555F517B1A68C10FCF517A29223F2036C9E3871A63F8FFA6C5831 PUSH1 0xA0 PUSH1 0x1 SWAP4 PUSH1 0x9 SLOAD SWAP4 PUSH2 0x899 DUP6 PUSH2 0x1F21 JUMP JUMPDEST PUSH1 0x9 SSTORE DUP7 DUP6 PUSH2 0x955 PUSH1 0x5 PUSH1 0x40 MLOAD PUSH2 0x8AF DUP2 PUSH2 0x1A75 JUMP JUMPDEST DUP4 DUP2 MSTORE PUSH1 0x20 DUP2 ADD DUP12 DUP2 MSTORE PUSH1 0x40 DUP3 ADD CALLER DUP2 MSTORE PUSH1 0x60 DUP4 ADD SWAP1 ADDRESS DUP3 MSTORE PUSH1 0x80 DUP5 ADD SWAP3 DUP11 DUP5 MSTORE PUSH1 0x40 DUP13 DUP7 ADD SWAP10 DUP1 DUP12 MSTORE PUSH1 0xC0 DUP8 ADD SWAP10 DUP13 DUP12 MSTORE DUP2 MSTORE PUSH1 0xC PUSH1 0x20 MSTORE KECCAK256 SWAP5 MLOAD DUP6 SSTORE MLOAD DUP15 DUP6 ADD SSTORE DUP14 DUP1 DUP13 SHL SUB SWAP1 MLOAD AND PUSH1 0x2 DUP5 ADD SWAP1 DUP15 DUP1 DUP14 SHL SUB AND PUSH1 0x1 PUSH1 0x1 PUSH1 0x60 SHL SUB DUP13 SHL DUP3 SLOAD AND OR SWAP1 SSTORE DUP13 DUP1 DUP12 SHL SUB SWAP1 MLOAD AND PUSH1 0x3 DUP4 ADD SWAP1 DUP14 DUP1 DUP13 SHL SUB AND PUSH1 0x1 PUSH1 0x1 PUSH1 0x60 SHL SUB DUP12 SHL DUP3 SLOAD AND OR SWAP1 SSTORE MLOAD PUSH1 0x4 DUP3 ADD SSTORE ADD SWAP3 MLOAD ISZERO ISZERO DUP4 SWAP1 PUSH1 0xFF DUP1 NOT DUP4 SLOAD AND SWAP2 ISZERO ISZERO AND OR SWAP1 SSTORE JUMP JUMPDEST MLOAD DUP2 SLOAD SWAP1 PUSH2 0x100 DUP10 PUSH1 0xA8 SHL SUB SWAP1 PUSH1 0x8 SHL AND SWAP1 PUSH2 0x100 DUP10 PUSH1 0xA8 SHL SUB NOT AND OR SWAP1 SSTORE PUSH1 0x40 MLOAD SWAP2 CALLER DUP4 MSTORE ADDRESS PUSH1 0x20 DUP5 ADD MSTORE PUSH1 0x40 DUP4 ADD MSTORE DUP7 PUSH1 0x60 DUP4 ADD MSTORE PUSH1 0x80 DUP3 ADD MSTORE LOG3 DUP1 RETURN JUMPDEST PUSH1 0x40 MLOAD PUSH3 0x461BCD PUSH1 0xE5 SHL DUP2 MSTORE PUSH1 0x20 PUSH1 0x4 DUP3 ADD MSTORE PUSH1 0x1C PUSH1 0x24 DUP3 ADD MSTORE PUSH32 0x5072696365206D757374206265206174206C6561737420312077656900000000 PUSH1 0x44 DUP3 ADD MSTORE PUSH1 0x64 SWAP1 REVERT JUMPDEST DUP2 PUSH2 0x9E4 SWAP2 PUSH2 0x1AA6 JUMP JUMPDEST PUSH2 0x39B JUMPI DUP3 CODESIZE PUSH2 0x85E JUMP JUMPDEST PUSH1 0x20 DUP2 RETURNDATASIZE PUSH1 0x20 GT PUSH2 0xA16 JUMPI JUMPDEST DUP2 PUSH2 0xA08 PUSH1 0x20 SWAP4 DUP4 PUSH2 0x1AA6 JUMP JUMPDEST DUP2 ADD SUB SLT PUSH2 0x4DD JUMPI MLOAD PUSH2 0x820 JUMP JUMPDEST RETURNDATASIZE SWAP2 POP PUSH2 0x9FB JUMP JUMPDEST PUSH1 0x40 MLOAD RETURNDATASIZE DUP7 DUP3 RETURNDATACOPY RETURNDATASIZE SWAP1 REVERT JUMPDEST PUSH4 0x4E487B71 PUSH1 0xE0 SHL DUP9 MSTORE PUSH1 0x41 PUSH1 0x4 MSTORE PUSH1 0x24 DUP9 REVERT JUMPDEST POP CALLVALUE PUSH2 0x1B2 JUMPI DUP1 PUSH1 0x3 NOT CALLDATASIZE ADD SLT PUSH2 0x1B2 JUMPI PUSH1 0xB SLOAD PUSH1 0x40 MLOAD PUSH1 0x1 PUSH1 0x1 PUSH1 0xA0 SHL SUB SWAP1 SWAP2 AND DUP2 MSTORE PUSH1 0x20 SWAP1 RETURN JUMPDEST POP CALLVALUE PUSH2 0x1B2 JUMPI DUP1 PUSH1 0x3 NOT CALLDATASIZE ADD SLT PUSH2 0x1B2 JUMPI PUSH1 0x9 SLOAD DUP2 SWAP1 DUP2 DUP1 JUMPDEST DUP3 DUP2 LT PUSH2 0xB77 JUMPI POP PUSH2 0xA90 SWAP1 PUSH2 0x1C77 JUMP JUMPDEST SWAP2 DUP4 JUMPDEST DUP3 DUP2 LT PUSH2 0xAA8 JUMPI PUSH1 0x40 MLOAD DUP1 PUSH2 0x1E9 DUP7 DUP3 PUSH2 0x19E7 JUMP JUMPDEST DUP1 DUP6 MSTORE PUSH1 0xC PUSH1 0x20 MSTORE PUSH1 0x40 DUP6 KECCAK256 PUSH1 0x3 ADD SLOAD PUSH1 0x1 PUSH1 0x1 PUSH1 0xA0 SHL SUB AND CALLER EQ PUSH2 0xAD0 JUMPI JUMPDEST PUSH1 0x1 ADD PUSH2 0xA93 JUMP JUMPDEST SWAP1 DUP2 DUP6 MSTORE PUSH1 0xC PUSH1 0x20 MSTORE PUSH1 0x40 DUP6 KECCAK256 PUSH1 0x5 PUSH1 0x40 MLOAD SWAP2 PUSH2 0xAEC DUP4 PUSH2 0x1A75 JUMP JUMPDEST DUP1 SLOAD DUP4 MSTORE PUSH1 0x1 DUP2 ADD SLOAD PUSH1 0x20 DUP5 ADD MSTORE PUSH1 0x2 DUP2 ADD SLOAD PUSH1 0x1 PUSH1 0x1 PUSH1 0xA0 SHL SUB SWAP1 DUP2 AND PUSH1 0x40 DUP6 ADD MSTORE PUSH1 0x3 DUP3 ADD SLOAD DUP2 AND PUSH1 0x60 DUP6 ADD MSTORE PUSH1 0x4 DUP3 ADD SLOAD PUSH1 0x80 DUP6 ADD MSTORE SWAP2 ADD SLOAD PUSH1 0xFF DUP2 AND ISZERO ISZERO PUSH1 0xA0 DUP5 ADD MSTORE PUSH1 0x8 SHR AND PUSH1 0xC0 DUP3 ADD MSTORE PUSH2 0xB46 DUP3 DUP7 PUSH2 0x1CF8 JUMP JUMPDEST MSTORE PUSH2 0xB51 DUP2 DUP6 PUSH2 0x1CF8 JUMP JUMPDEST POP PUSH1 0x1 DUP2 ADD DUP1 SWAP2 GT PUSH2 0xB63 JUMPI SWAP1 PUSH2 0xAC8 JUMP JUMPDEST PUSH4 0x4E487B71 PUSH1 0xE0 SHL DUP6 MSTORE PUSH1 0x11 PUSH1 0x4 MSTORE PUSH1 0x24 DUP6 REVERT JUMPDEST DUP1 DUP6 MSTORE PUSH1 0xC PUSH1 0x20 MSTORE PUSH1 0x40 DUP6 KECCAK256 PUSH1 0x3 ADD SLOAD PUSH1 0x1 PUSH1 0x1 PUSH1 0xA0 SHL SUB AND CALLER EQ PUSH2 0xB9F JUMPI JUMPDEST PUSH1 0x1 ADD PUSH2 0xA7F JUMP JUMPDEST SWAP1 PUSH1 0x1 DUP2 ADD DUP1 SWAP2 GT PUSH2 0xB63 JUMPI SWAP1 PUSH2 0xB97 JUMP JUMPDEST POP CALLVALUE PUSH2 0x1B2 JUMPI PUSH1 0x60 CALLDATASIZE PUSH1 0x3 NOT ADD SLT PUSH2 0x1B2 JUMPI PUSH1 0x4 CALLDATALOAD PUSH1 0x1 PUSH1 0x1 PUSH1 0x40 SHL SUB DUP2 GT PUSH2 0x1B0 JUMPI PUSH2 0xBE2 SWAP1 CALLDATASIZE SWAP1 PUSH1 0x4 ADD PUSH2 0x1BE8 JUMP JUMPDEST PUSH1 0x24 CALLDATALOAD PUSH1 0x1 PUSH1 0x1 PUSH1 0x40 SHL SUB DUP2 GT PUSH2 0x39B JUMPI PUSH2 0xC01 SWAP1 CALLDATASIZE SWAP1 PUSH1 0x4 ADD PUSH2 0x1BE8 JUMP JUMPDEST PUSH1 0x44 CALLDATALOAD PUSH1 0x1 PUSH1 0x1 PUSH1 0x40 SHL SUB DUP2 GT PUSH2 0x4DD JUMPI PUSH2 0xC20 SWAP1 CALLDATASIZE SWAP1 PUSH1 0x4 ADD PUSH2 0x1BE8 JUMP JUMPDEST CALLER DUP5 MSTORE PUSH1 0xD PUSH1 0x20 MSTORE PUSH1 0xFF PUSH1 0x3 PUSH1 0x40 DUP7 KECCAK256 ADD SLOAD AND PUSH2 0x1008 JUMPI PUSH1 0x40 MLOAD SWAP3 PUSH1 0xA0 DUP5 ADD DUP5 DUP2 LT PUSH1 0x1 PUSH1 0x1 PUSH1 0x40 SHL SUB DUP3 GT OR PUSH2 0xFF4 JUMPI PUSH1 0x40 MSTORE DUP4 MSTORE PUSH1 0x20 DUP4 ADD SWAP2 DUP3 MSTORE PUSH1 0x40 DUP4 ADD SWAP1 DUP2 MSTORE PUSH1 0x60 DUP4 ADD SWAP1 PUSH1 0x1 DUP3 MSTORE PUSH1 0x80 DUP5 ADD SWAP3 DUP6 DUP5 MSTORE CALLER DUP7 MSTORE PUSH1 0xD PUSH1 0x20 MSTORE PUSH1 0x40 DUP7 KECCAK256 SWAP5 MLOAD DUP1 MLOAD SWAP1 PUSH1 0x1 PUSH1 0x1 PUSH1 0x40 SHL SUB DUP3 GT PUSH2 0xA29 JUMPI DUP2 SWAP1 PUSH2 0xCA0 DUP9 SLOAD PUSH2 0x1C03 JUMP JUMPDEST PUSH1 0x1F DUP2 GT PUSH2 0xFA4 JUMPI JUMPDEST POP PUSH1 0x20 SWAP1 PUSH1 0x1F DUP4 GT PUSH1 0x1 EQ PUSH2 0xF41 JUMPI DUP10 SWAP3 PUSH2 0xF36 JUMPI JUMPDEST POP POP DUP2 PUSH1 0x1 SHL SWAP2 PUSH1 0x0 NOT SWAP1 PUSH1 0x3 SHL SHR NOT AND OR DUP6 SSTORE JUMPDEST MLOAD DUP1 MLOAD PUSH1 0x1 DUP7 ADD SWAP2 PUSH1 0x1 PUSH1 0x1 PUSH1 0x40 SHL SUB DUP3 GT PUSH2 0xA29 JUMPI DUP2 SWAP1 PUSH2 0xCF6 DUP5 SLOAD PUSH2 0x1C03 JUMP JUMPDEST PUSH1 0x1F DUP2 GT PUSH2 0xEE6 JUMPI JUMPDEST POP PUSH1 0x20 SWAP1 PUSH1 0x1F DUP4 GT PUSH1 0x1 EQ PUSH2 0xE83 JUMPI DUP10 SWAP3 PUSH2 0xE78 JUMPI JUMPDEST POP POP DUP2 PUSH1 0x1 SHL SWAP2 PUSH1 0x0 NOT SWAP1 PUSH1 0x3 SHL SHR NOT AND OR SWAP1 SSTORE JUMPDEST MLOAD DUP1 MLOAD PUSH1 0x2 DUP6 ADD SWAP2 PUSH1 0x1 PUSH1 0x1 PUSH1 0x40 SHL SUB DUP3 GT PUSH2 0xE64 JUMPI PUSH2 0xD4A DUP4 SLOAD PUSH2 0x1C03 JUMP JUMPDEST PUSH1 0x1F DUP2 GT PUSH2 0xE1F JUMPI JUMPDEST POP PUSH1 0x20 SWAP1 PUSH1 0x1F DUP4 GT PUSH1 0x1 EQ PUSH2 0xDB4 JUMPI SWAP2 DUP1 PUSH2 0xDA2 SWAP5 SWAP3 PUSH1 0x4 SWAP8 SWAP7 SWAP5 DUP11 SWAP3 PUSH2 0xDA9 JUMPI JUMPDEST POP POP DUP2 PUSH1 0x1 SHL SWAP2 PUSH1 0x0 NOT SWAP1 PUSH1 0x3 SHL SHR NOT AND OR SWAP1 SSTORE JUMPDEST MLOAD ISZERO ISZERO PUSH1 0x3 DUP6 ADD SWAP1 PUSH1 0xFF DUP1 NOT DUP4 SLOAD AND SWAP2 ISZERO ISZERO AND OR SWAP1 SSTORE JUMP JUMPDEST MLOAD SWAP2 ADD SSTORE DUP1 RETURN JUMPDEST ADD MLOAD SWAP1 POP CODESIZE DUP1 PUSH2 0xD75 JUMP JUMPDEST DUP4 DUP9 MSTORE DUP2 DUP9 KECCAK256 SWAP2 SWAP1 PUSH1 0x1F NOT DUP5 AND DUP10 JUMPDEST DUP2 DUP2 LT PUSH2 0xE07 JUMPI POP SWAP3 PUSH1 0x1 SWAP3 DUP6 SWAP3 PUSH1 0x4 SWAP10 SWAP9 SWAP7 PUSH2 0xDA2 SWAP9 SWAP7 LT PUSH2 0xDEE JUMPI JUMPDEST POP POP POP DUP2 SHL ADD SWAP1 SSTORE PUSH2 0xD8A JUMP JUMPDEST ADD MLOAD PUSH1 0x0 NOT PUSH1 0xF8 DUP5 PUSH1 0x3 SHL AND SHR NOT AND SWAP1 SSTORE CODESIZE DUP1 DUP1 PUSH2 0xDE1 JUMP JUMPDEST SWAP3 SWAP4 PUSH1 0x20 PUSH1 0x1 DUP2 SWAP3 DUP8 DUP7 ADD MLOAD DUP2 SSTORE ADD SWAP6 ADD SWAP4 ADD PUSH2 0xDC3 JUMP JUMPDEST DUP4 DUP9 MSTORE PUSH1 0x20 DUP9 KECCAK256 PUSH1 0x1F DUP5 ADD PUSH1 0x5 SHR DUP2 ADD SWAP2 PUSH1 0x20 DUP6 LT PUSH2 0xE5A JUMPI JUMPDEST PUSH1 0x1F ADD PUSH1 0x5 SHR ADD SWAP1 JUMPDEST DUP2 DUP2 LT PUSH2 0xE4F JUMPI POP PUSH2 0xD53 JUMP JUMPDEST DUP9 DUP2 SSTORE PUSH1 0x1 ADD PUSH2 0xE42 JUMP JUMPDEST SWAP1 SWAP2 POP DUP2 SWAP1 PUSH2 0xE39 JUMP JUMPDEST PUSH4 0x4E487B71 PUSH1 0xE0 SHL DUP8 MSTORE PUSH1 0x41 PUSH1 0x4 MSTORE PUSH1 0x24 DUP8 REVERT JUMPDEST ADD MLOAD SWAP1 POP CODESIZE DUP1 PUSH2 0xD15 JUMP JUMPDEST DUP5 DUP11 MSTORE DUP2 DUP11 KECCAK256 SWAP3 POP PUSH1 0x1F NOT DUP5 AND DUP11 JUMPDEST DUP2 DUP2 LT PUSH2 0xECE JUMPI POP SWAP1 DUP5 PUSH1 0x1 SWAP6 SWAP5 SWAP4 SWAP3 LT PUSH2 0xEB5 JUMPI JUMPDEST POP POP POP DUP2 SHL ADD SWAP1 SSTORE PUSH2 0xD2A JUMP JUMPDEST ADD MLOAD PUSH1 0x0 NOT PUSH1 0xF8 DUP5 PUSH1 0x3 SHL AND SHR NOT AND SWAP1 SSTORE CODESIZE DUP1 DUP1 PUSH2 0xEA8 JUMP JUMPDEST SWAP3 SWAP4 PUSH1 0x20 PUSH1 0x1 DUP2 SWAP3 DUP8 DUP7 ADD MLOAD DUP2 SSTORE ADD SWAP6 ADD SWAP4 ADD PUSH2 0xE92 JUMP JUMPDEST SWAP1 SWAP2 POP DUP4 DUP10 MSTORE PUSH1 0x20 DUP10 KECCAK256 PUSH1 0x1F DUP5 ADD PUSH1 0x5 SHR DUP2 ADD SWAP2 PUSH1 0x20 DUP6 LT PUSH2 0xF2C JUMPI JUMPDEST SWAP1 PUSH1 0x1F DUP6 SWAP5 SWAP4 SWAP3 ADD PUSH1 0x5 SHR ADD SWAP1 JUMPDEST DUP2 DUP2 LT PUSH2 0xF1E JUMPI POP PUSH2 0xCFF JUMP JUMPDEST DUP11 DUP2 SSTORE DUP5 SWAP4 POP PUSH1 0x1 ADD PUSH2 0xF11 JUMP JUMPDEST SWAP1 SWAP2 POP DUP2 SWAP1 PUSH2 0xF03 JUMP JUMPDEST ADD MLOAD SWAP1 POP CODESIZE DUP1 PUSH2 0xCBF JUMP JUMPDEST DUP9 DUP11 MSTORE DUP2 DUP11 KECCAK256 SWAP3 POP PUSH1 0x1F NOT DUP5 AND DUP11 JUMPDEST DUP2 DUP2 LT PUSH2 0xF8C JUMPI POP SWAP1 DUP5 PUSH1 0x1 SWAP6 SWAP5 SWAP4 SWAP3 LT PUSH2 0xF73 JUMPI JUMPDEST POP POP POP DUP2 SHL ADD DUP6 SSTORE PUSH2 0xCD4 JUMP JUMPDEST ADD MLOAD PUSH1 0x0 NOT PUSH1 0xF8 DUP5 PUSH1 0x3 SHL AND SHR NOT AND SWAP1 SSTORE CODESIZE DUP1 DUP1 PUSH2 0xF66 JUMP JUMPDEST SWAP3 SWAP4 PUSH1 0x20 PUSH1 0x1 DUP2 SWAP3 DUP8 DUP7 ADD MLOAD DUP2 SSTORE ADD SWAP6 ADD SWAP4 ADD PUSH2 0xF50 JUMP JUMPDEST SWAP1 SWAP2 POP DUP8 DUP10 MSTORE PUSH1 0x20 DUP10 KECCAK256 PUSH1 0x1F DUP5 ADD PUSH1 0x5 SHR DUP2 ADD SWAP2 PUSH1 0x20 DUP6 LT PUSH2 0xFEA JUMPI JUMPDEST SWAP1 PUSH1 0x1F DUP6 SWAP5 SWAP4 SWAP3 ADD PUSH1 0x5 SHR ADD SWAP1 JUMPDEST DUP2 DUP2 LT PUSH2 0xFDC JUMPI POP PUSH2 0xCA9 JUMP JUMPDEST DUP11 DUP2 SSTORE DUP5 SWAP4 POP PUSH1 0x1 ADD PUSH2 0xFCF JUMP JUMPDEST SWAP1 SWAP2 POP DUP2 SWAP1 PUSH2 0xFC1 JUMP JUMPDEST PUSH4 0x4E487B71 PUSH1 0xE0 SHL DUP7 MSTORE PUSH1 0x41 PUSH1 0x4 MSTORE PUSH1 0x24 DUP7 REVERT JUMPDEST PUSH1 0x40 MLOAD PUSH3 0x461BCD PUSH1 0xE5 SHL DUP2 MSTORE PUSH1 0x20 PUSH1 0x4 DUP3 ADD MSTORE PUSH1 0x1A PUSH1 0x24 DUP3 ADD MSTORE PUSH32 0x43726561746F7220616C72656164792072656769737465726564000000000000 PUSH1 0x44 DUP3 ADD MSTORE PUSH1 0x64 SWAP1 REVERT JUMPDEST POP CALLVALUE PUSH2 0x1B2 JUMPI PUSH1 0x40 CALLDATASIZE PUSH1 0x3 NOT ADD SLT PUSH2 0x1B2 JUMPI PUSH1 0x4 CALLDATALOAD PUSH1 0x1 PUSH1 0x1 PUSH1 0x40 SHL SUB DUP2 GT PUSH2 0x1B0 JUMPI PUSH2 0x107E SWAP1 CALLDATASIZE SWAP1 PUSH1 0x4 ADD PUSH2 0x1BE8 JUMP JUMPDEST CALLER DUP3 MSTORE PUSH1 0xD PUSH1 0x20 MSTORE PUSH2 0x1099 PUSH1 0xFF PUSH1 0x3 PUSH1 0x40 DUP6 KECCAK256 ADD SLOAD AND PUSH2 0x1EC9 JUMP JUMPDEST PUSH1 0x7 SLOAD PUSH2 0x10A5 DUP2 PUSH2 0x1F21 JUMP JUMPDEST PUSH1 0x7 SSTORE CALLER ISZERO PUSH2 0x12D7 JUMPI DUP1 DUP4 MSTORE PUSH1 0x2 PUSH1 0x20 MSTORE PUSH1 0x40 DUP4 KECCAK256 SLOAD PUSH1 0x1 PUSH1 0x1 PUSH1 0xA0 SHL SUB AND DUP1 ISZERO ISZERO SWAP1 DUP2 PUSH2 0x12A2 JUMPI JUMPDEST CALLER DUP1 DUP7 MSTORE PUSH1 0x3 PUSH1 0x20 SWAP1 DUP2 MSTORE PUSH1 0x40 DUP1 DUP9 KECCAK256 DUP1 SLOAD PUSH1 0x1 ADD SWAP1 SSTORE DUP6 DUP9 MSTORE PUSH1 0x2 SWAP1 SWAP2 MSTORE DUP7 KECCAK256 DUP1 SLOAD PUSH1 0x1 PUSH1 0x1 PUSH1 0xA0 SHL SUB NOT AND DUP3 OR SWAP1 SSTORE DUP4 SWAP1 DUP3 PUSH32 0xDDF252AD1BE2C89B69C2B068FC378DAA952BA7F163C4A11628F55A4DF523B3EF DUP9 DUP1 LOG4 POP PUSH2 0x128E JUMPI DUP1 DUP4 MSTORE PUSH1 0x6 PUSH1 0x20 MSTORE PUSH1 0x40 DUP4 KECCAK256 DUP3 MLOAD PUSH1 0x1 PUSH1 0x1 PUSH1 0x40 SHL SUB DUP2 GT PUSH2 0x127A JUMPI PUSH2 0x1151 DUP3 SLOAD PUSH2 0x1C03 JUMP JUMPDEST PUSH1 0x1F DUP2 GT PUSH2 0x1235 JUMPI JUMPDEST POP PUSH1 0x20 SWAP5 DUP6 SWAP1 PUSH1 0x1 PUSH1 0x1F DUP5 GT EQ PUSH2 0x11D5 JUMPI SWAP5 DUP3 SWAP4 SWAP5 SWAP6 SWAP3 PUSH2 0x11CA JUMPI JUMPDEST POP POP DUP2 PUSH1 0x1 SHL SWAP2 PUSH1 0x0 NOT SWAP1 PUSH1 0x3 SHL SHR NOT AND OR SWAP1 SSTORE JUMPDEST PUSH32 0xF8E1A15ABA9398E019F0B49DF1A4FDE98EE17AE345CB5F6B5E2C27F5033E8CE7 DUP3 PUSH1 0x40 MLOAD DUP4 DUP2 MSTORE LOG1 PUSH2 0x11C2 CALLER PUSH1 0x24 CALLDATALOAD DUP4 ADDRESS PUSH2 0x217A JUMP JUMPDEST PUSH1 0x40 MLOAD SWAP1 DUP2 MSTORE RETURN JUMPDEST ADD MLOAD SWAP1 POP CODESIZE DUP1 PUSH2 0x1176 JUMP JUMPDEST SWAP1 PUSH1 0x1F NOT DUP4 AND SWAP6 DUP5 DUP4 MSTORE DUP2 DUP4 KECCAK256 SWAP3 JUMPDEST DUP8 DUP2 LT PUSH2 0x121E JUMPI POP DUP4 PUSH1 0x1 SWAP6 SWAP7 SWAP8 LT PUSH2 0x1205 JUMPI JUMPDEST POP POP POP DUP2 SHL ADD SWAP1 SSTORE PUSH2 0x118B JUMP JUMPDEST ADD MLOAD PUSH1 0x0 NOT PUSH1 0xF8 DUP5 PUSH1 0x3 SHL AND SHR NOT AND SWAP1 SSTORE CODESIZE DUP1 DUP1 PUSH2 0x11F8 JUMP JUMPDEST SWAP2 SWAP3 DUP9 PUSH1 0x1 DUP2 SWAP3 DUP7 DUP6 ADD MLOAD DUP2 SSTORE ADD SWAP5 ADD SWAP3 ADD PUSH2 0x11E4 JUMP JUMPDEST DUP3 DUP7 MSTORE PUSH1 0x20 DUP7 KECCAK256 PUSH1 0x1F DUP4 ADD PUSH1 0x5 SHR DUP2 ADD SWAP2 PUSH1 0x20 DUP5 LT PUSH2 0x1270 JUMPI JUMPDEST PUSH1 0x1F ADD PUSH1 0x5 SHR ADD SWAP1 JUMPDEST DUP2 DUP2 LT PUSH2 0x1265 JUMPI POP PUSH2 0x115A JUMP JUMPDEST DUP7 DUP2 SSTORE PUSH1 0x1 ADD PUSH2 0x1258 JUMP JUMPDEST SWAP1 SWAP2 POP DUP2 SWAP1 PUSH2 0x124F JUMP JUMPDEST PUSH4 0x4E487B71 PUSH1 0xE0 SHL DUP6 MSTORE PUSH1 0x41 PUSH1 0x4 MSTORE PUSH1 0x24 DUP6 REVERT JUMPDEST PUSH4 0x39E35637 PUSH1 0xE1 SHL DUP4 MSTORE PUSH1 0x4 DUP4 SWAP1 MSTORE PUSH1 0x24 DUP4 REVERT JUMPDEST PUSH1 0x0 DUP4 DUP2 MSTORE PUSH1 0x4 PUSH1 0x20 MSTORE PUSH1 0x40 SWAP1 KECCAK256 DUP1 SLOAD PUSH1 0x1 PUSH1 0x1 PUSH1 0xA0 SHL SUB NOT AND SWAP1 SSTORE DUP1 DUP6 MSTORE PUSH1 0x3 PUSH1 0x20 MSTORE PUSH1 0x40 DUP6 KECCAK256 DUP1 SLOAD PUSH1 0x0 NOT ADD SWAP1 SSTORE PUSH2 0x10CE JUMP JUMPDEST PUSH4 0x32505749 PUSH1 0xE1 SHL DUP4 MSTORE PUSH1 0x4 DUP4 SWAP1 MSTORE PUSH1 0x24 DUP4 REVERT JUMPDEST POP CALLVALUE PUSH2 0x1B2 JUMPI PUSH1 0x20 CALLDATASIZE PUSH1 0x3 NOT ADD SLT PUSH2 0x1B2 JUMPI PUSH1 0x1 PUSH1 0x1 PUSH1 0xA0 SHL SUB PUSH2 0x130D PUSH2 0x19CC JUMP JUMPDEST AND DUP1 ISZERO PUSH2 0x132A JUMPI DUP2 PUSH1 0x40 SWAP2 PUSH1 0x20 SWAP4 MSTORE PUSH1 0x3 DUP4 MSTORE KECCAK256 SLOAD PUSH1 0x40 MLOAD SWAP1 DUP2 MSTORE RETURN JUMPDEST PUSH4 0x22718AD9 PUSH1 0xE2 SHL DUP3 MSTORE PUSH1 0x4 DUP3 SWAP1 MSTORE PUSH1 0x24 DUP3 REVERT JUMPDEST POP CALLVALUE PUSH2 0x1B2 JUMPI PUSH2 0x134D CALLDATASIZE PUSH2 0x1BBE JUMP JUMPDEST SWAP3 SWAP2 SWAP1 SWAP3 CALLER DUP4 MSTORE PUSH1 0xD PUSH1 0x20 MSTORE PUSH2 0x136C PUSH1 0xFF PUSH1 0x3 PUSH1 0x40 DUP7 KECCAK256 ADD SLOAD AND PUSH2 0x1EC9 JUMP JUMPDEST PUSH1 0x1 PUSH1 0x1 PUSH1 0xA0 SHL SUB DUP3 AND DUP1 EXTCODESIZE ISZERO PUSH2 0x4DD JUMPI PUSH1 0x40 MLOAD PUSH4 0x23B872DD PUSH1 0xE0 SHL DUP2 MSTORE CALLER PUSH1 0x4 DUP3 ADD MSTORE ADDRESS PUSH1 0x24 DUP3 ADD MSTORE PUSH1 0x44 DUP2 ADD DUP7 SWAP1 MSTORE SWAP1 DUP5 SWAP1 DUP3 SWAP1 PUSH1 0x64 SWAP1 DUP3 SWAP1 DUP5 SWAP1 GAS CALL DUP1 ISZERO PUSH2 0xA1E JUMPI PUSH2 0x13C3 JUMPI JUMPDEST POP PUSH2 0x413 SWAP3 SWAP4 CALLER SWAP3 PUSH2 0x217A JUMP JUMPDEST SWAP3 PUSH2 0x13D1 DUP2 PUSH2 0x413 SWAP6 PUSH2 0x1AA6 JUMP JUMPDEST SWAP3 PUSH2 0x13B6 JUMP JUMPDEST POP CALLVALUE PUSH2 0x1B2 JUMPI PUSH1 0x20 CALLDATASIZE PUSH1 0x3 NOT ADD SLT PUSH2 0x1B2 JUMPI PUSH1 0x20 PUSH2 0x13F6 PUSH1 0x4 CALLDATALOAD PUSH2 0x2143 JUMP JUMPDEST PUSH1 0x40 MLOAD PUSH1 0x1 PUSH1 0x1 PUSH1 0xA0 SHL SUB SWAP1 SWAP2 AND DUP2 MSTORE RETURN JUMPDEST POP CALLVALUE PUSH2 0x1B2 JUMPI DUP1 PUSH1 0x3 NOT CALLDATASIZE ADD SLT PUSH2 0x1B2 JUMPI PUSH1 0x9 SLOAD DUP2 SWAP1 DUP2 DUP1 JUMPDEST DUP3 DUP2 LT PUSH2 0x1505 JUMPI POP PUSH2 0x1432 SWAP1 PUSH2 0x1C77 JUMP JUMPDEST SWAP2 DUP4 JUMPDEST DUP3 DUP2 LT PUSH2 0x144A JUMPI PUSH1 0x40 MLOAD DUP1 PUSH2 0x1E9 DUP7 DUP3 PUSH2 0x19E7 JUMP JUMPDEST DUP1 DUP6 MSTORE PUSH1 0xC PUSH1 0x20 MSTORE PUSH1 0x40 DUP6 KECCAK256 PUSH1 0x2 ADD SLOAD PUSH1 0x1 PUSH1 0x1 PUSH1 0xA0 SHL SUB AND CALLER EQ PUSH2 0x1472 JUMPI JUMPDEST PUSH1 0x1 ADD PUSH2 0x1435 JUMP JUMPDEST SWAP1 DUP2 DUP6 MSTORE PUSH1 0xC PUSH1 0x20 MSTORE PUSH1 0x40 DUP6 KECCAK256 PUSH1 0x5 PUSH1 0x40 MLOAD SWAP2 PUSH2 0x148E DUP4 PUSH2 0x1A75 JUMP JUMPDEST DUP1 SLOAD DUP4 MSTORE PUSH1 0x1 DUP2 ADD SLOAD PUSH1 0x20 DUP5 ADD MSTORE PUSH1 0x2 DUP2 ADD SLOAD PUSH1 0x1 PUSH1 0x1 PUSH1 0xA0 SHL SUB SWAP1 DUP2 AND PUSH1 0x40 DUP6 ADD MSTORE PUSH1 0x3 DUP3 ADD SLOAD DUP2 AND PUSH1 0x60 DUP6 ADD MSTORE PUSH1 0x4 DUP3 ADD SLOAD PUSH1 0x80 DUP6 ADD MSTORE SWAP2 ADD SLOAD PUSH1 0xFF DUP2 AND ISZERO ISZERO PUSH1 0xA0 DUP5 ADD MSTORE PUSH1 0x8 SHR AND PUSH1 0xC0 DUP3 ADD MSTORE PUSH2 0x14E8 DUP3 DUP7 PUSH2 0x1CF8 JUMP JUMPDEST MSTORE PUSH2 0x14F3 DUP2 DUP6 PUSH2 0x1CF8 JUMP JUMPDEST POP PUSH1 0x1 DUP2 ADD DUP1 SWAP2 GT PUSH2 0xB63 JUMPI SWAP1 PUSH2 0x146A JUMP JUMPDEST DUP1 DUP6 MSTORE PUSH1 0xC PUSH1 0x20 MSTORE PUSH1 0x40 DUP6 KECCAK256 PUSH1 0x2 ADD SLOAD PUSH1 0x1 PUSH1 0x1 PUSH1 0xA0 SHL SUB AND CALLER EQ PUSH2 0x152D JUMPI JUMPDEST PUSH1 0x1 ADD PUSH2 0x1421 JUMP JUMPDEST SWAP1 PUSH1 0x1 DUP2 ADD DUP1 SWAP2 GT PUSH2 0xB63 JUMPI SWAP1 PUSH2 0x1525 JUMP JUMPDEST POP CALLVALUE PUSH2 0x1B2 JUMPI PUSH2 0x413 PUSH2 0x1551 CALLDATASIZE PUSH2 0x1B84 JUMP JUMPDEST SWAP1 PUSH1 0x40 MLOAD SWAP3 PUSH2 0x1561 PUSH1 0x20 DUP6 PUSH2 0x1AA6 JUMP JUMPDEST DUP6 DUP5 MSTORE PUSH2 0x1F30 JUMP JUMPDEST POP CALLVALUE PUSH2 0x1B2 JUMPI PUSH2 0x413 PUSH2 0x157B CALLDATASIZE PUSH2 0x1B84 JUMP JUMPDEST SWAP2 PUSH2 0x1D22 JUMP JUMPDEST POP CALLVALUE PUSH2 0x1B2 JUMPI PUSH2 0x1590 CALLDATASIZE PUSH2 0x1B19 JUMP JUMPDEST POP POP POP POP PUSH1 0x20 PUSH1 0x40 MLOAD PUSH4 0xA85BD01 PUSH1 0xE1 SHL DUP2 MSTORE RETURN JUMPDEST POP CALLVALUE PUSH2 0x1B2 JUMPI DUP1 PUSH1 0x3 NOT CALLDATASIZE ADD SLT PUSH2 0x1B2 JUMPI PUSH1 0x9 SLOAD PUSH2 0x15C5 PUSH1 0x8 SLOAD DUP3 PUSH2 0x1C3D JUMP JUMPDEST SWAP1 PUSH2 0x15D0 DUP4 SWAP3 PUSH2 0x1C77 JUMP JUMPDEST SWAP2 DUP4 JUMPDEST DUP3 DUP2 LT PUSH2 0x15E8 JUMPI PUSH1 0x40 MLOAD DUP1 PUSH2 0x1E9 DUP7 DUP3 PUSH2 0x19E7 JUMP JUMPDEST DUP1 DUP6 MSTORE PUSH1 0xC PUSH1 0x20 MSTORE PUSH1 0x40 DUP6 KECCAK256 PUSH1 0x3 ADD SLOAD PUSH1 0x1 PUSH1 0x1 PUSH1 0xA0 SHL SUB AND ADDRESS EQ PUSH2 0x1610 JUMPI JUMPDEST PUSH1 0x1 ADD PUSH2 0x15D3 JUMP JUMPDEST SWAP1 DUP2 DUP6 MSTORE PUSH1 0xC PUSH1 0x20 MSTORE PUSH1 0x40 DUP6 KECCAK256 PUSH1 0x5 PUSH1 0x40 MLOAD SWAP2 PUSH2 0x162C DUP4 PUSH2 0x1A75 JUMP JUMPDEST DUP1 SLOAD DUP4 MSTORE PUSH1 0x1 DUP2 ADD SLOAD PUSH1 0x20 DUP5 ADD MSTORE PUSH1 0x2 DUP2 ADD SLOAD PUSH1 0x1 PUSH1 0x1 PUSH1 0xA0 SHL SUB SWAP1 DUP2 AND PUSH1 0x40 DUP6 ADD MSTORE PUSH1 0x3 DUP3 ADD SLOAD DUP2 AND PUSH1 0x60 DUP6 ADD MSTORE PUSH1 0x4 DUP3 ADD SLOAD PUSH1 0x80 DUP6 ADD MSTORE SWAP2 ADD SLOAD PUSH1 0xFF DUP2 AND ISZERO ISZERO PUSH1 0xA0 DUP5 ADD MSTORE PUSH1 0x8 SHR AND PUSH1 0xC0 DUP3 ADD MSTORE PUSH2 0x1686 DUP3 DUP7 PUSH2 0x1CF8 JUMP JUMPDEST MSTORE PUSH2 0x1691 DUP2 DUP6 PUSH2 0x1CF8 JUMP JUMPDEST POP PUSH1 0x1 DUP2 ADD DUP1 SWAP2 GT PUSH2 0xB63 JUMPI SWAP1 PUSH2 0x1608 JUMP JUMPDEST POP CALLVALUE PUSH2 0x1B2 JUMPI PUSH1 0x40 CALLDATASIZE PUSH1 0x3 NOT ADD SLT PUSH2 0x1B2 JUMPI PUSH2 0x16BD PUSH2 0x19CC JUMP JUMPDEST PUSH1 0x24 CALLDATALOAD PUSH2 0x16C9 DUP2 PUSH2 0x2143 JUMP JUMPDEST CALLER ISZERO ISZERO DUP1 PUSH2 0x1778 JUMPI JUMPDEST DUP1 PUSH2 0x174D JUMPI JUMPDEST PUSH2 0x173A JUMPI DUP2 SWAP1 PUSH1 0x1 PUSH1 0x1 PUSH1 0xA0 SHL SUB DUP5 DUP2 AND SWAP2 AND PUSH32 0x8C5BE1E5EBEC7D5BD14F71427D1E84F3DD0314C0F7B2291E5B200AC8C7C3B925 DUP7 DUP1 LOG4 DUP3 MSTORE PUSH1 0x4 PUSH1 0x20 MSTORE PUSH1 0x40 DUP3 KECCAK256 DUP1 SLOAD PUSH1 0x1 PUSH1 0x1 PUSH1 0xA0 SHL SUB NOT AND PUSH1 0x1 PUSH1 0x1 PUSH1 0xA0 SHL SUB SWAP1 SWAP3 AND SWAP2 SWAP1 SWAP2 OR SWAP1 SSTORE DUP1 RETURN JUMPDEST PUSH4 0xA9FBF51F PUSH1 0xE0 SHL DUP5 MSTORE CALLER PUSH1 0x4 MSTORE PUSH1 0x24 DUP5 REVERT JUMPDEST POP PUSH1 0x1 PUSH1 0x1 PUSH1 0xA0 SHL SUB DUP2 AND DUP5 MSTORE PUSH1 0x5 PUSH1 0x20 SWAP1 DUP2 MSTORE PUSH1 0x40 DUP1 DUP7 KECCAK256 CALLER DUP8 MSTORE SWAP1 SWAP2 MSTORE DUP5 KECCAK256 SLOAD PUSH1 0xFF AND ISZERO PUSH2 0x16D8 JUMP JUMPDEST POP PUSH1 0x1 PUSH1 0x1 PUSH1 0xA0 SHL SUB DUP2 AND CALLER EQ ISZERO PUSH2 0x16D2 JUMP JUMPDEST POP CALLVALUE PUSH2 0x1B2 JUMPI PUSH1 0x20 CALLDATASIZE PUSH1 0x3 NOT ADD SLT PUSH2 0x1B2 JUMPI PUSH1 0x20 SWAP1 PUSH1 0x4 CALLDATALOAD PUSH2 0x17AC DUP2 PUSH2 0x2143 JUMP JUMPDEST POP DUP2 MSTORE PUSH1 0x4 DUP3 MSTORE PUSH1 0x40 PUSH1 0x1 DUP1 PUSH1 0xA0 SHL SUB SWAP2 KECCAK256 SLOAD AND PUSH1 0x40 MLOAD SWAP1 DUP2 MSTORE RETURN JUMPDEST POP CALLVALUE PUSH2 0x1B2 JUMPI DUP1 PUSH1 0x3 NOT CALLDATASIZE ADD SLT PUSH2 0x1B2 JUMPI PUSH1 0x40 MLOAD SWAP1 DUP1 DUP1 SLOAD SWAP1 PUSH2 0x17EA DUP3 PUSH2 0x1C03 JUMP JUMPDEST DUP1 DUP6 MSTORE SWAP2 PUSH1 0x1 DUP2 AND SWAP1 DUP2 ISZERO PUSH2 0x6CF JUMPI POP PUSH1 0x1 EQ PUSH2 0x1811 JUMPI PUSH2 0x1E9 DUP5 PUSH2 0x1D5 DUP2 DUP7 SUB DUP3 PUSH2 0x1AA6 JUMP JUMPDEST DUP1 DUP1 MSTORE PUSH32 0x290DECD9548B62A8D60345A988386FC84BA6BC95484008F6362F93160EF3E563 SWAP4 SWAP3 POP SWAP1 JUMPDEST DUP1 DUP3 LT PUSH2 0x1853 JUMPI POP SWAP1 SWAP2 POP DUP2 ADD PUSH1 0x20 ADD PUSH2 0x1D5 DUP3 PUSH2 0x662 JUMP JUMPDEST SWAP2 SWAP3 PUSH1 0x1 DUP2 PUSH1 0x20 SWAP3 SLOAD DUP4 DUP6 DUP9 ADD ADD MSTORE ADD SWAP2 ADD SWAP1 SWAP3 SWAP2 PUSH2 0x183A JUMP JUMPDEST POP CALLVALUE PUSH2 0x1B2 JUMPI PUSH1 0x20 CALLDATASIZE PUSH1 0x3 NOT ADD SLT PUSH2 0x1B2 JUMPI PUSH1 0x4 CALLDATALOAD PUSH4 0xFFFFFFFF PUSH1 0xE0 SHL DUP2 AND DUP1 SWAP2 SUB PUSH2 0x1B0 JUMPI PUSH1 0x20 SWAP1 PUSH4 0x24832483 PUSH1 0xE1 SHL DUP2 EQ SWAP1 DUP2 ISZERO PUSH2 0x18B3 JUMPI JUMPDEST POP PUSH1 0x40 MLOAD SWAP1 ISZERO ISZERO DUP2 MSTORE RETURN JUMPDEST PUSH4 0x80AC58CD PUSH1 0xE0 SHL DUP2 EQ SWAP2 POP DUP2 ISZERO PUSH2 0x18E5 JUMPI JUMPDEST DUP2 ISZERO PUSH2 0x18D4 JUMPI JUMPDEST POP DUP3 PUSH2 0x18A8 JUMP JUMPDEST PUSH4 0x1FFC9A7 PUSH1 0xE0 SHL EQ SWAP1 POP DUP3 PUSH2 0x18CD JUMP JUMPDEST PUSH4 0x5B5E139F PUSH1 0xE0 SHL DUP2 EQ SWAP2 POP PUSH2 0x18C6 JUMP JUMPDEST SWAP1 POP CALLVALUE PUSH2 0x1B0 JUMPI PUSH1 0x20 CALLDATASIZE PUSH1 0x3 NOT ADD SLT PUSH2 0x1B0 JUMPI PUSH1 0xB SLOAD PUSH1 0x1 PUSH1 0x1 PUSH1 0xA0 SHL SUB AND CALLER SUB PUSH2 0x1925 JUMPI POP PUSH1 0x4 CALLDATALOAD PUSH1 0xA SSTORE DUP1 RETURN JUMPDEST PUSH3 0x461BCD PUSH1 0xE5 SHL DUP2 MSTORE PUSH1 0x20 PUSH1 0x4 DUP3 ADD MSTORE PUSH1 0x40 PUSH1 0x24 DUP3 ADD MSTORE PUSH32 0x4F6E6C7920746865206D61726B6574706C616365206F776E65722063616E2063 PUSH1 0x44 DUP3 ADD MSTORE PUSH32 0x68616E676520746865206C697374696E67206665652070657263656E74616765 PUSH1 0x64 DUP3 ADD MSTORE PUSH1 0x84 SWAP1 REVERT JUMPDEST SWAP2 SWAP1 DUP3 MLOAD DUP1 DUP3 MSTORE PUSH1 0x20 DUP1 DUP4 ADD SWAP5 ADD PUSH1 0x0 JUMPDEST DUP3 DUP2 LT PUSH2 0x19BC JUMPI POP POP PUSH1 0x0 DUP2 PUSH1 0x20 SWAP5 SWAP6 ADD MSTORE PUSH1 0x1F DUP1 NOT SWAP2 ADD AND ADD ADD SWAP1 JUMP JUMPDEST DUP2 DUP2 ADD MLOAD DUP7 DUP3 ADD MSTORE PUSH1 0x20 ADD PUSH2 0x199E JUMP JUMPDEST PUSH1 0x4 CALLDATALOAD SWAP1 PUSH1 0x1 PUSH1 0x1 PUSH1 0xA0 SHL SUB DUP3 AND DUP3 SUB PUSH2 0x19E2 JUMPI JUMP JUMPDEST PUSH1 0x0 DUP1 REVERT JUMPDEST PUSH1 0x20 PUSH1 0x40 DUP2 DUP4 ADD SWAP3 DUP3 DUP2 MSTORE DUP5 MLOAD DUP1 SWAP5 MSTORE ADD SWAP3 ADD SWAP1 PUSH1 0x0 JUMPDEST DUP2 DUP2 LT PUSH2 0x1A0B JUMPI POP POP POP SWAP1 JUMP JUMPDEST DUP3 MLOAD DUP1 MLOAD DUP6 MSTORE PUSH1 0x20 DUP2 DUP2 ADD MLOAD DUP2 DUP8 ADD MSTORE PUSH1 0x40 DUP1 DUP4 ADD MLOAD PUSH1 0x1 PUSH1 0x1 PUSH1 0xA0 SHL SUB SWAP1 DUP2 AND SWAP2 DUP9 ADD SWAP2 SWAP1 SWAP2 MSTORE PUSH1 0x60 DUP1 DUP5 ADD MLOAD DUP3 AND SWAP1 DUP9 ADD MSTORE PUSH1 0x80 DUP1 DUP5 ADD MLOAD SWAP1 DUP9 ADD MSTORE PUSH1 0xA0 DUP1 DUP5 ADD MLOAD ISZERO ISZERO SWAP1 DUP9 ADD MSTORE PUSH1 0xC0 SWAP3 DUP4 ADD MLOAD AND SWAP2 DUP7 ADD SWAP2 SWAP1 SWAP2 MSTORE PUSH1 0xE0 SWAP1 SWAP5 ADD SWAP4 SWAP1 SWAP3 ADD SWAP2 PUSH1 0x1 ADD PUSH2 0x19FE JUMP JUMPDEST PUSH1 0xE0 DUP2 ADD SWAP1 DUP2 LT PUSH1 0x1 PUSH1 0x1 PUSH1 0x40 SHL SUB DUP3 GT OR PUSH2 0x1A90 JUMPI PUSH1 0x40 MSTORE JUMP JUMPDEST PUSH4 0x4E487B71 PUSH1 0xE0 SHL PUSH1 0x0 MSTORE PUSH1 0x41 PUSH1 0x4 MSTORE PUSH1 0x24 PUSH1 0x0 REVERT JUMPDEST SWAP1 PUSH1 0x1F DUP1 NOT SWAP2 ADD AND DUP2 ADD SWAP1 DUP2 LT PUSH1 0x1 PUSH1 0x1 PUSH1 0x40 SHL SUB DUP3 GT OR PUSH2 0x1A90 JUMPI PUSH1 0x40 MSTORE JUMP JUMPDEST PUSH1 0x1 PUSH1 0x1 PUSH1 0x40 SHL SUB DUP2 GT PUSH2 0x1A90 JUMPI PUSH1 0x1F ADD PUSH1 0x1F NOT AND PUSH1 0x20 ADD SWAP1 JUMP JUMPDEST SWAP3 SWAP2 SWAP3 PUSH2 0x1AEE DUP3 PUSH2 0x1AC7 JUMP JUMPDEST SWAP2 PUSH2 0x1AFC PUSH1 0x40 MLOAD SWAP4 DUP5 PUSH2 0x1AA6 JUMP JUMPDEST DUP3 SWAP5 DUP2 DUP5 MSTORE DUP2 DUP4 ADD GT PUSH2 0x19E2 JUMPI DUP3 DUP2 PUSH1 0x20 SWAP4 DUP5 PUSH1 0x0 SWAP7 ADD CALLDATACOPY ADD ADD MSTORE JUMP JUMPDEST SWAP1 PUSH1 0x80 PUSH1 0x3 NOT DUP4 ADD SLT PUSH2 0x19E2 JUMPI PUSH1 0x4 CALLDATALOAD PUSH1 0x1 PUSH1 0x1 PUSH1 0xA0 SHL SUB DUP2 AND DUP2 SUB PUSH2 0x19E2 JUMPI SWAP2 PUSH1 0x24 CALLDATALOAD PUSH1 0x1 PUSH1 0x1 PUSH1 0xA0 SHL SUB DUP2 AND DUP2 SUB PUSH2 0x19E2 JUMPI SWAP2 PUSH1 0x44 CALLDATALOAD SWAP2 PUSH1 0x64 CALLDATALOAD SWAP1 PUSH1 0x1 PUSH1 0x1 PUSH1 0x40 SHL SUB DUP3 GT PUSH2 0x19E2 JUMPI DUP1 PUSH1 0x23 DUP4 ADD SLT ISZERO PUSH2 0x19E2 JUMPI DUP2 PUSH1 0x24 PUSH2 0x1B81 SWAP4 PUSH1 0x4 ADD CALLDATALOAD SWAP2 ADD PUSH2 0x1AE2 JUMP JUMPDEST SWAP1 JUMP JUMPDEST PUSH1 0x60 SWAP1 PUSH1 0x3 NOT ADD SLT PUSH2 0x19E2 JUMPI PUSH1 0x4 CALLDATALOAD PUSH1 0x1 PUSH1 0x1 PUSH1 0xA0 SHL SUB DUP2 AND DUP2 SUB PUSH2 0x19E2 JUMPI SWAP1 PUSH1 0x24 CALLDATALOAD PUSH1 0x1 PUSH1 0x1 PUSH1 0xA0 SHL SUB DUP2 AND DUP2 SUB PUSH2 0x19E2 JUMPI SWAP1 PUSH1 0x44 CALLDATALOAD SWAP1 JUMP JUMPDEST PUSH1 0x60 SWAP1 PUSH1 0x3 NOT ADD SLT PUSH2 0x19E2 JUMPI PUSH1 0x4 CALLDATALOAD PUSH1 0x1 PUSH1 0x1 PUSH1 0xA0 SHL SUB DUP2 AND DUP2 SUB PUSH2 0x19E2 JUMPI SWAP1 PUSH1 0x24 CALLDATALOAD SWAP1 PUSH1 0x44 CALLDATALOAD SWAP1 JUMP JUMPDEST SWAP1 DUP1 PUSH1 0x1F DUP4 ADD SLT ISZERO PUSH2 0x19E2 JUMPI DUP2 PUSH1 0x20 PUSH2 0x1B81 SWAP4 CALLDATALOAD SWAP2 ADD PUSH2 0x1AE2 JUMP JUMPDEST SWAP1 PUSH1 0x1 DUP3 DUP2 SHR SWAP3 AND DUP1 ISZERO PUSH2 0x1C33 JUMPI JUMPDEST PUSH1 0x20 DUP4 LT EQ PUSH2 0x1C1D JUMPI JUMP JUMPDEST PUSH4 0x4E487B71 PUSH1 0xE0 SHL PUSH1 0x0 MSTORE PUSH1 0x22 PUSH1 0x4 MSTORE PUSH1 0x24 PUSH1 0x0 REVERT JUMPDEST SWAP2 PUSH1 0x7F AND SWAP2 PUSH2 0x1C12 JUMP JUMPDEST SWAP2 SWAP1 DUP3 SUB SWAP2 DUP3 GT PUSH2 0x1C4A JUMPI JUMP JUMPDEST PUSH4 0x4E487B71 PUSH1 0xE0 SHL PUSH1 0x0 MSTORE PUSH1 0x11 PUSH1 0x4 MSTORE PUSH1 0x24 PUSH1 0x0 REVERT JUMPDEST PUSH1 0x1 PUSH1 0x1 PUSH1 0x40 SHL SUB DUP2 GT PUSH2 0x1A90 JUMPI PUSH1 0x5 SHL PUSH1 0x20 ADD SWAP1 JUMP JUMPDEST SWAP1 PUSH2 0x1C81 DUP3 PUSH2 0x1C60 JUMP JUMPDEST PUSH2 0x1C8E PUSH1 0x40 MLOAD SWAP2 DUP3 PUSH2 0x1AA6 JUMP JUMPDEST DUP3 DUP2 MSTORE DUP1 SWAP3 PUSH2 0x1C9F PUSH1 0x1F NOT SWAP2 PUSH2 0x1C60 JUMP JUMPDEST ADD SWAP1 PUSH1 0x0 JUMPDEST DUP3 DUP2 LT PUSH2 0x1CB0 JUMPI POP POP POP JUMP JUMPDEST PUSH1 0x20 SWAP1 PUSH1 0x40 MLOAD PUSH2 0x1CBF DUP2 PUSH2 0x1A75 JUMP JUMPDEST PUSH1 0x0 DUP2 MSTORE PUSH1 0x0 DUP4 DUP3 ADD MSTORE PUSH1 0x0 PUSH1 0x40 DUP3 ADD MSTORE PUSH1 0x0 PUSH1 0x60 DUP3 ADD MSTORE PUSH1 0x0 PUSH1 0x80 DUP3 ADD MSTORE PUSH1 0x0 PUSH1 0xA0 DUP3 ADD MSTORE PUSH1 0x0 PUSH1 0xC0 DUP3 ADD MSTORE DUP3 DUP3 DUP6 ADD ADD MSTORE ADD PUSH2 0x1CA4 JUMP JUMPDEST DUP1 MLOAD DUP3 LT ISZERO PUSH2 0x1D0C JUMPI PUSH1 0x20 SWAP2 PUSH1 0x5 SHL ADD ADD SWAP1 JUMP JUMPDEST PUSH4 0x4E487B71 PUSH1 0xE0 SHL PUSH1 0x0 MSTORE PUSH1 0x32 PUSH1 0x4 MSTORE PUSH1 0x24 PUSH1 0x0 REVERT JUMPDEST PUSH1 0x1 PUSH1 0x1 PUSH1 0xA0 SHL SUB SWAP1 SWAP2 AND SWAP2 SWAP1 DUP3 ISZERO PUSH2 0x1EB3 JUMPI PUSH1 0x0 DUP3 DUP2 MSTORE PUSH1 0x2 PUSH1 0x20 MSTORE PUSH1 0x40 DUP2 KECCAK256 SLOAD PUSH1 0x1 PUSH1 0x1 PUSH1 0xA0 SHL SUB AND SWAP4 DUP4 SWAP2 DUP6 SWAP1 CALLER ISZERO ISZERO DUP1 PUSH2 0x1E1B JUMPI JUMPDEST POP PUSH32 0xDDF252AD1BE2C89B69C2B068FC378DAA952BA7F163C4A11628F55A4DF523B3EF SWAP1 DUP3 PUSH2 0x1DE6 JUMPI JUMPDEST DUP4 DUP2 MSTORE PUSH1 0x3 PUSH1 0x20 MSTORE PUSH1 0x40 DUP2 KECCAK256 PUSH1 0x1 DUP2 SLOAD ADD SWAP1 SSTORE DUP5 DUP2 MSTORE PUSH1 0x2 PUSH1 0x20 MSTORE PUSH1 0x40 DUP2 KECCAK256 DUP5 PUSH1 0x1 PUSH1 0x1 PUSH1 0x60 SHL SUB PUSH1 0xA0 SHL DUP3 SLOAD AND OR SWAP1 SSTORE DUP1 LOG4 PUSH1 0x1 PUSH1 0x1 PUSH1 0xA0 SHL SUB AND DUP1 DUP4 SUB PUSH2 0x1DCC JUMPI POP POP POP JUMP JUMPDEST PUSH4 0x64283D7B PUSH1 0xE0 SHL PUSH1 0x0 MSTORE PUSH1 0x4 MSTORE PUSH1 0x24 MSTORE PUSH1 0x44 MSTORE PUSH1 0x64 PUSH1 0x0 REVERT JUMPDEST PUSH1 0x0 DUP6 DUP2 MSTORE PUSH1 0x4 PUSH1 0x20 MSTORE PUSH1 0x40 SWAP1 KECCAK256 DUP1 SLOAD PUSH1 0x1 PUSH1 0x1 PUSH1 0xA0 SHL SUB NOT AND SWAP1 SSTORE DUP3 DUP2 MSTORE PUSH1 0x3 PUSH1 0x20 MSTORE PUSH1 0x40 DUP2 KECCAK256 DUP1 SLOAD PUSH1 0x0 NOT ADD SWAP1 SSTORE PUSH2 0x1D84 JUMP JUMPDEST SWAP2 POP SWAP2 SWAP3 POP DUP1 PUSH2 0x1E64 JUMPI JUMPDEST ISZERO PUSH2 0x1E35 JUMPI SWAP1 DUP5 DUP5 SWAP3 CODESIZE PUSH2 0x1D5B JUMP JUMPDEST DUP4 SWAP1 DUP6 PUSH2 0x1E4E JUMPI PUSH1 0x24 SWAP2 PUSH4 0x7E273289 PUSH1 0xE0 SHL DUP3 MSTORE PUSH1 0x4 MSTORE REVERT JUMPDEST PUSH1 0x44 SWAP2 PUSH4 0x177E802F PUSH1 0xE0 SHL DUP3 MSTORE CALLER PUSH1 0x4 MSTORE PUSH1 0x24 MSTORE REVERT JUMPDEST POP CALLER DUP6 EQ DUP1 ISZERO PUSH2 0x1E92 JUMPI JUMPDEST DUP1 PUSH2 0x1E26 JUMPI POP DUP4 DUP2 MSTORE PUSH1 0x4 PUSH1 0x20 MSTORE PUSH1 0x40 DUP2 KECCAK256 SLOAD PUSH1 0x1 PUSH1 0x1 PUSH1 0xA0 SHL SUB AND CALLER EQ PUSH2 0x1E26 JUMP JUMPDEST POP DUP5 DUP2 MSTORE PUSH1 0x5 PUSH1 0x20 SWAP1 DUP2 MSTORE PUSH1 0x40 DUP1 DUP4 KECCAK256 CALLER DUP5 MSTORE SWAP1 SWAP2 MSTORE DUP2 KECCAK256 SLOAD PUSH1 0xFF AND PUSH2 0x1E6F JUMP JUMPDEST PUSH4 0x32505749 PUSH1 0xE1 SHL PUSH1 0x0 MSTORE PUSH1 0x0 PUSH1 0x4 MSTORE PUSH1 0x24 PUSH1 0x0 REVERT JUMPDEST ISZERO PUSH2 0x1ED0 JUMPI JUMP JUMPDEST PUSH1 0x40 MLOAD PUSH3 0x461BCD PUSH1 0xE5 SHL DUP2 MSTORE PUSH1 0x20 PUSH1 0x4 DUP3 ADD MSTORE PUSH1 0x24 DUP1 DUP3 ADD MSTORE PUSH32 0x4F6E6C792063726561746F72732063616E2063616C6C20746869732066756E63 PUSH1 0x44 DUP3 ADD MSTORE PUSH4 0x3A34B7B7 PUSH1 0xE1 SHL PUSH1 0x64 DUP3 ADD MSTORE PUSH1 0x84 SWAP1 REVERT JUMPDEST PUSH1 0x0 NOT DUP2 EQ PUSH2 0x1C4A JUMPI PUSH1 0x1 ADD SWAP1 JUMP JUMPDEST SWAP3 SWAP2 PUSH2 0x1F3D DUP2 DUP4 DUP7 PUSH2 0x1D22 JUMP JUMPDEST DUP2 EXTCODESIZE PUSH2 0x1F4A JUMPI JUMPDEST POP POP POP POP JUMP JUMPDEST PUSH1 0x40 MLOAD PUSH4 0xA85BD01 PUSH1 0xE1 SHL DUP2 MSTORE CALLER PUSH1 0x4 DUP3 ADD MSTORE PUSH1 0x1 PUSH1 0x1 PUSH1 0xA0 SHL SUB SWAP5 DUP6 AND PUSH1 0x24 DUP3 ADD MSTORE PUSH1 0x44 DUP2 ADD SWAP2 SWAP1 SWAP2 MSTORE PUSH1 0x80 PUSH1 0x64 DUP3 ADD MSTORE SWAP3 AND SWAP2 SWAP1 PUSH1 0x20 SWAP1 DUP3 SWAP1 DUP2 SWAP1 PUSH2 0x1F95 SWAP1 PUSH1 0x84 DUP4 ADD SWAP1 PUSH2 0x198D JUMP JUMPDEST SUB DUP2 PUSH1 0x0 DUP7 GAS CALL DUP1 SWAP2 PUSH1 0x0 SWAP2 PUSH2 0x2034 JUMPI JUMPDEST POP SWAP1 PUSH2 0x1FFF JUMPI POP RETURNDATASIZE ISZERO PUSH2 0x1FF8 JUMPI RETURNDATASIZE PUSH2 0x1FBD DUP2 PUSH2 0x1AC7 JUMP JUMPDEST SWAP1 PUSH2 0x1FCB PUSH1 0x40 MLOAD SWAP3 DUP4 PUSH2 0x1AA6 JUMP JUMPDEST DUP2 MSTORE RETURNDATASIZE PUSH1 0x0 PUSH1 0x20 DUP4 ADD RETURNDATACOPY JUMPDEST DUP1 MLOAD SWAP1 DUP2 PUSH2 0x1FF3 JUMPI DUP3 PUSH4 0x32505749 PUSH1 0xE1 SHL PUSH1 0x0 MSTORE PUSH1 0x4 MSTORE PUSH1 0x24 PUSH1 0x0 REVERT JUMPDEST PUSH1 0x20 ADD REVERT JUMPDEST PUSH1 0x60 PUSH2 0x1FD6 JUMP JUMPDEST PUSH1 0x1 PUSH1 0x1 PUSH1 0xE0 SHL SUB NOT AND PUSH4 0x757A42FF PUSH1 0xE1 SHL ADD PUSH2 0x2020 JUMPI POP CODESIZE DUP1 DUP1 DUP1 PUSH2 0x1F44 JUMP JUMPDEST PUSH4 0x32505749 PUSH1 0xE1 SHL PUSH1 0x0 MSTORE PUSH1 0x4 MSTORE PUSH1 0x24 PUSH1 0x0 REVERT JUMPDEST PUSH1 0x20 DUP2 RETURNDATASIZE PUSH1 0x20 GT PUSH2 0x206F JUMPI JUMPDEST DUP2 PUSH2 0x204D PUSH1 0x20 SWAP4 DUP4 PUSH2 0x1AA6 JUMP JUMPDEST DUP2 ADD SUB SLT PUSH2 0x1B0 JUMPI MLOAD SWAP1 PUSH1 0x1 PUSH1 0x1 PUSH1 0xE0 SHL SUB NOT DUP3 AND DUP3 SUB PUSH2 0x1B2 JUMPI POP CODESIZE PUSH2 0x1FA6 JUMP JUMPDEST RETURNDATASIZE SWAP2 POP PUSH2 0x2040 JUMP JUMPDEST PUSH2 0x2080 DUP2 PUSH2 0x2143 JUMP JUMPDEST POP PUSH1 0x0 MSTORE PUSH1 0x6 PUSH1 0x20 MSTORE PUSH1 0x40 PUSH1 0x0 KECCAK256 PUSH1 0x40 MLOAD SWAP1 DUP2 PUSH1 0x0 DUP3 SLOAD SWAP3 PUSH2 0x20A1 DUP5 PUSH2 0x1C03 JUMP JUMPDEST DUP1 DUP5 MSTORE SWAP4 PUSH1 0x1 DUP2 AND SWAP1 DUP2 ISZERO PUSH2 0x2121 JUMPI POP PUSH1 0x1 EQ PUSH2 0x20DA JUMPI JUMPDEST POP PUSH2 0x20C6 SWAP3 POP SUB DUP3 PUSH2 0x1AA6 JUMP JUMPDEST PUSH1 0x0 PUSH1 0x40 MLOAD PUSH2 0x20D6 PUSH1 0x20 DUP3 PUSH2 0x1AA6 JUMP JUMPDEST MSTORE SWAP1 JUMP JUMPDEST SWAP1 POP PUSH1 0x0 SWAP3 SWAP2 SWAP3 MSTORE PUSH1 0x20 PUSH1 0x0 KECCAK256 SWAP1 PUSH1 0x0 SWAP2 JUMPDEST DUP2 DUP4 LT PUSH2 0x2105 JUMPI POP POP SWAP1 PUSH1 0x20 PUSH2 0x20C6 SWAP3 DUP3 ADD ADD CODESIZE PUSH2 0x20B9 JUMP JUMPDEST PUSH1 0x20 SWAP2 SWAP4 POP DUP1 PUSH1 0x1 SWAP2 SLOAD DUP4 DUP6 DUP9 ADD ADD MSTORE ADD SWAP2 ADD SWAP1 SWAP2 DUP4 SWAP3 PUSH2 0x20EC JUMP JUMPDEST SWAP1 POP PUSH1 0x20 SWAP3 POP PUSH2 0x20C6 SWAP5 SWAP2 POP PUSH1 0xFF NOT AND DUP3 DUP5 ADD MSTORE ISZERO ISZERO PUSH1 0x5 SHL DUP3 ADD ADD CODESIZE PUSH2 0x20B9 JUMP JUMPDEST PUSH1 0x0 DUP2 DUP2 MSTORE PUSH1 0x2 PUSH1 0x20 MSTORE PUSH1 0x40 SWAP1 KECCAK256 SLOAD PUSH1 0x1 PUSH1 0x1 PUSH1 0xA0 SHL SUB AND SWAP1 DUP2 ISZERO PUSH2 0x2166 JUMPI POP SWAP1 JUMP JUMPDEST PUSH4 0x7E273289 PUSH1 0xE0 SHL PUSH1 0x0 MSTORE PUSH1 0x4 MSTORE PUSH1 0x24 PUSH1 0x0 REVERT JUMPDEST SWAP1 SWAP3 DUP3 ISZERO PUSH2 0x995 JUMPI PUSH32 0x181A47B5695555F517B1A68C10FCF517A29223F2036C9E3871A63F8FFA6C5831 SWAP2 PUSH1 0xA0 SWAP2 PUSH1 0x9 SLOAD SWAP5 DUP6 SWAP2 PUSH2 0x21B6 DUP4 PUSH2 0x1F21 JUMP JUMPDEST PUSH1 0x9 SSTORE PUSH1 0x1 DUP1 DUP7 SHL SUB AND SWAP3 PUSH1 0x40 MLOAD SWAP1 PUSH2 0x21CE DUP3 PUSH2 0x1A75 JUMP JUMPDEST DUP4 DUP3 MSTORE PUSH2 0x228A PUSH1 0x5 PUSH1 0x20 DUP5 ADD SWAP4 DUP12 DUP6 MSTORE PUSH1 0x40 DUP2 ADD DUP9 DUP2 MSTORE PUSH1 0x60 DUP3 ADD ADDRESS DUP2 MSTORE PUSH1 0x80 DUP4 ADD SWAP2 DUP9 DUP4 MSTORE DUP12 DUP5 ADD SWAP8 PUSH1 0x0 DUP10 MSTORE PUSH1 0xC0 DUP6 ADD SWAP8 PUSH1 0x1 DUP1 DUP16 SHL SUB AND SWAP11 DUP12 DUP10 MSTORE PUSH1 0x0 MSTORE PUSH1 0xC PUSH1 0x20 MSTORE PUSH1 0x40 PUSH1 0x0 KECCAK256 SWAP5 MLOAD DUP6 SSTORE MLOAD PUSH1 0x1 DUP6 ADD SSTORE PUSH1 0x1 DUP1 DUP14 SHL SUB SWAP1 MLOAD AND PUSH1 0x2 DUP5 ADD SWAP1 PUSH1 0x1 DUP1 DUP15 SHL SUB AND PUSH1 0x1 PUSH1 0x1 PUSH1 0x60 SHL SUB DUP14 SHL DUP3 SLOAD AND OR SWAP1 SSTORE PUSH1 0x1 DUP1 DUP13 SHL SUB SWAP1 MLOAD AND PUSH1 0x3 DUP4 ADD SWAP1 PUSH1 0x1 DUP1 DUP14 SHL SUB AND PUSH1 0x1 PUSH1 0x1 PUSH1 0x60 SHL SUB DUP13 SHL DUP3 SLOAD AND OR SWAP1 SSTORE MLOAD PUSH1 0x4 DUP3 ADD SSTORE ADD SWAP3 MLOAD ISZERO ISZERO DUP4 SWAP1 PUSH1 0xFF DUP1 NOT DUP4 SLOAD AND SWAP2 ISZERO ISZERO AND OR SWAP1 SSTORE JUMP JUMPDEST MLOAD DUP2 SLOAD PUSH2 0x100 PUSH1 0x1 PUSH1 0xA8 SHL SUB NOT AND PUSH1 0x8 SWAP2 SWAP1 SWAP2 SHL PUSH2 0x100 PUSH1 0x1 PUSH1 0xA8 SHL SUB AND OR SWAP1 SSTORE PUSH1 0x40 DUP1 MLOAD SWAP4 DUP5 MSTORE ADDRESS PUSH1 0x20 DUP6 ADD MSTORE DUP4 ADD MSTORE PUSH1 0x0 PUSH1 0x60 DUP4 ADD MSTORE PUSH1 0x80 DUP3 ADD MSTORE LOG3 JUMP INVALID PUSH1 0x80 PUSH1 0x40 MSTORE CALLVALUE PUSH2 0x4EB JUMPI PUSH2 0x170F DUP1 CODESIZE SUB DUP1 PUSH2 0x19 DUP2 PUSH2 0x4F0 JUMP JUMPDEST SWAP3 DUP4 CODECOPY DUP2 ADD PUSH1 0x60 DUP3 DUP3 SUB SLT PUSH2 0x4EB JUMPI DUP2 MLOAD PUSH1 0x1 PUSH1 0x1 PUSH1 0x40 SHL SUB DUP2 GT PUSH2 0x4EB JUMPI DUP2 PUSH2 0x44 SWAP2 DUP5 ADD PUSH2 0x515 JUMP JUMPDEST PUSH1 0x20 DUP4 ADD MLOAD SWAP1 SWAP3 SWAP1 PUSH1 0x1 PUSH1 0x1 PUSH1 0x40 SHL SUB DUP2 GT PUSH2 0x4EB JUMPI DUP3 PUSH2 0x66 SWAP2 DUP4 ADD PUSH2 0x515 JUMP JUMPDEST PUSH1 0x40 DUP3 ADD MLOAD SWAP1 SWAP3 SWAP1 PUSH1 0x1 PUSH1 0x1 PUSH1 0x40 SHL SUB DUP2 GT PUSH2 0x4EB JUMPI PUSH2 0x86 SWAP3 ADD PUSH2 0x515 JUMP JUMPDEST DUP3 MLOAD PUSH1 0x1 PUSH1 0x1 PUSH1 0x40 SHL SUB DUP2 GT PUSH2 0x301 JUMPI PUSH1 0x0 SLOAD PUSH1 0x1 DUP2 DUP2 SHR SWAP2 AND DUP1 ISZERO PUSH2 0x4E1 JUMPI JUMPDEST PUSH1 0x20 DUP3 LT EQ PUSH2 0x2E1 JUMPI PUSH1 0x1F DUP2 GT PUSH2 0x47D JUMPI JUMPDEST POP PUSH1 0x20 PUSH1 0x1F DUP3 GT PUSH1 0x1 EQ PUSH2 0x417 JUMPI DUP2 SWAP3 SWAP4 SWAP5 PUSH1 0x0 SWAP3 PUSH2 0x40C JUMPI JUMPDEST POP POP DUP2 PUSH1 0x1 SHL SWAP2 PUSH1 0x0 NOT SWAP1 PUSH1 0x3 SHL SHR NOT AND OR PUSH1 0x0 SSTORE JUMPDEST DUP2 MLOAD PUSH1 0x1 PUSH1 0x1 PUSH1 0x40 SHL SUB DUP2 GT PUSH2 0x301 JUMPI PUSH1 0x1 SLOAD PUSH1 0x1 DUP2 DUP2 SHR SWAP2 AND DUP1 ISZERO PUSH2 0x402 JUMPI JUMPDEST PUSH1 0x20 DUP3 LT EQ PUSH2 0x2E1 JUMPI PUSH1 0x1F DUP2 GT PUSH2 0x39D JUMPI JUMPDEST POP PUSH1 0x20 SWAP3 PUSH1 0x1F DUP3 GT PUSH1 0x1 EQ PUSH2 0x338 JUMPI SWAP3 DUP2 SWAP3 SWAP4 PUSH1 0x0 SWAP3 PUSH2 0x32D JUMPI JUMPDEST POP POP DUP2 PUSH1 0x1 SHL SWAP2 PUSH1 0x0 NOT SWAP1 PUSH1 0x3 SHL SHR NOT AND OR PUSH1 0x1 SSTORE JUMPDEST CALLER ISZERO PUSH2 0x317 JUMPI PUSH1 0x7 DUP1 SLOAD CALLER PUSH1 0x1 PUSH1 0x1 PUSH1 0xA0 SHL SUB NOT DUP3 AND DUP2 OR SWAP1 SWAP3 SSTORE PUSH1 0x1 PUSH1 0x1 PUSH1 0xA0 SHL SUB AND PUSH32 0x8BE0079C531659141344CD1FD0A4F28419497F9722A3DAAFE3B4186F6B6457E0 PUSH1 0x0 DUP1 LOG3 PUSH1 0x0 PUSH1 0x8 SSTORE DUP1 MLOAD PUSH1 0x1 PUSH1 0x1 PUSH1 0x40 SHL SUB DUP2 GT PUSH2 0x301 JUMPI PUSH1 0x9 SLOAD PUSH1 0x1 DUP2 DUP2 SHR SWAP2 AND DUP1 ISZERO PUSH2 0x2F7 JUMPI JUMPDEST PUSH1 0x20 DUP3 LT EQ PUSH2 0x2E1 JUMPI PUSH1 0x1F DUP2 GT PUSH2 0x27C JUMPI JUMPDEST POP PUSH1 0x20 SWAP2 PUSH1 0x1F DUP3 GT PUSH1 0x1 EQ PUSH2 0x218 JUMPI SWAP2 DUP2 SWAP3 PUSH1 0x0 SWAP3 PUSH2 0x20D JUMPI JUMPDEST POP POP DUP2 PUSH1 0x1 SHL SWAP2 PUSH1 0x0 NOT SWAP1 PUSH1 0x3 SHL SHR NOT AND OR PUSH1 0x9 SSTORE JUMPDEST PUSH1 0x40 MLOAD PUSH2 0x118E SWAP1 DUP2 PUSH2 0x581 DUP3 CODECOPY RETURN JUMPDEST ADD MLOAD SWAP1 POP CODESIZE DUP1 PUSH2 0x1E8 JUMP JUMPDEST PUSH1 0x1F NOT DUP3 AND SWAP3 PUSH1 0x9 PUSH1 0x0 MSTORE DUP1 PUSH1 0x0 KECCAK256 SWAP2 PUSH1 0x0 JUMPDEST DUP6 DUP2 LT PUSH2 0x264 JUMPI POP DUP4 PUSH1 0x1 SWAP6 LT PUSH2 0x24B JUMPI JUMPDEST POP POP POP DUP2 SHL ADD PUSH1 0x9 SSTORE PUSH2 0x1FE JUMP JUMPDEST ADD MLOAD PUSH1 0x0 NOT PUSH1 0xF8 DUP5 PUSH1 0x3 SHL AND SHR NOT AND SWAP1 SSTORE CODESIZE DUP1 DUP1 PUSH2 0x23D JUMP JUMPDEST SWAP2 SWAP3 PUSH1 0x20 PUSH1 0x1 DUP2 SWAP3 DUP7 DUP6 ADD MLOAD DUP2 SSTORE ADD SWAP5 ADD SWAP3 ADD PUSH2 0x22B JUMP JUMPDEST PUSH1 0x9 PUSH1 0x0 MSTORE PUSH32 0x6E1540171B6C0C960B71A7020D9F60077F6AF931A8BBF590DA0223DACF75C7AF PUSH1 0x1F DUP4 ADD PUSH1 0x5 SHR DUP2 ADD SWAP2 PUSH1 0x20 DUP5 LT PUSH2 0x2D7 JUMPI JUMPDEST PUSH1 0x1F ADD PUSH1 0x5 SHR ADD SWAP1 JUMPDEST DUP2 DUP2 LT PUSH2 0x2CB JUMPI POP PUSH2 0x1CE JUMP JUMPDEST PUSH1 0x0 DUP2 SSTORE PUSH1 0x1 ADD PUSH2 0x2BE JUMP JUMPDEST SWAP1 SWAP2 POP DUP2 SWAP1 PUSH2 0x2B5 JUMP JUMPDEST PUSH4 0x4E487B71 PUSH1 0xE0 SHL PUSH1 0x0 MSTORE PUSH1 0x22 PUSH1 0x4 MSTORE PUSH1 0x24 PUSH1 0x0 REVERT JUMPDEST SWAP1 PUSH1 0x7F AND SWAP1 PUSH2 0x1BC JUMP JUMPDEST PUSH4 0x4E487B71 PUSH1 0xE0 SHL PUSH1 0x0 MSTORE PUSH1 0x41 PUSH1 0x4 MSTORE PUSH1 0x24 PUSH1 0x0 REVERT JUMPDEST PUSH4 0x1E4FBDF7 PUSH1 0xE0 SHL PUSH1 0x0 MSTORE PUSH1 0x0 PUSH1 0x4 MSTORE PUSH1 0x24 PUSH1 0x0 REVERT JUMPDEST ADD MLOAD SWAP1 POP CODESIZE DUP1 PUSH2 0x137 JUMP JUMPDEST PUSH1 0x1F NOT DUP3 AND SWAP4 PUSH1 0x1 PUSH1 0x0 MSTORE DUP1 PUSH1 0x0 KECCAK256 SWAP2 PUSH1 0x0 JUMPDEST DUP7 DUP2 LT PUSH2 0x385 JUMPI POP DUP4 PUSH1 0x1 SWAP6 SWAP7 LT PUSH2 0x36C JUMPI JUMPDEST POP POP POP DUP2 SHL ADD PUSH1 0x1 SSTORE PUSH2 0x14D JUMP JUMPDEST ADD MLOAD PUSH1 0x0 NOT PUSH1 0xF8 DUP5 PUSH1 0x3 SHL AND SHR NOT AND SWAP1 SSTORE CODESIZE DUP1 DUP1 PUSH2 0x35E JUMP JUMPDEST SWAP2 SWAP3 PUSH1 0x20 PUSH1 0x1 DUP2 SWAP3 DUP7 DUP6 ADD MLOAD DUP2 SSTORE ADD SWAP5 ADD SWAP3 ADD PUSH2 0x34B JUMP JUMPDEST PUSH1 0x1 PUSH1 0x0 MSTORE PUSH32 0xB10E2D527612073B26EECDFD717E6A320CF44B4AFAC2B0732D9FCBE2B7FA0CF6 PUSH1 0x1F DUP4 ADD PUSH1 0x5 SHR DUP2 ADD SWAP2 PUSH1 0x20 DUP5 LT PUSH2 0x3F8 JUMPI JUMPDEST PUSH1 0x1F ADD PUSH1 0x5 SHR ADD SWAP1 JUMPDEST DUP2 DUP2 LT PUSH2 0x3EC JUMPI POP PUSH2 0x11C JUMP JUMPDEST PUSH1 0x0 DUP2 SSTORE PUSH1 0x1 ADD PUSH2 0x3DF JUMP JUMPDEST SWAP1 SWAP2 POP DUP2 SWAP1 PUSH2 0x3D6 JUMP JUMPDEST SWAP1 PUSH1 0x7F AND SWAP1 PUSH2 0x10A JUMP JUMPDEST ADD MLOAD SWAP1 POP CODESIZE DUP1 PUSH2 0xD3 JUMP JUMPDEST PUSH1 0x1F NOT DUP3 AND SWAP1 PUSH1 0x0 DUP1 MSTORE DUP1 PUSH1 0x0 KECCAK256 SWAP2 PUSH1 0x0 JUMPDEST DUP2 DUP2 LT PUSH2 0x465 JUMPI POP SWAP6 DUP4 PUSH1 0x1 SWAP6 SWAP7 SWAP8 LT PUSH2 0x44C JUMPI JUMPDEST POP POP POP DUP2 SHL ADD PUSH1 0x0 SSTORE PUSH2 0xE9 JUMP JUMPDEST ADD MLOAD PUSH1 0x0 NOT PUSH1 0xF8 DUP5 PUSH1 0x3 SHL AND SHR NOT AND SWAP1 SSTORE CODESIZE DUP1 DUP1 PUSH2 0x43E JUMP JUMPDEST SWAP2 SWAP3 PUSH1 0x20 PUSH1 0x1 DUP2 SWAP3 DUP7 DUP12 ADD MLOAD DUP2 SSTORE ADD SWAP5 ADD SWAP3 ADD PUSH2 0x429 JUMP JUMPDEST PUSH1 0x0 DUP1 MSTORE PUSH32 0x290DECD9548B62A8D60345A988386FC84BA6BC95484008F6362F93160EF3E563 PUSH1 0x1F DUP4 ADD PUSH1 0x5 SHR DUP2 ADD SWAP2 PUSH1 0x20 DUP5 LT PUSH2 0x4D7 JUMPI JUMPDEST PUSH1 0x1F ADD PUSH1 0x5 SHR ADD SWAP1 JUMPDEST DUP2 DUP2 LT PUSH2 0x4CB JUMPI POP PUSH2 0xB9 JUMP JUMPDEST PUSH1 0x0 DUP2 SSTORE PUSH1 0x1 ADD PUSH2 0x4BE JUMP JUMPDEST SWAP1 SWAP2 POP DUP2 SWAP1 PUSH2 0x4B5 JUMP JUMPDEST SWAP1 PUSH1 0x7F AND SWAP1 PUSH2 0xA7 JUMP JUMPDEST PUSH1 0x0 DUP1 REVERT JUMPDEST PUSH1 0x40 MLOAD SWAP2 SWAP1 PUSH1 0x1F ADD PUSH1 0x1F NOT AND DUP3 ADD PUSH1 0x1 PUSH1 0x1 PUSH1 0x40 SHL SUB DUP2 GT DUP4 DUP3 LT OR PUSH2 0x301 JUMPI PUSH1 0x40 MSTORE JUMP JUMPDEST DUP2 PUSH1 0x1F DUP3 ADD SLT ISZERO PUSH2 0x4EB JUMPI DUP1 MLOAD SWAP1 PUSH1 0x1 PUSH1 0x1 PUSH1 0x40 SHL SUB DUP3 GT PUSH2 0x301 JUMPI PUSH2 0x544 PUSH1 0x1F DUP4 ADD PUSH1 0x1F NOT AND PUSH1 0x20 ADD PUSH2 0x4F0 JUMP JUMPDEST SWAP3 DUP3 DUP5 MSTORE PUSH1 0x20 DUP4 DUP4 ADD ADD GT PUSH2 0x4EB JUMPI PUSH1 0x0 JUMPDEST DUP3 DUP2 LT PUSH2 0x56B JUMPI POP POP PUSH1 0x20 PUSH1 0x0 SWAP2 DUP4 ADD ADD MSTORE SWAP1 JUMP JUMPDEST DUP1 PUSH1 0x20 DUP1 SWAP3 DUP5 ADD ADD MLOAD DUP3 DUP3 DUP8 ADD ADD MSTORE ADD PUSH2 0x556 JUMP INVALID PUSH1 0x80 DUP1 PUSH1 0x40 MSTORE PUSH1 0x4 CALLDATASIZE LT ISZERO PUSH2 0x13 JUMPI PUSH1 0x0 DUP1 REVERT JUMPDEST PUSH1 0x0 CALLDATALOAD PUSH1 0xE0 SHR SWAP1 DUP2 PUSH4 0x1FFC9A7 EQ PUSH2 0xB13 JUMPI POP DUP1 PUSH4 0x6FDDE03 EQ PUSH2 0xA6E JUMPI DUP1 PUSH4 0x81812FC EQ PUSH2 0xA30 JUMPI DUP1 PUSH4 0x95EA7B3 EQ PUSH2 0x941 JUMPI DUP1 PUSH4 0x23B872DD EQ PUSH2 0x92A JUMPI DUP1 PUSH4 0x3C130D90 EQ PUSH2 0x90E JUMPI DUP1 PUSH4 0x42842E0E EQ PUSH2 0x8DE JUMPI DUP1 PUSH4 0x54BA0F27 EQ PUSH2 0x516 JUMPI DUP1 PUSH4 0x6352211E EQ PUSH2 0x4E6 JUMPI DUP1 PUSH4 0x70A08231 EQ PUSH2 0x490 JUMPI DUP1 PUSH4 0x715018A6 EQ PUSH2 0x433 JUMPI DUP1 PUSH4 0x8DA5CB5B EQ PUSH2 0x40A JUMPI DUP1 PUSH4 0x95D89B41 EQ PUSH2 0x33D JUMPI DUP1 PUSH4 0xA22CB465 EQ PUSH2 0x29C JUMPI DUP1 PUSH4 0xB88D4FDE EQ PUSH2 0x206 JUMPI DUP1 PUSH4 0xC87B56DD EQ PUSH2 0x1CF JUMPI DUP1 PUSH4 0xE985E9C5 EQ PUSH2 0x174 JUMPI PUSH4 0xF2FDE38B EQ PUSH2 0xE5 JUMPI PUSH1 0x0 DUP1 REVERT JUMPDEST CALLVALUE PUSH2 0x16F JUMPI PUSH1 0x20 CALLDATASIZE PUSH1 0x3 NOT ADD SLT PUSH2 0x16F JUMPI PUSH2 0xFE PUSH2 0xBD7 JUMP JUMPDEST PUSH2 0x106 PUSH2 0x1007 JUMP JUMPDEST PUSH1 0x1 PUSH1 0x1 PUSH1 0xA0 SHL SUB AND DUP1 ISZERO PUSH2 0x159 JUMPI PUSH1 0x7 DUP1 SLOAD PUSH1 0x1 PUSH1 0x1 PUSH1 0xA0 SHL SUB NOT DUP2 AND DUP4 OR SWAP1 SWAP2 SSTORE PUSH1 0x1 PUSH1 0x1 PUSH1 0xA0 SHL SUB AND PUSH32 0x8BE0079C531659141344CD1FD0A4F28419497F9722A3DAAFE3B4186F6B6457E0 PUSH1 0x0 DUP1 LOG3 STOP JUMPDEST PUSH4 0x1E4FBDF7 PUSH1 0xE0 SHL PUSH1 0x0 MSTORE PUSH1 0x0 PUSH1 0x4 MSTORE PUSH1 0x24 PUSH1 0x0 REVERT JUMPDEST PUSH1 0x0 DUP1 REVERT JUMPDEST CALLVALUE PUSH2 0x16F JUMPI PUSH1 0x40 CALLDATASIZE PUSH1 0x3 NOT ADD SLT PUSH2 0x16F JUMPI PUSH2 0x18D PUSH2 0xBD7 JUMP JUMPDEST PUSH2 0x195 PUSH2 0xBED JUMP JUMPDEST SWAP1 PUSH1 0x1 DUP1 PUSH1 0xA0 SHL SUB AND PUSH1 0x0 MSTORE PUSH1 0x5 PUSH1 0x20 MSTORE PUSH1 0x40 PUSH1 0x0 KECCAK256 SWAP1 PUSH1 0x1 DUP1 PUSH1 0xA0 SHL SUB AND PUSH1 0x0 MSTORE PUSH1 0x20 MSTORE PUSH1 0x20 PUSH1 0xFF PUSH1 0x40 PUSH1 0x0 KECCAK256 SLOAD AND PUSH1 0x40 MLOAD SWAP1 ISZERO ISZERO DUP2 MSTORE RETURN JUMPDEST CALLVALUE PUSH2 0x16F JUMPI PUSH1 0x20 CALLDATASIZE PUSH1 0x3 NOT ADD SLT PUSH2 0x16F JUMPI PUSH2 0x202 PUSH2 0x1EE PUSH1 0x4 CALLDATALOAD PUSH2 0xF04 JUMP JUMPDEST PUSH1 0x40 MLOAD SWAP2 DUP3 SWAP2 PUSH1 0x20 DUP4 MSTORE PUSH1 0x20 DUP4 ADD SWAP1 PUSH2 0xB98 JUMP JUMPDEST SUB SWAP1 RETURN JUMPDEST CALLVALUE PUSH2 0x16F JUMPI PUSH1 0x80 CALLDATASIZE PUSH1 0x3 NOT ADD SLT PUSH2 0x16F JUMPI PUSH2 0x21F PUSH2 0xBD7 JUMP JUMPDEST PUSH2 0x227 PUSH2 0xBED JUMP JUMPDEST SWAP1 PUSH1 0x44 CALLDATALOAD PUSH1 0x64 CALLDATALOAD SWAP3 PUSH8 0xFFFFFFFFFFFFFFFF DUP5 GT PUSH2 0x16F JUMPI CALLDATASIZE PUSH1 0x23 DUP6 ADD SLT ISZERO PUSH2 0x16F JUMPI DUP4 PUSH1 0x4 ADD CALLDATALOAD SWAP3 PUSH2 0x258 DUP5 PUSH2 0xD52 JUMP JUMPDEST SWAP4 PUSH2 0x266 PUSH1 0x40 MLOAD SWAP6 DUP7 PUSH2 0xC77 JUMP JUMPDEST DUP1 DUP6 MSTORE CALLDATASIZE PUSH1 0x24 DUP3 DUP9 ADD ADD GT PUSH2 0x16F JUMPI PUSH1 0x20 DUP2 PUSH1 0x0 SWAP3 PUSH1 0x24 PUSH2 0x29A SWAP10 ADD DUP4 DUP10 ADD CALLDATACOPY DUP7 ADD ADD MSTORE PUSH2 0x295 DUP4 DUP4 DUP4 PUSH2 0xD6E JUMP JUMPDEST PUSH2 0x1030 JUMP JUMPDEST STOP JUMPDEST CALLVALUE PUSH2 0x16F JUMPI PUSH1 0x40 CALLDATASIZE PUSH1 0x3 NOT ADD SLT PUSH2 0x16F JUMPI PUSH2 0x2B5 PUSH2 0xBD7 JUMP JUMPDEST PUSH1 0x24 CALLDATALOAD SWAP1 DUP2 ISZERO ISZERO DUP1 SWAP3 SUB PUSH2 0x16F JUMPI PUSH1 0x1 PUSH1 0x1 PUSH1 0xA0 SHL SUB AND SWAP1 DUP2 ISZERO PUSH2 0x328 JUMPI CALLER PUSH1 0x0 MSTORE PUSH1 0x5 PUSH1 0x20 MSTORE PUSH1 0x40 PUSH1 0x0 KECCAK256 DUP3 PUSH1 0x0 MSTORE PUSH1 0x20 MSTORE PUSH1 0x40 PUSH1 0x0 KECCAK256 PUSH1 0xFF NOT DUP2 SLOAD AND PUSH1 0xFF DUP4 AND OR SWAP1 SSTORE PUSH1 0x40 MLOAD SWAP1 DUP2 MSTORE PUSH32 0x17307EAB39AB6107E8899845AD3D59BD9653F200F220920489CA2B5937696C31 PUSH1 0x20 CALLER SWAP3 LOG3 STOP JUMPDEST POP PUSH4 0xB611743 PUSH1 0xE3 SHL PUSH1 0x0 MSTORE PUSH1 0x4 MSTORE PUSH1 0x24 PUSH1 0x0 REVERT JUMPDEST CALLVALUE PUSH2 0x16F JUMPI PUSH1 0x0 CALLDATASIZE PUSH1 0x3 NOT ADD SLT PUSH2 0x16F JUMPI PUSH1 0x40 MLOAD PUSH1 0x0 PUSH1 0x1 SLOAD PUSH2 0x35F DUP2 PUSH2 0xC3D JUMP JUMPDEST DUP1 DUP5 MSTORE SWAP1 PUSH1 0x1 DUP2 AND SWAP1 DUP2 ISZERO PUSH2 0x3E6 JUMPI POP PUSH1 0x1 EQ PUSH2 0x387 JUMPI JUMPDEST PUSH2 0x202 DUP4 PUSH2 0x1EE DUP2 DUP6 SUB DUP3 PUSH2 0xC77 JUMP JUMPDEST PUSH1 0x1 PUSH1 0x0 SWAP1 DUP2 MSTORE PUSH32 0xB10E2D527612073B26EECDFD717E6A320CF44B4AFAC2B0732D9FCBE2B7FA0CF6 SWAP4 SWAP3 POP SWAP1 JUMPDEST DUP1 DUP3 LT PUSH2 0x3CC JUMPI POP SWAP1 SWAP2 POP DUP2 ADD PUSH1 0x20 ADD PUSH2 0x1EE PUSH2 0x377 JUMP JUMPDEST SWAP2 SWAP3 PUSH1 0x1 DUP2 PUSH1 0x20 SWAP3 SLOAD DUP4 DUP6 DUP9 ADD ADD MSTORE ADD SWAP2 ADD SWAP1 SWAP3 SWAP2 PUSH2 0x3B4 JUMP JUMPDEST PUSH1 0xFF NOT AND PUSH1 0x20 DUP1 DUP7 ADD SWAP2 SWAP1 SWAP2 MSTORE SWAP2 ISZERO ISZERO PUSH1 0x5 SHL DUP5 ADD SWAP1 SWAP2 ADD SWAP2 POP PUSH2 0x1EE SWAP1 POP PUSH2 0x377 JUMP JUMPDEST CALLVALUE PUSH2 0x16F JUMPI PUSH1 0x0 CALLDATASIZE PUSH1 0x3 NOT ADD SLT PUSH2 0x16F JUMPI PUSH1 0x7 SLOAD PUSH1 0x40 MLOAD PUSH1 0x1 PUSH1 0x1 PUSH1 0xA0 SHL SUB SWAP1 SWAP2 AND DUP2 MSTORE PUSH1 0x20 SWAP1 RETURN JUMPDEST CALLVALUE PUSH2 0x16F JUMPI PUSH1 0x0 CALLDATASIZE PUSH1 0x3 NOT ADD SLT PUSH2 0x16F JUMPI PUSH2 0x44C PUSH2 0x1007 JUMP JUMPDEST PUSH1 0x7 DUP1 SLOAD PUSH1 0x1 PUSH1 0x1 PUSH1 0xA0 SHL SUB NOT DUP2 AND SWAP1 SWAP2 SSTORE PUSH1 0x0 SWAP1 PUSH1 0x1 PUSH1 0x1 PUSH1 0xA0 SHL SUB AND PUSH32 0x8BE0079C531659141344CD1FD0A4F28419497F9722A3DAAFE3B4186F6B6457E0 DUP3 DUP1 LOG3 STOP JUMPDEST CALLVALUE PUSH2 0x16F JUMPI PUSH1 0x20 CALLDATASIZE PUSH1 0x3 NOT ADD SLT PUSH2 0x16F JUMPI PUSH1 0x1 PUSH1 0x1 PUSH1 0xA0 SHL SUB PUSH2 0x4B1 PUSH2 0xBD7 JUMP JUMPDEST AND DUP1 ISZERO PUSH2 0x4D0 JUMPI PUSH1 0x0 MSTORE PUSH1 0x3 PUSH1 0x20 MSTORE PUSH1 0x20 PUSH1 0x40 PUSH1 0x0 KECCAK256 SLOAD PUSH1 0x40 MLOAD SWAP1 DUP2 MSTORE RETURN JUMPDEST PUSH4 0x22718AD9 PUSH1 0xE2 SHL PUSH1 0x0 MSTORE PUSH1 0x0 PUSH1 0x4 MSTORE PUSH1 0x24 PUSH1 0x0 REVERT JUMPDEST CALLVALUE PUSH2 0x16F JUMPI PUSH1 0x20 CALLDATASIZE PUSH1 0x3 NOT ADD SLT PUSH2 0x16F JUMPI PUSH1 0x20 PUSH2 0x504 PUSH1 0x4 CALLDATALOAD PUSH2 0xFD0 JUMP JUMPDEST PUSH1 0x40 MLOAD PUSH1 0x1 PUSH1 0x1 PUSH1 0xA0 SHL SUB SWAP1 SWAP2 AND DUP2 MSTORE RETURN JUMPDEST PUSH1 0x20 CALLDATASIZE PUSH1 0x3 NOT ADD SLT PUSH2 0x16F JUMPI PUSH2 0x52A PUSH2 0xBD7 JUMP JUMPDEST PUSH1 0x8 SLOAD PUSH1 0x0 NOT DUP2 EQ PUSH2 0x8C8 JUMPI PUSH1 0x1 ADD DUP1 PUSH1 0x8 SSTORE PUSH1 0x20 SWAP1 PUSH1 0x40 MLOAD PUSH2 0x54D DUP4 DUP3 PUSH2 0xC77 JUMP JUMPDEST PUSH1 0x0 DUP2 MSTORE PUSH1 0x1 PUSH1 0x1 PUSH1 0xA0 SHL SUB DUP5 AND SWAP4 DUP5 ISZERO PUSH2 0x8B2 JUMPI PUSH1 0x0 DUP4 DUP2 MSTORE PUSH1 0x2 DUP6 MSTORE PUSH1 0x1 DUP1 PUSH1 0xA0 SHL SUB PUSH1 0x40 DUP3 KECCAK256 SLOAD AND DUP5 DUP8 DUP3 PUSH32 0xDDF252AD1BE2C89B69C2B068FC378DAA952BA7F163C4A11628F55A4DF523B3EF DUP2 ISZERO ISZERO SWAP6 DUP7 PUSH2 0x87E JUMPI JUMPDEST DUP4 DUP2 MSTORE PUSH1 0x3 DUP12 MSTORE PUSH1 0x40 DUP1 DUP3 KECCAK256 DUP1 SLOAD PUSH1 0x1 ADD SWAP1 SSTORE DUP6 DUP3 MSTORE PUSH1 0x2 DUP13 MSTORE DUP2 KECCAK256 DUP1 SLOAD PUSH1 0x1 PUSH1 0x1 PUSH1 0xA0 SHL SUB NOT AND DUP6 OR SWAP1 SSTORE DUP1 LOG4 POP PUSH2 0x868 JUMPI EXTCODESIZE PUSH2 0x749 JUMPI JUMPDEST POP SWAP1 SWAP2 POP PUSH2 0x5EB PUSH2 0xC99 JUMP JUMPDEST SWAP1 DUP1 PUSH1 0x0 MSTORE PUSH1 0x6 DUP4 MSTORE PUSH1 0x40 PUSH1 0x0 KECCAK256 DUP3 MLOAD PUSH8 0xFFFFFFFFFFFFFFFF DUP2 GT PUSH2 0x733 JUMPI PUSH2 0x614 DUP3 SLOAD PUSH2 0xC3D JUMP JUMPDEST PUSH1 0x1F DUP2 GT PUSH2 0x6ED JUMPI JUMPDEST POP DUP5 SWAP4 PUSH1 0x1F DUP3 GT PUSH1 0x1 EQ PUSH2 0x689 JUMPI SWAP4 DUP2 SWAP3 SWAP4 SWAP5 PUSH1 0x0 SWAP3 PUSH2 0x67E JUMPI JUMPDEST POP POP DUP2 PUSH1 0x1 SHL SWAP2 PUSH1 0x0 NOT SWAP1 PUSH1 0x3 SHL SHR NOT AND OR SWAP1 SSTORE JUMPDEST PUSH32 0xF8E1A15ABA9398E019F0B49DF1A4FDE98EE17AE345CB5F6B5E2C27F5033E8CE7 DUP3 PUSH1 0x40 MLOAD DUP4 DUP2 MSTORE LOG1 PUSH1 0x40 MLOAD SWAP1 DUP2 MSTORE RETURN JUMPDEST ADD MLOAD SWAP1 POP DUP6 DUP1 PUSH2 0x638 JUMP JUMPDEST PUSH1 0x1F NOT DUP3 AND SWAP5 DUP4 PUSH1 0x0 MSTORE DUP7 PUSH1 0x0 KECCAK256 SWAP2 PUSH1 0x0 JUMPDEST DUP9 DUP9 DUP3 LT PUSH2 0x6D7 JUMPI POP POP DUP4 PUSH1 0x1 SWAP6 SWAP7 SWAP8 LT PUSH2 0x6BE JUMPI JUMPDEST POP POP POP DUP2 SHL ADD SWAP1 SSTORE PUSH2 0x64D JUMP JUMPDEST ADD MLOAD PUSH1 0x0 NOT PUSH1 0xF8 DUP5 PUSH1 0x3 SHL AND SHR NOT AND SWAP1 SSTORE DUP6 DUP1 DUP1 PUSH2 0x6B1 JUMP JUMPDEST PUSH1 0x1 DUP5 SWAP6 DUP3 SWAP4 SWAP6 DUP6 ADD MLOAD DUP2 SSTORE ADD SWAP5 ADD SWAP3 ADD PUSH2 0x69B JUMP JUMPDEST DUP3 PUSH1 0x0 MSTORE DUP6 PUSH1 0x0 KECCAK256 PUSH1 0x1F DUP4 ADD PUSH1 0x5 SHR DUP2 ADD SWAP2 DUP8 DUP5 LT PUSH2 0x729 JUMPI JUMPDEST PUSH1 0x1F ADD PUSH1 0x5 SHR ADD SWAP1 JUMPDEST DUP2 DUP2 LT PUSH2 0x71D JUMPI POP PUSH2 0x61D JUMP JUMPDEST PUSH1 0x0 DUP2 SSTORE PUSH1 0x1 ADD PUSH2 0x710 JUMP JUMPDEST SWAP1 SWAP2 POP DUP2 SWAP1 PUSH2 0x707 JUMP JUMPDEST PUSH4 0x4E487B71 PUSH1 0xE0 SHL PUSH1 0x0 MSTORE PUSH1 0x41 PUSH1 0x4 MSTORE PUSH1 0x24 PUSH1 0x0 REVERT JUMPDEST DUP3 PUSH2 0x783 SWAP2 PUSH1 0x40 MLOAD DUP1 SWAP4 DUP2 SWAP3 PUSH4 0xA85BD01 PUSH1 0xE1 SHL DUP4 MSTORE CALLER PUSH1 0x4 DUP5 ADD MSTORE PUSH1 0x0 PUSH1 0x24 DUP5 ADD MSTORE DUP7 PUSH1 0x44 DUP5 ADD MSTORE PUSH1 0x80 PUSH1 0x64 DUP5 ADD MSTORE PUSH1 0x84 DUP4 ADD SWAP1 PUSH2 0xB98 JUMP JUMPDEST SUB DUP2 PUSH1 0x0 DUP9 GAS CALL DUP1 SWAP2 PUSH1 0x0 SWAP2 PUSH2 0x823 JUMPI JUMPDEST POP SWAP1 PUSH2 0x7EB JUMPI POP POP RETURNDATASIZE ISZERO PUSH2 0x7E4 JUMPI RETURNDATASIZE PUSH2 0x7AC DUP2 PUSH2 0xD52 JUMP JUMPDEST SWAP1 PUSH2 0x7BA PUSH1 0x40 MLOAD SWAP3 DUP4 PUSH2 0xC77 JUMP JUMPDEST DUP2 MSTORE RETURNDATASIZE PUSH1 0x0 DUP4 DUP4 ADD RETURNDATACOPY JUMPDEST DUP1 MLOAD SWAP2 DUP3 PUSH2 0x7E1 JUMPI DUP4 PUSH4 0x32505749 PUSH1 0xE1 SHL PUSH1 0x0 MSTORE PUSH1 0x4 MSTORE PUSH1 0x24 PUSH1 0x0 REVERT JUMPDEST ADD REVERT JUMPDEST PUSH1 0x60 PUSH2 0x7C4 JUMP JUMPDEST SWAP2 SWAP3 SWAP1 SWAP2 PUSH1 0x1 PUSH1 0x1 PUSH1 0xE0 SHL SUB NOT AND PUSH4 0x757A42FF PUSH1 0xE1 SHL ADD PUSH2 0x80F JUMPI POP DUP2 SWAP1 DUP4 PUSH2 0x5DF JUMP JUMPDEST PUSH4 0x32505749 PUSH1 0xE1 SHL PUSH1 0x0 MSTORE PUSH1 0x4 MSTORE PUSH1 0x24 PUSH1 0x0 REVERT JUMPDEST DUP5 DUP2 DUP2 RETURNDATASIZE DUP4 GT PUSH2 0x861 JUMPI JUMPDEST PUSH2 0x838 DUP2 DUP4 PUSH2 0xC77 JUMP JUMPDEST DUP2 ADD SUB SLT PUSH2 0x85D JUMPI MLOAD SWAP1 PUSH1 0x1 PUSH1 0x1 PUSH1 0xE0 SHL SUB NOT DUP3 AND DUP3 SUB PUSH2 0x85A JUMPI POP DUP6 PUSH2 0x794 JUMP JUMPDEST DUP1 REVERT JUMPDEST POP DUP1 REVERT JUMPDEST POP RETURNDATASIZE PUSH2 0x82E JUMP JUMPDEST PUSH4 0x39E35637 PUSH1 0xE1 SHL PUSH1 0x0 MSTORE PUSH1 0x0 PUSH1 0x4 MSTORE PUSH1 0x24 PUSH1 0x0 REVERT JUMPDEST PUSH1 0x0 DUP6 DUP2 MSTORE PUSH1 0x4 PUSH1 0x20 MSTORE PUSH1 0x40 SWAP1 KECCAK256 DUP1 SLOAD PUSH1 0x1 PUSH1 0x1 PUSH1 0xA0 SHL SUB NOT AND SWAP1 SSTORE DUP3 DUP2 MSTORE PUSH1 0x3 DUP12 MSTORE PUSH1 0x40 DUP2 KECCAK256 DUP1 SLOAD PUSH1 0x0 NOT ADD SWAP1 SSTORE PUSH2 0x5A6 JUMP JUMPDEST PUSH4 0x32505749 PUSH1 0xE1 SHL PUSH1 0x0 MSTORE PUSH1 0x0 PUSH1 0x4 MSTORE PUSH1 0x24 PUSH1 0x0 REVERT JUMPDEST PUSH4 0x4E487B71 PUSH1 0xE0 SHL PUSH1 0x0 MSTORE PUSH1 0x11 PUSH1 0x4 MSTORE PUSH1 0x24 PUSH1 0x0 REVERT JUMPDEST CALLVALUE PUSH2 0x16F JUMPI PUSH2 0x29A PUSH2 0x8EF CALLDATASIZE PUSH2 0xC03 JUMP JUMPDEST SWAP1 PUSH1 0x40 MLOAD SWAP3 PUSH2 0x8FF PUSH1 0x20 DUP6 PUSH2 0xC77 JUMP JUMPDEST PUSH1 0x0 DUP5 MSTORE PUSH2 0x295 DUP4 DUP4 DUP4 PUSH2 0xD6E JUMP JUMPDEST CALLVALUE PUSH2 0x16F JUMPI PUSH1 0x0 CALLDATASIZE PUSH1 0x3 NOT ADD SLT PUSH2 0x16F JUMPI PUSH2 0x202 PUSH2 0x1EE PUSH2 0xC99 JUMP JUMPDEST CALLVALUE PUSH2 0x16F JUMPI PUSH2 0x29A PUSH2 0x93B CALLDATASIZE PUSH2 0xC03 JUMP JUMPDEST SWAP2 PUSH2 0xD6E JUMP JUMPDEST CALLVALUE PUSH2 0x16F JUMPI PUSH1 0x40 CALLDATASIZE PUSH1 0x3 NOT ADD SLT PUSH2 0x16F JUMPI PUSH2 0x95A PUSH2 0xBD7 JUMP JUMPDEST PUSH1 0x24 CALLDATALOAD PUSH2 0x966 DUP2 PUSH2 0xFD0 JUMP JUMPDEST CALLER ISZERO ISZERO DUP1 PUSH2 0xA1D JUMPI JUMPDEST DUP1 PUSH2 0x9EF JUMPI JUMPDEST PUSH2 0x9DA JUMPI DUP2 SWAP1 PUSH1 0x1 PUSH1 0x1 PUSH1 0xA0 SHL SUB DUP5 DUP2 AND SWAP2 AND PUSH32 0x8C5BE1E5EBEC7D5BD14F71427D1E84F3DD0314C0F7B2291E5B200AC8C7C3B925 PUSH1 0x0 DUP1 LOG4 PUSH1 0x0 SWAP1 DUP2 MSTORE PUSH1 0x4 PUSH1 0x20 MSTORE PUSH1 0x40 SWAP1 KECCAK256 DUP1 SLOAD PUSH1 0x1 PUSH1 0x1 PUSH1 0xA0 SHL SUB NOT AND PUSH1 0x1 PUSH1 0x1 PUSH1 0xA0 SHL SUB SWAP1 SWAP3 AND SWAP2 SWAP1 SWAP2 OR SWAP1 SSTORE STOP JUMPDEST PUSH4 0xA9FBF51F PUSH1 0xE0 SHL PUSH1 0x0 MSTORE CALLER PUSH1 0x4 MSTORE PUSH1 0x24 PUSH1 0x0 REVERT JUMPDEST POP PUSH1 0x1 PUSH1 0x1 PUSH1 0xA0 SHL SUB DUP2 AND PUSH1 0x0 SWAP1 DUP2 MSTORE PUSH1 0x5 PUSH1 0x20 SWAP1 DUP2 MSTORE PUSH1 0x40 DUP1 DUP4 KECCAK256 CALLER DUP5 MSTORE SWAP1 SWAP2 MSTORE SWAP1 KECCAK256 SLOAD PUSH1 0xFF AND ISZERO PUSH2 0x975 JUMP JUMPDEST POP PUSH1 0x1 PUSH1 0x1 PUSH1 0xA0 SHL SUB DUP2 AND CALLER EQ ISZERO PUSH2 0x96F JUMP JUMPDEST CALLVALUE PUSH2 0x16F JUMPI PUSH1 0x20 CALLDATASIZE PUSH1 0x3 NOT ADD SLT PUSH2 0x16F JUMPI PUSH1 0x4 CALLDATALOAD PUSH2 0xA4D DUP2 PUSH2 0xFD0 JUMP JUMPDEST POP PUSH1 0x0 MSTORE PUSH1 0x4 PUSH1 0x20 MSTORE PUSH1 0x20 PUSH1 0x1 DUP1 PUSH1 0xA0 SHL SUB PUSH1 0x40 PUSH1 0x0 KECCAK256 SLOAD AND PUSH1 0x40 MLOAD SWAP1 DUP2 MSTORE RETURN JUMPDEST CALLVALUE PUSH2 0x16F JUMPI PUSH1 0x0 CALLDATASIZE PUSH1 0x3 NOT ADD SLT PUSH2 0x16F JUMPI PUSH1 0x40 MLOAD PUSH1 0x0 DUP1 SLOAD PUSH2 0xA8F DUP2 PUSH2 0xC3D JUMP JUMPDEST DUP1 DUP5 MSTORE SWAP1 PUSH1 0x1 DUP2 AND SWAP1 DUP2 ISZERO PUSH2 0x3E6 JUMPI POP PUSH1 0x1 EQ PUSH2 0xAB6 JUMPI PUSH2 0x202 DUP4 PUSH2 0x1EE DUP2 DUP6 SUB DUP3 PUSH2 0xC77 JUMP JUMPDEST PUSH1 0x0 DUP1 DUP1 MSTORE PUSH32 0x290DECD9548B62A8D60345A988386FC84BA6BC95484008F6362F93160EF3E563 SWAP4 SWAP3 POP SWAP1 JUMPDEST DUP1 DUP3 LT PUSH2 0xAF9 JUMPI POP SWAP1 SWAP2 POP DUP2 ADD PUSH1 0x20 ADD PUSH2 0x1EE PUSH2 0x377 JUMP JUMPDEST SWAP2 SWAP3 PUSH1 0x1 DUP2 PUSH1 0x20 SWAP3 SLOAD DUP4 DUP6 DUP9 ADD ADD MSTORE ADD SWAP2 ADD SWAP1 SWAP3 SWAP2 PUSH2 0xAE1 JUMP JUMPDEST CALLVALUE PUSH2 0x16F JUMPI PUSH1 0x20 CALLDATASIZE PUSH1 0x3 NOT ADD SLT PUSH2 0x16F JUMPI PUSH1 0x4 CALLDATALOAD SWAP1 PUSH4 0xFFFFFFFF PUSH1 0xE0 SHL DUP3 AND DUP1 SWAP3 SUB PUSH2 0x16F JUMPI PUSH1 0x20 SWAP2 PUSH4 0x24832483 PUSH1 0xE1 SHL DUP2 EQ SWAP1 DUP2 ISZERO PUSH2 0xB55 JUMPI JUMPDEST POP ISZERO ISZERO DUP2 MSTORE RETURN JUMPDEST PUSH4 0x80AC58CD PUSH1 0xE0 SHL DUP2 EQ SWAP2 POP DUP2 ISZERO PUSH2 0xB87 JUMPI JUMPDEST DUP2 ISZERO PUSH2 0xB76 JUMPI JUMPDEST POP DUP4 PUSH2 0xB4E JUMP JUMPDEST PUSH4 0x1FFC9A7 PUSH1 0xE0 SHL EQ SWAP1 POP DUP4 PUSH2 0xB6F JUMP JUMPDEST PUSH4 0x5B5E139F PUSH1 0xE0 SHL DUP2 EQ SWAP2 POP PUSH2 0xB68 JUMP JUMPDEST SWAP2 SWAP1 DUP3 MLOAD DUP1 DUP3 MSTORE PUSH1 0x20 DUP1 DUP4 ADD SWAP5 ADD PUSH1 0x0 JUMPDEST DUP3 DUP2 LT PUSH2 0xBC7 JUMPI POP POP PUSH1 0x0 DUP2 PUSH1 0x20 SWAP5 SWAP6 ADD MSTORE PUSH1 0x1F DUP1 NOT SWAP2 ADD AND ADD ADD SWAP1 JUMP JUMPDEST DUP2 DUP2 ADD MLOAD DUP7 DUP3 ADD MSTORE PUSH1 0x20 ADD PUSH2 0xBA9 JUMP JUMPDEST PUSH1 0x4 CALLDATALOAD SWAP1 PUSH1 0x1 PUSH1 0x1 PUSH1 0xA0 SHL SUB DUP3 AND DUP3 SUB PUSH2 0x16F JUMPI JUMP JUMPDEST PUSH1 0x24 CALLDATALOAD SWAP1 PUSH1 0x1 PUSH1 0x1 PUSH1 0xA0 SHL SUB DUP3 AND DUP3 SUB PUSH2 0x16F JUMPI JUMP JUMPDEST PUSH1 0x60 SWAP1 PUSH1 0x3 NOT ADD SLT PUSH2 0x16F JUMPI PUSH1 0x4 CALLDATALOAD PUSH1 0x1 PUSH1 0x1 PUSH1 0xA0 SHL SUB DUP2 AND DUP2 SUB PUSH2 0x16F JUMPI SWAP1 PUSH1 0x24 CALLDATALOAD PUSH1 0x1 PUSH1 0x1 PUSH1 0xA0 SHL SUB DUP2 AND DUP2 SUB PUSH2 0x16F JUMPI SWAP1 PUSH1 0x44 CALLDATALOAD SWAP1 JUMP JUMPDEST SWAP1 PUSH1 0x1 DUP3 DUP2 SHR SWAP3 AND DUP1 ISZERO PUSH2 0xC6D JUMPI JUMPDEST PUSH1 0x20 DUP4 LT EQ PUSH2 0xC57 JUMPI JUMP JUMPDEST PUSH4 0x4E487B71 PUSH1 0xE0 SHL PUSH1 0x0 MSTORE PUSH1 0x22 PUSH1 0x4 MSTORE PUSH1 0x24 PUSH1 0x0 REVERT JUMPDEST SWAP2 PUSH1 0x7F AND SWAP2 PUSH2 0xC4C JUMP JUMPDEST SWAP1 PUSH1 0x1F DUP1 NOT SWAP2 ADD AND DUP2 ADD SWAP1 DUP2 LT PUSH8 0xFFFFFFFFFFFFFFFF DUP3 GT OR PUSH2 0x733 JUMPI PUSH1 0x40 MSTORE JUMP JUMPDEST PUSH1 0x40 MLOAD SWAP1 PUSH1 0x0 DUP3 PUSH1 0x9 SLOAD SWAP2 PUSH2 0xCAD DUP4 PUSH2 0xC3D JUMP JUMPDEST DUP1 DUP4 MSTORE SWAP3 PUSH1 0x1 DUP2 AND SWAP1 DUP2 ISZERO PUSH2 0xD33 JUMPI POP PUSH1 0x1 EQ PUSH2 0xCD3 JUMPI JUMPDEST PUSH2 0xCD1 SWAP3 POP SUB DUP4 PUSH2 0xC77 JUMP JUMPDEST JUMP JUMPDEST POP PUSH1 0x9 PUSH1 0x0 SWAP1 DUP2 MSTORE SWAP1 SWAP2 PUSH32 0x6E1540171B6C0C960B71A7020D9F60077F6AF931A8BBF590DA0223DACF75C7AF JUMPDEST DUP2 DUP4 LT PUSH2 0xD17 JUMPI POP POP SWAP1 PUSH1 0x20 PUSH2 0xCD1 SWAP3 DUP3 ADD ADD PUSH2 0xCC5 JUMP JUMPDEST PUSH1 0x20 SWAP2 SWAP4 POP DUP1 PUSH1 0x1 SWAP2 SLOAD DUP4 DUP6 DUP10 ADD ADD MSTORE ADD SWAP2 ADD SWAP1 SWAP2 DUP5 SWAP3 PUSH2 0xCFF JUMP JUMPDEST PUSH1 0x20 SWAP3 POP PUSH2 0xCD1 SWAP5 SWAP2 POP PUSH1 0xFF NOT AND DUP3 DUP5 ADD MSTORE ISZERO ISZERO PUSH1 0x5 SHL DUP3 ADD ADD PUSH2 0xCC5 JUMP JUMPDEST PUSH8 0xFFFFFFFFFFFFFFFF DUP2 GT PUSH2 0x733 JUMPI PUSH1 0x1F ADD PUSH1 0x1F NOT AND PUSH1 0x20 ADD SWAP1 JUMP JUMPDEST PUSH1 0x1 PUSH1 0x1 PUSH1 0xA0 SHL SUB SWAP1 SWAP2 AND SWAP2 SWAP1 DUP3 ISZERO PUSH2 0x8B2 JUMPI PUSH1 0x0 DUP3 DUP2 MSTORE PUSH1 0x2 PUSH1 0x20 MSTORE PUSH1 0x40 DUP2 KECCAK256 SLOAD PUSH1 0x1 PUSH1 0x1 PUSH1 0xA0 SHL SUB AND SWAP4 DUP4 SWAP2 DUP6 SWAP1 CALLER ISZERO ISZERO DUP1 PUSH2 0xE6C JUMPI JUMPDEST POP PUSH32 0xDDF252AD1BE2C89B69C2B068FC378DAA952BA7F163C4A11628F55A4DF523B3EF SWAP1 DUP3 PUSH2 0xE37 JUMPI JUMPDEST DUP4 DUP2 MSTORE PUSH1 0x3 PUSH1 0x20 MSTORE PUSH1 0x40 DUP2 KECCAK256 PUSH1 0x1 DUP2 SLOAD ADD SWAP1 SSTORE DUP5 DUP2 MSTORE PUSH1 0x2 PUSH1 0x20 MSTORE PUSH1 0x40 DUP2 KECCAK256 DUP5 PUSH12 0xFFFFFFFFFFFFFFFFFFFFFFFF PUSH1 0xA0 SHL DUP3 SLOAD AND OR SWAP1 SSTORE DUP1 LOG4 PUSH1 0x1 PUSH1 0x1 PUSH1 0xA0 SHL SUB AND DUP1 DUP4 SUB PUSH2 0xE1D JUMPI POP POP POP JUMP JUMPDEST PUSH4 0x64283D7B PUSH1 0xE0 SHL PUSH1 0x0 MSTORE PUSH1 0x4 MSTORE PUSH1 0x24 MSTORE PUSH1 0x44 MSTORE PUSH1 0x64 PUSH1 0x0 REVERT JUMPDEST PUSH1 0x0 DUP6 DUP2 MSTORE PUSH1 0x4 PUSH1 0x20 MSTORE PUSH1 0x40 SWAP1 KECCAK256 DUP1 SLOAD PUSH1 0x1 PUSH1 0x1 PUSH1 0xA0 SHL SUB NOT AND SWAP1 SSTORE DUP3 DUP2 MSTORE PUSH1 0x3 PUSH1 0x20 MSTORE PUSH1 0x40 DUP2 KECCAK256 DUP1 SLOAD PUSH1 0x0 NOT ADD SWAP1 SSTORE PUSH2 0xDD0 JUMP JUMPDEST SWAP2 POP SWAP2 SWAP3 POP DUP1 PUSH2 0xEB5 JUMPI JUMPDEST ISZERO PUSH2 0xE86 JUMPI SWAP1 DUP5 DUP5 SWAP3 CODESIZE PUSH2 0xDA7 JUMP JUMPDEST DUP4 SWAP1 DUP6 PUSH2 0xE9F JUMPI PUSH1 0x24 SWAP2 PUSH4 0x7E273289 PUSH1 0xE0 SHL DUP3 MSTORE PUSH1 0x4 MSTORE REVERT JUMPDEST PUSH1 0x44 SWAP2 PUSH4 0x177E802F PUSH1 0xE0 SHL DUP3 MSTORE CALLER PUSH1 0x4 MSTORE PUSH1 0x24 MSTORE REVERT JUMPDEST POP CALLER DUP6 EQ DUP1 ISZERO PUSH2 0xEE3 JUMPI JUMPDEST DUP1 PUSH2 0xE77 JUMPI POP DUP4 DUP2 MSTORE PUSH1 0x4 PUSH1 0x20 MSTORE PUSH1 0x40 DUP2 KECCAK256 SLOAD PUSH1 0x1 PUSH1 0x1 PUSH1 0xA0 SHL SUB AND CALLER EQ PUSH2 0xE77 JUMP JUMPDEST POP DUP5 DUP2 MSTORE PUSH1 0x5 PUSH1 0x20 SWAP1 DUP2 MSTORE PUSH1 0x40 DUP1 DUP4 KECCAK256 CALLER DUP5 MSTORE SWAP1 SWAP2 MSTORE DUP2 KECCAK256 SLOAD PUSH1 0xFF AND PUSH2 0xEC0 JUMP JUMPDEST PUSH2 0xF0D DUP2 PUSH2 0xFD0 JUMP JUMPDEST POP PUSH1 0x0 MSTORE PUSH1 0x6 PUSH1 0x20 MSTORE PUSH1 0x40 PUSH1 0x0 KECCAK256 PUSH1 0x40 MLOAD SWAP1 DUP2 PUSH1 0x0 DUP3 SLOAD SWAP3 PUSH2 0xF2E DUP5 PUSH2 0xC3D JUMP JUMPDEST DUP1 DUP5 MSTORE SWAP4 PUSH1 0x1 DUP2 AND SWAP1 DUP2 ISZERO PUSH2 0xFAE JUMPI POP PUSH1 0x1 EQ PUSH2 0xF67 JUMPI JUMPDEST POP PUSH2 0xF53 SWAP3 POP SUB DUP3 PUSH2 0xC77 JUMP JUMPDEST PUSH1 0x0 PUSH1 0x40 MLOAD PUSH2 0xF63 PUSH1 0x20 DUP3 PUSH2 0xC77 JUMP JUMPDEST MSTORE SWAP1 JUMP JUMPDEST SWAP1 POP PUSH1 0x0 SWAP3 SWAP2 SWAP3 MSTORE PUSH1 0x20 PUSH1 0x0 KECCAK256 SWAP1 PUSH1 0x0 SWAP2 JUMPDEST DUP2 DUP4 LT PUSH2 0xF92 JUMPI POP POP SWAP1 PUSH1 0x20 PUSH2 0xF53 SWAP3 DUP3 ADD ADD CODESIZE PUSH2 0xF46 JUMP JUMPDEST PUSH1 0x20 SWAP2 SWAP4 POP DUP1 PUSH1 0x1 SWAP2 SLOAD DUP4 DUP6 DUP9 ADD ADD MSTORE ADD SWAP2 ADD SWAP1 SWAP2 DUP4 SWAP3 PUSH2 0xF79 JUMP JUMPDEST SWAP1 POP PUSH1 0x20 SWAP3 POP PUSH2 0xF53 SWAP5 SWAP2 POP PUSH1 0xFF NOT AND DUP3 DUP5 ADD MSTORE ISZERO ISZERO PUSH1 0x5 SHL DUP3 ADD ADD CODESIZE PUSH2 0xF46 JUMP JUMPDEST PUSH1 0x0 DUP2 DUP2 MSTORE PUSH1 0x2 PUSH1 0x20 MSTORE PUSH1 0x40 SWAP1 KECCAK256 SLOAD PUSH1 0x1 PUSH1 0x1 PUSH1 0xA0 SHL SUB AND SWAP1 DUP2 ISZERO PUSH2 0xFF3 JUMPI POP SWAP1 JUMP JUMPDEST PUSH4 0x7E273289 PUSH1 0xE0 SHL PUSH1 0x0 MSTORE PUSH1 0x4 MSTORE PUSH1 0x24 PUSH1 0x0 REVERT JUMPDEST PUSH1 0x7 SLOAD PUSH1 0x1 PUSH1 0x1 PUSH1 0xA0 SHL SUB AND CALLER SUB PUSH2 0x101B JUMPI JUMP JUMPDEST PUSH4 0x118CDAA7 PUSH1 0xE0 SHL PUSH1 0x0 MSTORE CALLER PUSH1 0x4 MSTORE PUSH1 0x24 PUSH1 0x0 REVERT JUMPDEST SWAP3 SWAP2 DUP2 EXTCODESIZE PUSH2 0x103F JUMPI JUMPDEST POP POP POP POP JUMP JUMPDEST PUSH1 0x40 MLOAD PUSH4 0xA85BD01 PUSH1 0xE1 SHL DUP2 MSTORE CALLER PUSH1 0x4 DUP3 ADD MSTORE PUSH1 0x1 PUSH1 0x1 PUSH1 0xA0 SHL SUB SWAP5 DUP6 AND PUSH1 0x24 DUP3 ADD MSTORE PUSH1 0x44 DUP2 ADD SWAP2 SWAP1 SWAP2 MSTORE PUSH1 0x80 PUSH1 0x64 DUP3 ADD MSTORE SWAP3 AND SWAP2 SWAP1 PUSH1 0x20 SWAP1 DUP3 SWAP1 DUP2 SWAP1 PUSH2 0x108A SWAP1 PUSH1 0x84 DUP4 ADD SWAP1 PUSH2 0xB98 JUMP JUMPDEST SUB DUP2 PUSH1 0x0 DUP7 GAS CALL DUP1 SWAP2 PUSH1 0x0 SWAP2 PUSH2 0x1115 JUMPI JUMPDEST POP SWAP1 PUSH2 0x10F4 JUMPI POP RETURNDATASIZE ISZERO PUSH2 0x10ED JUMPI RETURNDATASIZE PUSH2 0x10B2 DUP2 PUSH2 0xD52 JUMP JUMPDEST SWAP1 PUSH2 0x10C0 PUSH1 0x40 MLOAD SWAP3 DUP4 PUSH2 0xC77 JUMP JUMPDEST DUP2 MSTORE RETURNDATASIZE PUSH1 0x0 PUSH1 0x20 DUP4 ADD RETURNDATACOPY JUMPDEST DUP1 MLOAD SWAP1 DUP2 PUSH2 0x10E8 JUMPI DUP3 PUSH4 0x32505749 PUSH1 0xE1 SHL PUSH1 0x0 MSTORE PUSH1 0x4 MSTORE PUSH1 0x24 PUSH1 0x0 REVERT JUMPDEST PUSH1 0x20 ADD REVERT JUMPDEST PUSH1 0x60 PUSH2 0x10CB JUMP JUMPDEST PUSH1 0x1 PUSH1 0x1 PUSH1 0xE0 SHL SUB NOT AND PUSH4 0x757A42FF PUSH1 0xE1 SHL ADD PUSH2 0x80F JUMPI POP CODESIZE DUP1 DUP1 DUP1 PUSH2 0x1039 JUMP JUMPDEST PUSH1 0x20 DUP2 RETURNDATASIZE PUSH1 0x20 GT PUSH2 0x1150 JUMPI JUMPDEST DUP2 PUSH2 0x112E PUSH1 0x20 SWAP4 DUP4 PUSH2 0xC77 JUMP JUMPDEST DUP2 ADD SUB SLT PUSH2 0x85D JUMPI MLOAD SWAP1 PUSH1 0x1 PUSH1 0x1 PUSH1 0xE0 SHL SUB NOT DUP3 AND DUP3 SUB PUSH2 0x85A JUMPI POP CODESIZE PUSH2 0x109B JUMP JUMPDEST RETURNDATASIZE SWAP2 POP PUSH2 0x1121 JUMP INVALID LOG2 PUSH5 0x6970667358 0x22 SLT KECCAK256 0xED ADDMOD PUSH9 0xA212C0F14E57F85F51 PUSH20 0xFC3B880E852064D88813651AF1919B1165A88B64 PUSH20 0x6F6C634300081C0033A264697066735822122008 0xAF 0xE1 ADDRESS PUSH2 0xDC4E BLOBHASH 0x4E 0xD4 0xE DUP7 0x25 0x24 SIGNEXTEND ADDRESS 0xEB TLOAD SWAP7 0x2E SUB PUSH9 0xA15177AE7E1FDF1B11 0xE3 PUSH5 0x736F6C6343 STOP ADDMOD SHR STOP CALLER "
        },
        "methodIdentifiers": {
          "approve(address,uint256)": "095ea7b3",
          "balanceOf(address)": "70a08231",
          "createCreator(string,string,string)": "84fcd617",
          "createCustomNFT(string,string,string,uint256)": "8fc38b80",
          "createMarketSale(uint256)": "be9af536",
          "createToken(string,uint256)": "72b3b620",
          "fetchItemsListed()": "45f8fa80",
          "fetchMarketItems()": "0f08efe0",
          "fetchMyArt()": "86591f28",
          "getApproved(uint256)": "081812fc",
          "getListingFeePercentage()": "b30927b5",
          "isApprovedForAll(address,address)": "e985e9c5",
          "listExistingNFT(address,uint256,uint256)": "671dcfaf",
          "listingFeePercentage()": "0888de39",
          "name()": "06fdde03",
          "onERC721Received(address,address,uint256,bytes)": "150b7a02",
          "owner()": "8da5cb5b",
          "ownerOf(uint256)": "6352211e",
          "reSellToken(address,uint256,uint256)": "a010c4fd",
          "safeTransferFrom(address,address,uint256)": "42842e0e",
          "safeTransferFrom(address,address,uint256,bytes)": "b88d4fde",
          "setApprovalForAll(address,bool)": "a22cb465",
          "supportsInterface(bytes4)": "01ffc9a7",
          "symbol()": "95d89b41",
          "tokenURI(uint256)": "c87b56dd",
          "transferFrom(address,address,uint256)": "23b872dd",
          "updateListingFeePercentage(uint256)": "01bb8cc5"
        }
      }
    }
  }
}