{
  "_format": "hh-sol-artifact-1",
  "contractName": "NFT",
  "sourceName": "contracts/NFT.sol",
  "abi": [
    {
      "inputs": [
        {
          "internalType": "string",
          "name": "_name",
          "type": "string"
        },
        {
          "internalType": "string",
          "name": "_symbol",
          "type": "string"
        },
        {
          "internalType": "string",
          "name": "_tokenURI",
          "type": "string"
        }
      ],
      "stateMutability": "nonpayable",
      "type": "constructor"
    },
    {
      "inputs": [
        {
          "internalType": "address",
          "name": "sender",
          "type": "address"
        },
        {
          "internalType": "uint256",
          "name": "tokenId",
          "type": "uint256"
        },
        {
          "internalType": "address",
          "name": "owner",
          "type": "address"
        }
      ],
      "name": "ERC721IncorrectOwner",
      "type": "error"
    },
    {
      "inputs": [
        {
          "internalType": "address",
          "name": "operator",
          "type": "address"
        },
        {
          "internalType": "uint256",
          "name": "tokenId",
          "type": "uint256"
        }
      ],
      "name": "ERC721InsufficientApproval",
      "type": "error"
    },
    {
      "inputs": [
        {
          "internalType": "address",
          "name": "approver",
          "type": "address"
        }
      ],
      "name": "ERC721InvalidApprover",
      "type": "error"
    },
    {
      "inputs": [
        {
          "internalType": "address",
          "name": "operator",
          "type": "address"
        }
      ],
      "name": "ERC721InvalidOperator",
      "type": "error"
    },
    {
      "inputs": [
        {
          "internalType": "address",
          "name": "owner",
          "type": "address"
        }
      ],
      "name": "ERC721InvalidOwner",
      "type": "error"
    },
    {
      "inputs": [
        {
          "internalType": "address",
          "name": "receiver",
          "type": "address"
        }
      ],
      "name": "ERC721InvalidReceiver",
      "type": "error"
    },
    {
      "inputs": [
        {
          "internalType": "address",
          "name": "sender",
          "type": "address"
        }
      ],
      "name": "ERC721InvalidSender",
      "type": "error"
    },
    {
      "inputs": [
        {
          "internalType": "uint256",
          "name": "tokenId",
          "type": "uint256"
        }
      ],
      "name": "ERC721NonexistentToken",
      "type": "error"
    },
    {
      "inputs": [
        {
          "internalType": "address",
          "name": "owner",
          "type": "address"
        }
      ],
      "name": "OwnableInvalidOwner",
      "type": "error"
    },
    {
      "inputs": [
        {
          "internalType": "address",
          "name": "account",
          "type": "address"
        }
      ],
      "name": "OwnableUnauthorizedAccount",
      "type": "error"
    },
    {
      "anonymous": false,
      "inputs": [
        {
          "indexed": true,
          "internalType": "address",
          "name": "owner",
          "type": "address"
        },
        {
          "indexed": true,
          "internalType": "address",
          "name": "approved",
          "type": "address"
        },
        {
          "indexed": true,
          "internalType": "uint256",
          "name": "tokenId",
          "type": "uint256"
        }
      ],
      "name": "Approval",
      "type": "event"
    },
    {
      "anonymous": false,
      "inputs": [
        {
          "indexed": true,
          "internalType": "address",
          "name": "owner",
          "type": "address"
        },
        {
          "indexed": true,
          "internalType": "address",
          "name": "operator",
          "type": "address"
        },
        {
          "indexed": false,
          "internalType": "bool",
          "name": "approved",
          "type": "bool"
        }
      ],
      "name": "ApprovalForAll",
      "type": "event"
    },
    {
      "anonymous": false,
      "inputs": [
        {
          "indexed": false,
          "internalType": "uint256",
          "name": "_fromTokenId",
          "type": "uint256"
        },
        {
          "indexed": false,
          "internalType": "uint256",
          "name": "_toTokenId",
          "type": "uint256"
        }
      ],
      "name": "BatchMetadataUpdate",
      "type": "event"
    },
    {
      "anonymous": false,
      "inputs": [
        {
          "indexed": false,
          "internalType": "uint256",
          "name": "_tokenId",
          "type": "uint256"
        }
      ],
      "name": "MetadataUpdate",
      "type": "event"
    },
    {
      "anonymous": false,
      "inputs": [
        {
          "indexed": true,
          "internalType": "address",
          "name": "previousOwner",
          "type": "address"
        },
        {
          "indexed": true,
          "internalType": "address",
          "name": "newOwner",
          "type": "address"
        }
      ],
      "name": "OwnershipTransferred",
      "type": "event"
    },
    {
      "anonymous": false,
      "inputs": [
        {
          "indexed": true,
          "internalType": "address",
          "name": "from",
          "type": "address"
        },
        {
          "indexed": true,
          "internalType": "address",
          "name": "to",
          "type": "address"
        },
        {
          "indexed": true,
          "internalType": "uint256",
          "name": "tokenId",
          "type": "uint256"
        }
      ],
      "name": "Transfer",
      "type": "event"
    },
    {
      "inputs": [
        {
          "internalType": "address",
          "name": "to",
          "type": "address"
        },
        {
          "internalType": "uint256",
          "name": "tokenId",
          "type": "uint256"
        }
      ],
      "name": "approve",
      "outputs": [],
      "stateMutability": "nonpayable",
      "type": "function"
    },
    {
      "inputs": [
        {
          "internalType": "address",
          "name": "owner",
          "type": "address"
        }
      ],
      "name": "balanceOf",
      "outputs": [
        {
          "internalType": "uint256",
          "name": "",
          "type": "uint256"
        }
      ],
      "stateMutability": "view",
      "type": "function"
    },
    {
      "inputs": [
        {
          "internalType": "uint256",
          "name": "tokenId",
          "type": "uint256"
        }
      ],
      "name": "getApproved",
      "outputs": [
        {
          "internalType": "address",
          "name": "",
          "type": "address"
        }
      ],
      "stateMutability": "view",
      "type": "function"
    },
    {
      "inputs": [
        {
          "internalType": "address",
          "name": "owner",
          "type": "address"
        },
        {
          "internalType": "address",
          "name": "operator",
          "type": "address"
        }
      ],
      "name": "isApprovedForAll",
      "outputs": [
        {
          "internalType": "bool",
          "name": "",
          "type": "bool"
        }
      ],
      "stateMutability": "view",
      "type": "function"
    },
    {
      "inputs": [
        {
          "internalType": "address",
          "name": "_to",
          "type": "address"
        }
      ],
      "name": "mintNFT",
      "outputs": [
        {
          "internalType": "uint256",
          "name": "",
          "type": "uint256"
        }
      ],
      "stateMutability": "payable",
      "type": "function"
    },
    {
      "inputs": [],
      "name": "name",
      "outputs": [
        {
          "internalType": "string",
          "name": "",
          "type": "string"
        }
      ],
      "stateMutability": "view",
      "type": "function"
    },
    {
      "inputs": [],
      "name": "owner",
      "outputs": [
        {
          "internalType": "address",
          "name": "",
          "type": "address"
        }
      ],
      "stateMutability": "view",
      "type": "function"
    },
    {
      "inputs": [
        {
          "internalType": "uint256",
          "name": "tokenId",
          "type": "uint256"
        }
      ],
      "name": "ownerOf",
      "outputs": [
        {
          "internalType": "address",
          "name": "",
          "type": "address"
        }
      ],
      "stateMutability": "view",
      "type": "function"
    },
    {
      "inputs": [],
      "name": "renounceOwnership",
      "outputs": [],
      "stateMutability": "nonpayable",
      "type": "function"
    },
    {
      "inputs": [
        {
          "internalType": "address",
          "name": "from",
          "type": "address"
        },
        {
          "internalType": "address",
          "name": "to",
          "type": "address"
        },
        {
          "internalType": "uint256",
          "name": "tokenId",
          "type": "uint256"
        }
      ],
      "name": "safeTransferFrom",
      "outputs": [],
      "stateMutability": "nonpayable",
      "type": "function"
    },
    {
      "inputs": [
        {
          "internalType": "address",
          "name": "from",
          "type": "address"
        },
        {
          "internalType": "address",
          "name": "to",
          "type": "address"
        },
        {
          "internalType": "uint256",
          "name": "tokenId",
          "type": "uint256"
        },
        {
          "internalType": "bytes",
          "name": "data",
          "type": "bytes"
        }
      ],
      "name": "safeTransferFrom",
      "outputs": [],
      "stateMutability": "nonpayable",
      "type": "function"
    },
    {
      "inputs": [
        {
          "internalType": "address",
          "name": "operator",
          "type": "address"
        },
        {
          "internalType": "bool",
          "name": "approved",
          "type": "bool"
        }
      ],
      "name": "setApprovalForAll",
      "outputs": [],
      "stateMutability": "nonpayable",
      "type": "function"
    },
    {
      "inputs": [
        {
          "internalType": "bytes4",
          "name": "interfaceId",
          "type": "bytes4"
        }
      ],
      "name": "supportsInterface",
      "outputs": [
        {
          "internalType": "bool",
          "name": "",
          "type": "bool"
        }
      ],
      "stateMutability": "view",
      "type": "function"
    },
    {
      "inputs": [],
      "name": "symbol",
      "outputs": [
        {
          "internalType": "string",
          "name": "",
          "type": "string"
        }
      ],
      "stateMutability": "view",
      "type": "function"
    },
    {
      "inputs": [],
      "name": "tokenURI",
      "outputs": [
        {
          "internalType": "string",
          "name": "",
          "type": "string"
        }
      ],
      "stateMutability": "view",
      "type": "function"
    },
    {
      "inputs": [
        {
          "internalType": "uint256",
          "name": "tokenId",
          "type": "uint256"
        }
      ],
      "name": "tokenURI",
      "outputs": [
        {
          "internalType": "string",
          "name": "",
          "type": "string"
        }
      ],
      "stateMutability": "view",
      "type": "function"
    },
    {
      "inputs": [
        {
          "internalType": "address",
          "name": "from",
          "type": "address"
        },
        {
          "internalType": "address",
          "name": "to",
          "type": "address"
        },
        {
          "internalType": "uint256",
          "name": "tokenId",
          "type": "uint256"
        }
      ],
      "name": "transferFrom",
      "outputs": [],
      "stateMutability": "nonpayable",
      "type": "function"
    },
    {
      "inputs": [
        {
          "internalType": "address",
          "name": "newOwner",
          "type": "address"
        }
      ],
      "name": "transferOwnership",
      "outputs": [],
      "stateMutability": "nonpayable",
      "type": "function"
    }
  ],
  "bytecode": "0x6080604052346104eb5761170f80380380610019816104f0565b92833981016060828203126104eb5781516001600160401b0381116104eb5781610044918401610515565b60208301519092906001600160401b0381116104eb5782610066918301610515565b60408201519092906001600160401b0381116104eb576100869201610515565b82516001600160401b03811161030157600054600181811c911680156104e1575b60208210146102e157601f811161047d575b506020601f8211600114610417578192939460009261040c575b50508160011b916000199060031b1c1916176000555b81516001600160401b03811161030157600154600181811c91168015610402575b60208210146102e157601f811161039d575b50602092601f8211600114610338579281929360009261032d575b50508160011b916000199060031b1c1916176001555b33156103175760078054336001600160a01b0319821681179092556001600160a01b03167f8be0079c531659141344cd1fd0a4f28419497f9722a3daafe3b4186f6b6457e0600080a3600060085580516001600160401b03811161030157600954600181811c911680156102f7575b60208210146102e157601f811161027c575b50602091601f82116001146102185791819260009261020d575b50508160011b916000199060031b1c1916176009555b60405161118e90816105818239f35b0151905038806101e8565b601f198216926009600052806000209160005b8581106102645750836001951061024b575b505050811b016009556101fe565b015160001960f88460031b161c1916905538808061023d565b9192602060018192868501518155019401920161022b565b60096000527f6e1540171b6c0c960b71a7020d9f60077f6af931a8bbf590da0223dacf75c7af601f830160051c810191602084106102d7575b601f0160051c01905b8181106102cb57506101ce565b600081556001016102be565b90915081906102b5565b634e487b7160e01b600052602260045260246000fd5b90607f16906101bc565b634e487b7160e01b600052604160045260246000fd5b631e4fbdf760e01b600052600060045260246000fd5b015190503880610137565b601f198216936001600052806000209160005b868110610385575083600195961061036c575b505050811b0160015561014d565b015160001960f88460031b161c1916905538808061035e565b9192602060018192868501518155019401920161034b565b60016000527fb10e2d527612073b26eecdfd717e6a320cf44b4afac2b0732d9fcbe2b7fa0cf6601f830160051c810191602084106103f8575b601f0160051c01905b8181106103ec575061011c565b600081556001016103df565b90915081906103d6565b90607f169061010a565b0151905038806100d3565b601f1982169060008052806000209160005b8181106104655750958360019596971061044c575b505050811b016000556100e9565b015160001960f88460031b161c1916905538808061043e565b9192602060018192868b015181550194019201610429565b600080527f290decd9548b62a8d60345a988386fc84ba6bc95484008f6362f93160ef3e563601f830160051c810191602084106104d7575b601f0160051c01905b8181106104cb57506100b9565b600081556001016104be565b90915081906104b5565b90607f16906100a7565b600080fd5b6040519190601f01601f191682016001600160401b0381118382101761030157604052565b81601f820112156104eb578051906001600160401b03821161030157610544601f8301601f19166020016104f0565b92828452602083830101116104eb5760005b82811061056b57505060206000918301015290565b8060208092840101518282870101520161055656fe608080604052600436101561001357600080fd5b60003560e01c90816301ffc9a714610b135750806306fdde0314610a6e578063081812fc14610a30578063095ea7b31461094157806323b872dd1461092a5780633c130d901461090e57806342842e0e146108de57806354ba0f27146105165780636352211e146104e657806370a0823114610490578063715018a6146104335780638da5cb5b1461040a57806395d89b411461033d578063a22cb4651461029c578063b88d4fde14610206578063c87b56dd146101cf578063e985e9c5146101745763f2fde38b146100e557600080fd5b3461016f57602036600319011261016f576100fe610bd7565b610106611007565b6001600160a01b0316801561015957600780546001600160a01b0319811683179091556001600160a01b03167f8be0079c531659141344cd1fd0a4f28419497f9722a3daafe3b4186f6b6457e0600080a3005b631e4fbdf760e01b600052600060045260246000fd5b600080fd5b3461016f57604036600319011261016f5761018d610bd7565b610195610bed565b9060018060a01b0316600052600560205260406000209060018060a01b0316600052602052602060ff604060002054166040519015158152f35b3461016f57602036600319011261016f576102026101ee600435610f04565b604051918291602083526020830190610b98565b0390f35b3461016f57608036600319011261016f5761021f610bd7565b610227610bed565b906044356064359267ffffffffffffffff841161016f573660238501121561016f5783600401359261025884610d52565b936102666040519586610c77565b808552366024828801011161016f57602081600092602461029a99018389013786010152610295838383610d6e565b611030565b005b3461016f57604036600319011261016f576102b5610bd7565b6024359081151580920361016f576001600160a01b031690811561032857336000526005602052604060002082600052602052604060002060ff1981541660ff83161790556040519081527f17307eab39ab6107e8899845ad3d59bd9653f200f220920489ca2b5937696c3160203392a3005b50630b61174360e31b60005260045260246000fd5b3461016f57600036600319011261016f57604051600060015461035f81610c3d565b80845290600181169081156103e65750600114610387575b610202836101ee81850382610c77565b600160009081527fb10e2d527612073b26eecdfd717e6a320cf44b4afac2b0732d9fcbe2b7fa0cf6939250905b8082106103cc575090915081016020016101ee610377565b9192600181602092548385880101520191019092916103b4565b60ff191660208086019190915291151560051b840190910191506101ee9050610377565b3461016f57600036600319011261016f576007546040516001600160a01b039091168152602090f35b3461016f57600036600319011261016f5761044c611007565b600780546001600160a01b031981169091556000906001600160a01b03167f8be0079c531659141344cd1fd0a4f28419497f9722a3daafe3b4186f6b6457e08280a3005b3461016f57602036600319011261016f576001600160a01b036104b1610bd7565b1680156104d05760005260036020526020604060002054604051908152f35b6322718ad960e21b600052600060045260246000fd5b3461016f57602036600319011261016f576020610504600435610fd0565b6040516001600160a01b039091168152f35b602036600319011261016f5761052a610bd7565b60085460001981146108c8576001018060085560209060405161054d8382610c77565b600081526001600160a01b0384169384156108b25760008381526002855260018060a01b036040822054168487827fddf252ad1be2c89b69c2b068fc378daa952ba7f163c4a11628f55a4df523b3ef811515958661087e575b83815260038b5260408082208054600101905585825260028c52812080546001600160a01b0319168517905580a450610868573b610749575b509091506105eb610c99565b9080600052600683526040600020825167ffffffffffffffff8111610733576106148254610c3d565b601f81116106ed575b508493601f821160011461068957938192939460009261067e575b50508160011b916000199060031b1c19161790555b7ff8e1a15aba9398e019f0b49df1a4fde98ee17ae345cb5f6b5e2c27f5033e8ce782604051838152a1604051908152f35b015190508580610638565b601f1982169483600052866000209160005b888882106106d7575050836001959697106106be575b505050811b01905561064d565b015160001960f88460031b161c191690558580806106b1565b600184958293958501518155019401920161069b565b8260005285600020601f830160051c810191878410610729575b601f0160051c01905b81811061071d575061061d565b60008155600101610710565b9091508190610707565b634e487b7160e01b600052604160045260246000fd5b826107839160405180938192630a85bd0160e11b835233600484015260006024840152866044840152608060648401526084830190610b98565b03816000885af18091600091610823575b50906107eb5750503d156107e4573d6107ac81610d52565b906107ba6040519283610c77565b81523d60008383013e5b805191826107e15783633250574960e11b60005260045260246000fd5b01fd5b60606107c4565b919290916001600160e01b03191663757a42ff60e11b0161080f57508190836105df565b633250574960e11b60005260045260246000fd5b8481813d8311610861575b6108388183610c77565b8101031261085d5751906001600160e01b03198216820361085a575085610794565b80fd5b5080fd5b503d61082e565b6339e3563760e11b600052600060045260246000fd5b600085815260046020526040902080546001600160a01b031916905582815260038b526040812080546000190190556105a6565b633250574960e11b600052600060045260246000fd5b634e487b7160e01b600052601160045260246000fd5b3461016f5761029a6108ef36610c03565b90604051926108ff602085610c77565b60008452610295838383610d6e565b3461016f57600036600319011261016f576102026101ee610c99565b3461016f5761029a61093b36610c03565b91610d6e565b3461016f57604036600319011261016f5761095a610bd7565b60243561096681610fd0565b33151580610a1d575b806109ef575b6109da5781906001600160a01b0384811691167f8c5be1e5ebec7d5bd14f71427d1e84f3dd0314c0f7b2291e5b200ac8c7c3b925600080a4600090815260046020526040902080546001600160a01b0319166001600160a01b03909216919091179055005b63a9fbf51f60e01b6000523360045260246000fd5b506001600160a01b038116600090815260056020908152604080832033845290915290205460ff1615610975565b506001600160a01b03811633141561096f565b3461016f57602036600319011261016f57600435610a4d81610fd0565b506000526004602052602060018060a01b0360406000205416604051908152f35b3461016f57600036600319011261016f5760405160008054610a8f81610c3d565b80845290600181169081156103e65750600114610ab657610202836101ee81850382610c77565b60008080527f290decd9548b62a8d60345a988386fc84ba6bc95484008f6362f93160ef3e563939250905b808210610af9575090915081016020016101ee610377565b919260018160209254838588010152019101909291610ae1565b3461016f57602036600319011261016f576004359063ffffffff60e01b821680920361016f57602091632483248360e11b8114908115610b55575b5015158152f35b6380ac58cd60e01b811491508115610b87575b8115610b76575b5083610b4e565b6301ffc9a760e01b14905083610b6f565b635b5e139f60e01b81149150610b68565b919082518082526020808301940160005b828110610bc7575050600081602094950152601f8019910116010190565b8181015186820152602001610ba9565b600435906001600160a01b038216820361016f57565b602435906001600160a01b038216820361016f57565b606090600319011261016f576004356001600160a01b038116810361016f57906024356001600160a01b038116810361016f579060443590565b90600182811c92168015610c6d575b6020831014610c5757565b634e487b7160e01b600052602260045260246000fd5b91607f1691610c4c565b90601f8019910116810190811067ffffffffffffffff82111761073357604052565b6040519060008260095491610cad83610c3d565b8083529260018116908115610d335750600114610cd3575b610cd192500383610c77565b565b506009600090815290917f6e1540171b6c0c960b71a7020d9f60077f6af931a8bbf590da0223dacf75c7af5b818310610d17575050906020610cd192820101610cc5565b6020919350806001915483858901015201910190918492610cff565b60209250610cd194915060ff191682840152151560051b820101610cc5565b67ffffffffffffffff811161073357601f01601f191660200190565b6001600160a01b03909116919082156108b2576000828152600260205260408120546001600160a01b0316938391859033151580610e6c575b507fddf252ad1be2c89b69c2b068fc378daa952ba7f163c4a11628f55a4df523b3ef9082610e37575b83815260036020526040812060018154019055848152600260205260408120846bffffffffffffffffffffffff60a01b82541617905580a46001600160a01b0316808303610e1d57505050565b6364283d7b60e01b60005260045260245260445260646000fd5b600085815260046020526040902080546001600160a01b03191690558281526003602052604081208054600019019055610dd0565b915091925080610eb5575b15610e86579084849238610da7565b839085610e9f57602491637e27328960e01b8252600452fd5b60449163177e802f60e01b825233600452602452fd5b503385148015610ee3575b80610e775750838152600460205260408120546001600160a01b03163314610e77565b5084815260056020908152604080832033845290915281205460ff16610ec0565b610f0d81610fd0565b506000526006602052604060002060405190816000825492610f2e84610c3d565b8084529360018116908115610fae5750600114610f67575b50610f5392500382610c77565b6000604051610f63602082610c77565b5290565b90506000929192526020600020906000915b818310610f92575050906020610f539282010138610f46565b6020919350806001915483858801015201910190918392610f79565b905060209250610f5394915060ff191682840152151560051b82010138610f46565b6000818152600260205260409020546001600160a01b0316908115610ff3575090565b637e27328960e01b60005260045260246000fd5b6007546001600160a01b0316330361101b57565b63118cdaa760e01b6000523360045260246000fd5b9291813b61103f575b50505050565b604051630a85bd0160e11b81523360048201526001600160a01b039485166024820152604481019190915260806064820152921691906020908290819061108a906084830190610b98565b03816000865af18091600091611115575b50906110f457503d156110ed573d6110b281610d52565b906110c06040519283610c77565b81523d6000602083013e5b805190816110e85782633250574960e11b60005260045260246000fd5b602001fd5b60606110cb565b6001600160e01b03191663757a42ff60e11b0161080f575038808080611039565b6020813d602011611150575b8161112e60209383610c77565b8101031261085d5751906001600160e01b03198216820361085a57503861109b565b3d915061112156fea2646970667358221220ed0868a212c0f14e57f85f5173fc3b880e852064d88813651af1919b1165a88b64736f6c634300081c0033",
  "linkReferences": {},
  "deployedLinkReferences": {}
}