{
  "_format": "hh-sol-artifact-1",
  "contractName": "Aetherium",
  "sourceName": "contracts/Aetherium.sol",
  "abi": [
    {
      "inputs": [],
      "stateMutability": "nonpayable",
      "type": "constructor"
    },
    {
      "inputs": [
        {
          "internalType": "address",
          "name": "sender",
          "type": "address"
        },
        {
          "internalType": "uint256",
          "name": "tokenId",
          "type": "uint256"
        },
        {
          "internalType": "address",
          "name": "owner",
          "type": "address"
        }
      ],
      "name": "ERC721IncorrectOwner",
      "type": "error"
    },
    {
      "inputs": [
        {
          "internalType": "address",
          "name": "operator",
          "type": "address"
        },
        {
          "internalType": "uint256",
          "name": "tokenId",
          "type": "uint256"
        }
      ],
      "name": "ERC721InsufficientApproval",
      "type": "error"
    },
    {
      "inputs": [
        {
          "internalType": "address",
          "name": "approver",
          "type": "address"
        }
      ],
      "name": "ERC721InvalidApprover",
      "type": "error"
    },
    {
      "inputs": [
        {
          "internalType": "address",
          "name": "operator",
          "type": "address"
        }
      ],
      "name": "ERC721InvalidOperator",
      "type": "error"
    },
    {
      "inputs": [
        {
          "internalType": "address",
          "name": "owner",
          "type": "address"
        }
      ],
      "name": "ERC721InvalidOwner",
      "type": "error"
    },
    {
      "inputs": [
        {
          "internalType": "address",
          "name": "receiver",
          "type": "address"
        }
      ],
      "name": "ERC721InvalidReceiver",
      "type": "error"
    },
    {
      "inputs": [
        {
          "internalType": "address",
          "name": "sender",
          "type": "address"
        }
      ],
      "name": "ERC721InvalidSender",
      "type": "error"
    },
    {
      "inputs": [
        {
          "internalType": "uint256",
          "name": "tokenId",
          "type": "uint256"
        }
      ],
      "name": "ERC721NonexistentToken",
      "type": "error"
    },
    {
      "anonymous": false,
      "inputs": [
        {
          "indexed": true,
          "internalType": "address",
          "name": "owner",
          "type": "address"
        },
        {
          "indexed": true,
          "internalType": "address",
          "name": "approved",
          "type": "address"
        },
        {
          "indexed": true,
          "internalType": "uint256",
          "name": "tokenId",
          "type": "uint256"
        }
      ],
      "name": "Approval",
      "type": "event"
    },
    {
      "anonymous": false,
      "inputs": [
        {
          "indexed": true,
          "internalType": "address",
          "name": "owner",
          "type": "address"
        },
        {
          "indexed": true,
          "internalType": "address",
          "name": "operator",
          "type": "address"
        },
        {
          "indexed": false,
          "internalType": "bool",
          "name": "approved",
          "type": "bool"
        }
      ],
      "name": "ApprovalForAll",
      "type": "event"
    },
    {
      "anonymous": false,
      "inputs": [
        {
          "indexed": false,
          "internalType": "uint256",
          "name": "_fromTokenId",
          "type": "uint256"
        },
        {
          "indexed": false,
          "internalType": "uint256",
          "name": "_toTokenId",
          "type": "uint256"
        }
      ],
      "name": "BatchMetadataUpdate",
      "type": "event"
    },
    {
      "anonymous": false,
      "inputs": [
        {
          "indexed": false,
          "internalType": "uint256",
          "name": "_tokenId",
          "type": "uint256"
        }
      ],
      "name": "MetadataUpdate",
      "type": "event"
    },
    {
      "anonymous": false,
      "inputs": [
        {
          "indexed": true,
          "internalType": "address",
          "name": "from",
          "type": "address"
        },
        {
          "indexed": true,
          "internalType": "address",
          "name": "to",
          "type": "address"
        },
        {
          "indexed": true,
          "internalType": "uint256",
          "name": "tokenId",
          "type": "uint256"
        }
      ],
      "name": "Transfer",
      "type": "event"
    },
    {
      "anonymous": false,
      "inputs": [
        {
          "indexed": true,
          "internalType": "uint256",
          "name": "marketItemId",
          "type": "uint256"
        },
        {
          "indexed": true,
          "internalType": "uint256",
          "name": "tokenId",
          "type": "uint256"
        },
        {
          "indexed": false,
          "internalType": "address",
          "name": "seller",
          "type": "address"
        },
        {
          "indexed": false,
          "internalType": "address",
          "name": "owner",
          "type": "address"
        },
        {
          "indexed": false,
          "internalType": "uint256",
          "name": "price",
          "type": "uint256"
        },
        {
          "indexed": false,
          "internalType": "bool",
          "name": "sold",
          "type": "bool"
        },
        {
          "indexed": false,
          "internalType": "address",
          "name": "nftContract",
          "type": "address"
        }
      ],
      "name": "idMarketItemCreated",
      "type": "event"
    },
    {
      "inputs": [
        {
          "internalType": "address",
          "name": "to",
          "type": "address"
        },
        {
          "internalType": "uint256",
          "name": "tokenId",
          "type": "uint256"
        }
      ],
      "name": "approve",
      "outputs": [],
      "stateMutability": "nonpayable",
      "type": "function"
    },
    {
      "inputs": [
        {
          "internalType": "address",
          "name": "owner",
          "type": "address"
        }
      ],
      "name": "balanceOf",
      "outputs": [
        {
          "internalType": "uint256",
          "name": "",
          "type": "uint256"
        }
      ],
      "stateMutability": "view",
      "type": "function"
    },
    {
      "inputs": [
        {
          "internalType": "string",
          "name": "name",
          "type": "string"
        },
        {
          "internalType": "string",
          "name": "imageURL",
          "type": "string"
        },
        {
          "internalType": "string",
          "name": "description",
          "type": "string"
        }
      ],
      "name": "createCreator",
      "outputs": [],
      "stateMutability": "nonpayable",
      "type": "function"
    },
    {
      "inputs": [
        {
          "internalType": "string",
          "name": "_tokenURI",
          "type": "string"
        },
        {
          "internalType": "string",
          "name": "_title",
          "type": "string"
        },
        {
          "internalType": "string",
          "name": "_symbol",
          "type": "string"
        },
        {
          "internalType": "uint256",
          "name": "price",
          "type": "uint256"
        }
      ],
      "name": "createCustomNFT",
      "outputs": [],
      "stateMutability": "nonpayable",
      "type": "function"
    },
    {
      "inputs": [
        {
          "internalType": "uint256",
          "name": "marketItemId",
          "type": "uint256"
        }
      ],
      "name": "createMarketSale",
      "outputs": [],
      "stateMutability": "payable",
      "type": "function"
    },
    {
      "inputs": [
        {
          "internalType": "string",
          "name": "tokenURI",
          "type": "string"
        },
        {
          "internalType": "uint256",
          "name": "price",
          "type": "uint256"
        }
      ],
      "name": "createToken",
      "outputs": [
        {
          "internalType": "uint256",
          "name": "",
          "type": "uint256"
        }
      ],
      "stateMutability": "nonpayable",
      "type": "function"
    },
    {
      "inputs": [],
      "name": "fetchItemsListed",
      "outputs": [
        {
          "components": [
            {
              "internalType": "uint256",
              "name": "marketItemId",
              "type": "uint256"
            },
            {
              "internalType": "uint256",
              "name": "tokenId",
              "type": "uint256"
            },
            {
              "internalType": "address payable",
              "name": "seller",
              "type": "address"
            },
            {
              "internalType": "address payable",
              "name": "owner",
              "type": "address"
            },
            {
              "internalType": "uint256",
              "name": "price",
              "type": "uint256"
            },
            {
              "internalType": "bool",
              "name": "sold",
              "type": "bool"
            },
            {
              "internalType": "address",
              "name": "nftContract",
              "type": "address"
            }
          ],
          "internalType": "struct Aetherium.MarketItem[]",
          "name": "",
          "type": "tuple[]"
        }
      ],
      "stateMutability": "view",
      "type": "function"
    },
    {
      "inputs": [],
      "name": "fetchMarketItems",
      "outputs": [
        {
          "components": [
            {
              "internalType": "uint256",
              "name": "marketItemId",
              "type": "uint256"
            },
            {
              "internalType": "uint256",
              "name": "tokenId",
              "type": "uint256"
            },
            {
              "internalType": "address payable",
              "name": "seller",
              "type": "address"
            },
            {
              "internalType": "address payable",
              "name": "owner",
              "type": "address"
            },
            {
              "internalType": "uint256",
              "name": "price",
              "type": "uint256"
            },
            {
              "internalType": "bool",
              "name": "sold",
              "type": "bool"
            },
            {
              "internalType": "address",
              "name": "nftContract",
              "type": "address"
            }
          ],
          "internalType": "struct Aetherium.MarketItem[]",
          "name": "",
          "type": "tuple[]"
        }
      ],
      "stateMutability": "view",
      "type": "function"
    },
    {
      "inputs": [],
      "name": "fetchMyArt",
      "outputs": [
        {
          "components": [
            {
              "internalType": "uint256",
              "name": "marketItemId",
              "type": "uint256"
            },
            {
              "internalType": "uint256",
              "name": "tokenId",
              "type": "uint256"
            },
            {
              "internalType": "address payable",
              "name": "seller",
              "type": "address"
            },
            {
              "internalType": "address payable",
              "name": "owner",
              "type": "address"
            },
            {
              "internalType": "uint256",
              "name": "price",
              "type": "uint256"
            },
            {
              "internalType": "bool",
              "name": "sold",
              "type": "bool"
            },
            {
              "internalType": "address",
              "name": "nftContract",
              "type": "address"
            }
          ],
          "internalType": "struct Aetherium.MarketItem[]",
          "name": "",
          "type": "tuple[]"
        }
      ],
      "stateMutability": "view",
      "type": "function"
    },
    {
      "inputs": [
        {
          "internalType": "uint256",
          "name": "tokenId",
          "type": "uint256"
        }
      ],
      "name": "getApproved",
      "outputs": [
        {
          "internalType": "address",
          "name": "",
          "type": "address"
        }
      ],
      "stateMutability": "view",
      "type": "function"
    },
    {
      "inputs": [],
      "name": "getListingFeePercentage",
      "outputs": [
        {
          "internalType": "uint256",
          "name": "",
          "type": "uint256"
        }
      ],
      "stateMutability": "view",
      "type": "function"
    },
    {
      "inputs": [
        {
          "internalType": "address",
          "name": "owner",
          "type": "address"
        },
        {
          "internalType": "address",
          "name": "operator",
          "type": "address"
        }
      ],
      "name": "isApprovedForAll",
      "outputs": [
        {
          "internalType": "bool",
          "name": "",
          "type": "bool"
        }
      ],
      "stateMutability": "view",
      "type": "function"
    },
    {
      "inputs": [
        {
          "internalType": "address",
          "name": "nftContract",
          "type": "address"
        },
        {
          "internalType": "uint256",
          "name": "tokenId",
          "type": "uint256"
        },
        {
          "internalType": "uint256",
          "name": "price",
          "type": "uint256"
        }
      ],
      "name": "listExistingNFT",
      "outputs": [],
      "stateMutability": "nonpayable",
      "type": "function"
    },
    {
      "inputs": [],
      "name": "listingFeePercentage",
      "outputs": [
        {
          "internalType": "uint256",
          "name": "",
          "type": "uint256"
        }
      ],
      "stateMutability": "view",
      "type": "function"
    },
    {
      "inputs": [],
      "name": "name",
      "outputs": [
        {
          "internalType": "string",
          "name": "",
          "type": "string"
        }
      ],
      "stateMutability": "view",
      "type": "function"
    },
    {
      "inputs": [
        {
          "internalType": "address",
          "name": "",
          "type": "address"
        },
        {
          "internalType": "address",
          "name": "",
          "type": "address"
        },
        {
          "internalType": "uint256",
          "name": "",
          "type": "uint256"
        },
        {
          "internalType": "bytes",
          "name": "",
          "type": "bytes"
        }
      ],
      "name": "onERC721Received",
      "outputs": [
        {
          "internalType": "bytes4",
          "name": "",
          "type": "bytes4"
        }
      ],
      "stateMutability": "nonpayable",
      "type": "function"
    },
    {
      "inputs": [],
      "name": "owner",
      "outputs": [
        {
          "internalType": "address payable",
          "name": "",
          "type": "address"
        }
      ],
      "stateMutability": "view",
      "type": "function"
    },
    {
      "inputs": [
        {
          "internalType": "uint256",
          "name": "tokenId",
          "type": "uint256"
        }
      ],
      "name": "ownerOf",
      "outputs": [
        {
          "internalType": "address",
          "name": "",
          "type": "address"
        }
      ],
      "stateMutability": "view",
      "type": "function"
    },
    {
      "inputs": [
        {
          "internalType": "address",
          "name": "nftContract",
          "type": "address"
        },
        {
          "internalType": "uint256",
          "name": "marketItemId",
          "type": "uint256"
        },
        {
          "internalType": "uint256",
          "name": "price",
          "type": "uint256"
        }
      ],
      "name": "reSellToken",
      "outputs": [],
      "stateMutability": "nonpayable",
      "type": "function"
    },
    {
      "inputs": [
        {
          "internalType": "address",
          "name": "from",
          "type": "address"
        },
        {
          "internalType": "address",
          "name": "to",
          "type": "address"
        },
        {
          "internalType": "uint256",
          "name": "tokenId",
          "type": "uint256"
        }
      ],
      "name": "safeTransferFrom",
      "outputs": [],
      "stateMutability": "nonpayable",
      "type": "function"
    },
    {
      "inputs": [
        {
          "internalType": "address",
          "name": "from",
          "type": "address"
        },
        {
          "internalType": "address",
          "name": "to",
          "type": "address"
        },
        {
          "internalType": "uint256",
          "name": "tokenId",
          "type": "uint256"
        },
        {
          "internalType": "bytes",
          "name": "data",
          "type": "bytes"
        }
      ],
      "name": "safeTransferFrom",
      "outputs": [],
      "stateMutability": "nonpayable",
      "type": "function"
    },
    {
      "inputs": [
        {
          "internalType": "address",
          "name": "operator",
          "type": "address"
        },
        {
          "internalType": "bool",
          "name": "approved",
          "type": "bool"
        }
      ],
      "name": "setApprovalForAll",
      "outputs": [],
      "stateMutability": "nonpayable",
      "type": "function"
    },
    {
      "inputs": [
        {
          "internalType": "bytes4",
          "name": "interfaceId",
          "type": "bytes4"
        }
      ],
      "name": "supportsInterface",
      "outputs": [
        {
          "internalType": "bool",
          "name": "",
          "type": "bool"
        }
      ],
      "stateMutability": "view",
      "type": "function"
    },
    {
      "inputs": [],
      "name": "symbol",
      "outputs": [
        {
          "internalType": "string",
          "name": "",
          "type": "string"
        }
      ],
      "stateMutability": "view",
      "type": "function"
    },
    {
      "inputs": [
        {
          "internalType": "uint256",
          "name": "tokenId",
          "type": "uint256"
        }
      ],
      "name": "tokenURI",
      "outputs": [
        {
          "internalType": "string",
          "name": "",
          "type": "string"
        }
      ],
      "stateMutability": "view",
      "type": "function"
    },
    {
      "inputs": [
        {
          "internalType": "address",
          "name": "from",
          "type": "address"
        },
        {
          "internalType": "address",
          "name": "to",
          "type": "address"
        },
        {
          "internalType": "uint256",
          "name": "tokenId",
          "type": "uint256"
        }
      ],
      "name": "transferFrom",
      "outputs": [],
      "stateMutability": "nonpayable",
      "type": "function"
    },
    {
      "inputs": [
        {
          "internalType": "uint256",
          "name": "_listingFeePercentage",
          "type": "uint256"
        }
      ],
      "name": "updateListingFeePercentage",
      "outputs": [],
      "stateMutability": "nonpayable",
      "type": "function"
    }
  ],
  "bytecode": "0x60806040523461033c57604080519081016001600160401b03811182821017610249576040908152600982526841657468657269756d60b81b602083015280519081016001600160401b038111828210176102495760405260048152630828aa8960e31b602082015281516001600160401b03811161024957600054600181811c91168015610332575b602082101461022957601f81116102ce575b50602092601f821160011461026a579281929360009261025f575b50508160011b916000199060031b1c1916176000555b80516001600160401b03811161024957600154600181811c9116801561023f575b602082101461022957601f81116101c4575b50602091601f821160011461016057918192600092610155575b50508160011b916000199060031b1c1916176001555b6002600a55600b80546001600160a01b03191633179055604051613a0f90816103428239f35b015190503880610119565b601f198216926001600052806000209160005b8581106101ac57508360019510610193575b505050811b0160015561012f565b015160001960f88460031b161c19169055388080610185565b91926020600181928685015181550194019201610173565b60016000527fb10e2d527612073b26eecdfd717e6a320cf44b4afac2b0732d9fcbe2b7fa0cf6601f830160051c8101916020841061021f575b601f0160051c01905b81811061021357506100ff565b60008155600101610206565b90915081906101fd565b634e487b7160e01b600052602260045260246000fd5b90607f16906100ed565b634e487b7160e01b600052604160045260246000fd5b0151905038806100b6565b601f1982169360008052806000209160005b8681106102b6575083600195961061029d575b505050811b016000556100cc565b015160001960f88460031b161c1916905538808061028f565b9192602060018192868501518155019401920161027c565b600080527f290decd9548b62a8d60345a988386fc84ba6bc95484008f6362f93160ef3e563601f830160051c81019160208410610328575b601f0160051c01905b81811061031c575061009b565b6000815560010161030f565b9091508190610306565b90607f1690610089565b600080fdfe608080604052600436101561001357600080fd5b600090813560e01c90816301bb8cc5146118f65750806301ffc9a71461186d57806306fdde03146117c8578063081812fc1461178b5780630888de3914610416578063095ea7b3146116a35780630f08efe0146115a5578063150b7a021461158157806323b872dd1461156957806342842e0e1461153f57806345f8fa80146114085780636352211e146113d7578063671dcfaf1461133e57806370a08231146112eb57806372b3b6201461104d57806384fcd61714610bb157806386591f2814610a665780638da5cb5b14610a3d5780638fc38b80146106f657806395d89b4114610627578063a010c4fd146104e1578063a22cb46514610434578063b30927b514610416578063b88d4fde146103f8578063be9af536146101ed578063c87b56dd146101b55763e985e9c51461014a57600080fd5b346101b25760403660031901126101b2576101636119cc565b60243591906001600160a01b03831683036101b0579060409160018060a01b031681526005602052209060018060a01b0316600052602052602060ff604060002054166040519015158152f35b505b80fd5b50346101b25760203660031901126101b2576101e96101d5600435612077565b60405191829160208352602083019061198d565b0390f35b5060203660031901126101b2576004358152600c6020526040812060048101549081340361039f5760028101546003820180546001600160a01b0319163317905560058201805460ff1916600190811782556008546001600160a01b039390931693869390929061025d90611f21565b600855818060a01b03905460081c1691015490803b1561039b576040516323b872dd60e01b8152306004820152336024820152604481019290925282908290606490829084905af1801561035557610386575b5050600a54808302908382041483151715610372578380806102d760648295048097611c3d565b600b549096906001600160a01b0316828215610369575bf11561035557828282828215610360575b839283928392f11561035557808352600e602052604083206103218154611f21565b90558252600d602052600460408320018054918201809211610341575580f35b634e487b7160e01b83526011600452602483fd5b6040513d84823e3d90fd5b506108fc6102ff565b506108fc6102ee565b634e487b7160e01b84526011600452602484fd5b8161039091611aa6565b61039b5782386102b0565b8280fd5b60405162461bcd60e51b815260206004820152602b60248201527f5375626d69742061736b696e6720707269636520746f20636f6d706c6574652060448201526a3a3930b739b0b1ba34b7b760a91b6064820152608490fd5b50346101b25761041361040a36611b19565b92919091611f30565b80f35b50346101b257806003193601126101b2576020600a54604051908152f35b50346101b25760403660031901126101b25761044e6119cc565b60243590811515908183036104dd576001600160a01b03169182156104c95761049a903385526005602052604085208460005260205260406000209060ff801983541691151516179055565b6040519081527f17307eab39ab6107e8899845ad3d59bd9653f200f220920489ca2b5937696c3160203392a380f35b630b61174360e31b84526004839052602484fd5b8380fd5b50346101b2576104f036611bbe565b90929192338352600d60205261050f60ff600360408620015416611ec9565b8252600c602052604082209060038201903360018060a01b03835416036105d85760058301805460ff1916905560048301556002820180546001600160a01b0319908116331790915581541630179055600854801561034157600019016008556001015490918291906001600160a01b0316803b156105d4576040516323b872dd60e01b8152336004820152306024820152604481019290925282908290606490829084905af18015610355576105c35750f35b816105cd91611aa6565b6101b25780f35b5050fd5b60405162461bcd60e51b815260206004820152602160248201527f4f6e6c7920746865206974656d206f776e65722063616e20726573656c6c20696044820152601d60fa1b6064820152608490fd5b50346101b257806003193601126101b25760405190806001549061064a82611c03565b80855291600181169081156106cf5750600114610672575b6101e9846101d581860382611aa6565b600181527fb10e2d527612073b26eecdfd717e6a320cf44b4afac2b0732d9fcbe2b7fa0cf6939250905b8082106106b5575090915081016020016101d582610662565b91926001816020925483858801015201910190929161069c565b60ff191660208087019190915292151560051b850190920192506101d59150839050610662565b50346101b25760803660031901126101b2576004356001600160401b0381116101b057610727903690600401611be8565b6024356001600160401b03811161039b57610746903690600401611be8565b6044356001600160401b0381116104dd57610765903690600401611be8565b9060643592338552600d60205261078560ff600360408820015416611ec9565b6040519261170f92838501938585106001600160401b03861117610a29578594926107c56107e195936107d3936122cb893960608652606086019061198d565b90848203602086015261198d565b91604081840391015261198d565b039083f08015610355576040516354ba0f2760e01b81523360048201526001600160a01b03919091169060208160248187865af18015610a1e576109ef575b50803b1561039b576040516323b872dd60e01b8152336004820152306024820152600160448201528390818160648183875af18015610355576109da575b50508115610995577f181a47b5695555f517b1a68c10fcf517a29223f2036c9e3871a63f8ffa6c583160a06001936009549361089985611f21565b600955868561095560056040516108af81611a75565b838152602081018b815260408201338152606083019030825260808401928a845260408c860199808b5260c08701998c8b528152600c6020522094518555518e8501558d808c1b0390511660028401908e808d1b03166001600160601b038c1b8254161790558c808b1b0390511660038301908d808c1b03166001600160601b038b1b8254161790555160048201550192511515839060ff801983541691151516179055565b518154906101008960a81b039060081b16906101008960a81b0319161790556040519133835230602084015260408301528660608301526080820152a380f35b60405162461bcd60e51b815260206004820152601c60248201527f5072696365206d757374206265206174206c65617374203120776569000000006044820152606490fd5b816109e491611aa6565b61039b57823861085e565b6020813d602011610a16575b81610a0860209383611aa6565b810103126104dd5751610820565b3d91506109fb565b6040513d86823e3d90fd5b634e487b7160e01b88526041600452602488fd5b50346101b257806003193601126101b257600b546040516001600160a01b039091168152602090f35b50346101b257806003193601126101b257600954819081805b828110610b775750610a9090611c77565b91835b828110610aa857604051806101e986826119e7565b808552600c60205260408520600301546001600160a01b03163314610ad0575b600101610a93565b90818552600c60205260408520600560405191610aec83611a75565b805483526001810154602084015260028101546001600160a01b0390811660408501526003820154811660608501526004820154608085015291015460ff8116151560a084015260081c1660c0820152610b468286611cf8565b52610b518185611cf8565b5060018101809111610b635790610ac8565b634e487b7160e01b85526011600452602485fd5b808552600c60205260408520600301546001600160a01b03163314610b9f575b600101610a7f565b9060018101809111610b635790610b97565b50346101b25760603660031901126101b2576004356001600160401b0381116101b057610be2903690600401611be8565b6024356001600160401b03811161039b57610c01903690600401611be8565b6044356001600160401b0381116104dd57610c20903690600401611be8565b338452600d60205260ff600360408620015416611008576040519260a084018481106001600160401b03821117610ff457604052835260208301918252604083019081526060830190600182526080840192858452338652600d6020526040862094518051906001600160401b038211610a29578190610ca08854611c03565b601f8111610fa4575b50602090601f8311600114610f41578992610f36575b50508160011b916000199060031b1c19161785555b51805160018601916001600160401b038211610a29578190610cf68454611c03565b601f8111610ee6575b50602090601f8311600114610e83578992610e78575b50508160011b916000199060031b1c19161790555b51805160028501916001600160401b038211610e6457610d4a8354611c03565b601f8111610e1f575b50602090601f8311600114610db4579180610da2949260049796948a92610da9575b50508160011b916000199060031b1c19161790555b511515600385019060ff801983541691151516179055565b5191015580f35b015190503880610d75565b8388528188209190601f198416895b818110610e0757509260019285926004999896610da2989610610dee575b505050811b019055610d8a565b015160001960f88460031b161c19169055388080610de1565b92936020600181928786015181550195019301610dc3565b83885260208820601f840160051c81019160208510610e5a575b601f0160051c01905b818110610e4f5750610d53565b888155600101610e42565b9091508190610e39565b634e487b7160e01b87526041600452602487fd5b015190503880610d15565b848a52818a209250601f1984168a5b818110610ece5750908460019594939210610eb5575b505050811b019055610d2a565b015160001960f88460031b161c19169055388080610ea8565b92936020600181928786015181550195019301610e92565b90915083895260208920601f840160051c81019160208510610f2c575b90601f859493920160051c01905b818110610f1e5750610cff565b8a8155849350600101610f11565b9091508190610f03565b015190503880610cbf565b888a52818a209250601f1984168a5b818110610f8c5750908460019594939210610f73575b505050811b018555610cd4565b015160001960f88460031b161c19169055388080610f66565b92936020600181928786015181550195019301610f50565b90915087895260208920601f840160051c81019160208510610fea575b90601f859493920160051c01905b818110610fdc5750610ca9565b8a8155849350600101610fcf565b9091508190610fc1565b634e487b7160e01b86526041600452602486fd5b60405162461bcd60e51b815260206004820152601a60248201527f43726561746f7220616c726561647920726567697374657265640000000000006044820152606490fd5b50346101b25760403660031901126101b2576004356001600160401b0381116101b05761107e903690600401611be8565b338252600d60205261109960ff600360408520015416611ec9565b6007546110a581611f21565b60075533156112d757808352600260205260408320546001600160a01b031680151590816112a2575b33808652600360209081526040808820805460010190558588526002909152862080546001600160a01b031916821790558390827fddf252ad1be2c89b69c2b068fc378daa952ba7f163c4a11628f55a4df523b3ef8880a45061128e5780835260066020526040832082516001600160401b03811161127a576111518254611c03565b601f8111611235575b5060209485906001601f8411146111d5579482939495926111ca575b50508160011b916000199060031b1c19161790555b7ff8e1a15aba9398e019f0b49df1a4fde98ee17ae345cb5f6b5e2c27f5033e8ce782604051838152a16111c233602435833061217a565b604051908152f35b015190503880611176565b90601f19831695848352818320925b87811061121e575083600195969710611205575b505050811b01905561118b565b015160001960f88460031b161c191690553880806111f8565b9192886001819286850151815501940192016111e4565b82865260208620601f830160051c81019160208410611270575b601f0160051c01905b818110611265575061115a565b868155600101611258565b909150819061124f565b634e487b7160e01b85526041600452602485fd5b6339e3563760e11b83526004839052602483fd5b600083815260046020526040902080546001600160a01b031916905580855260036020526040852080546000190190556110ce565b633250574960e11b83526004839052602483fd5b50346101b25760203660031901126101b2576001600160a01b0361130d6119cc565b16801561132a578160409160209352600383522054604051908152f35b6322718ad960e21b82526004829052602482fd5b50346101b25761134d36611bbe565b92919092338352600d60205261136c60ff600360408620015416611ec9565b6001600160a01b038216803b156104dd576040516323b872dd60e01b8152336004820152306024820152604481018690529084908290606490829084905af18015610a1e576113c3575b506104139293339261217a565b926113d18161041395611aa6565b926113b6565b50346101b25760203660031901126101b25760206113f6600435612143565b6040516001600160a01b039091168152f35b50346101b257806003193601126101b257600954819081805b828110611505575061143290611c77565b91835b82811061144a57604051806101e986826119e7565b808552600c60205260408520600201546001600160a01b03163314611472575b600101611435565b90818552600c6020526040852060056040519161148e83611a75565b805483526001810154602084015260028101546001600160a01b0390811660408501526003820154811660608501526004820154608085015291015460ff8116151560a084015260081c1660c08201526114e88286611cf8565b526114f38185611cf8565b5060018101809111610b63579061146a565b808552600c60205260408520600201546001600160a01b0316331461152d575b600101611421565b9060018101809111610b635790611525565b50346101b25761041361155136611b84565b9060405192611561602085611aa6565b858452611f30565b50346101b25761041361157b36611b84565b91611d22565b50346101b25761159036611b19565b505050506020604051630a85bd0160e11b8152f35b50346101b257806003193601126101b2576009546115c560085482611c3d565b906115d08392611c77565b91835b8281106115e857604051806101e986826119e7565b808552600c60205260408520600301546001600160a01b03163014611610575b6001016115d3565b90818552600c6020526040852060056040519161162c83611a75565b805483526001810154602084015260028101546001600160a01b0390811660408501526003820154811660608501526004820154608085015291015460ff8116151560a084015260081c1660c08201526116868286611cf8565b526116918185611cf8565b5060018101809111610b635790611608565b50346101b25760403660031901126101b2576116bd6119cc565b6024356116c981612143565b33151580611778575b8061174d575b61173a5781906001600160a01b0384811691167f8c5be1e5ebec7d5bd14f71427d1e84f3dd0314c0f7b2291e5b200ac8c7c3b9258680a4825260046020526040822080546001600160a01b0319166001600160a01b0390921691909117905580f35b63a9fbf51f60e01b845233600452602484fd5b506001600160a01b038116845260056020908152604080862033875290915284205460ff16156116d8565b506001600160a01b0381163314156116d2565b50346101b25760203660031901126101b2576020906004356117ac81612143565b50815260048252604060018060a01b0391205416604051908152f35b50346101b257806003193601126101b25760405190808054906117ea82611c03565b80855291600181169081156106cf5750600114611811576101e9846101d581860382611aa6565b8080527f290decd9548b62a8d60345a988386fc84ba6bc95484008f6362f93160ef3e563939250905b808210611853575090915081016020016101d582610662565b91926001816020925483858801015201910190929161183a565b50346101b25760203660031901126101b25760043563ffffffff60e01b81168091036101b057602090632483248360e11b81149081156118b3575b506040519015158152f35b6380ac58cd60e01b8114915081156118e5575b81156118d4575b50826118a8565b6301ffc9a760e01b149050826118cd565b635b5e139f60e01b811491506118c6565b9050346101b05760203660031901126101b057600b546001600160a01b031633036119255750600435600a5580f35b62461bcd60e51b815260206004820152604060248201527f4f6e6c7920746865206d61726b6574706c616365206f776e65722063616e206360448201527f68616e676520746865206c697374696e67206665652070657263656e746167656064820152608490fd5b919082518082526020808301940160005b8281106119bc575050600081602094950152601f8019910116010190565b818101518682015260200161199e565b600435906001600160a01b03821682036119e257565b600080fd5b602060408183019282815284518094520192019060005b818110611a0b5750505090565b825180518552602081810151818701526040808301516001600160a01b03908116918801919091526060808401518216908801526080808401519088015260a08084015115159088015260c092830151169186019190915260e090940193909201916001016119fe565b60e081019081106001600160401b03821117611a9057604052565b634e487b7160e01b600052604160045260246000fd5b90601f801991011681019081106001600160401b03821117611a9057604052565b6001600160401b038111611a9057601f01601f191660200190565b929192611aee82611ac7565b91611afc6040519384611aa6565b8294818452818301116119e2578281602093846000960137010152565b9060806003198301126119e2576004356001600160a01b03811681036119e257916024356001600160a01b03811681036119e2579160443591606435906001600160401b0382116119e257806023830112156119e257816024611b8193600401359101611ae2565b90565b60609060031901126119e2576004356001600160a01b03811681036119e257906024356001600160a01b03811681036119e2579060443590565b60609060031901126119e2576004356001600160a01b03811681036119e257906024359060443590565b9080601f830112156119e257816020611b8193359101611ae2565b90600182811c92168015611c33575b6020831014611c1d57565b634e487b7160e01b600052602260045260246000fd5b91607f1691611c12565b91908203918211611c4a57565b634e487b7160e01b600052601160045260246000fd5b6001600160401b038111611a905760051b60200190565b90611c8182611c60565b611c8e6040519182611aa6565b8281528092611c9f601f1991611c60565b019060005b828110611cb057505050565b602090604051611cbf81611a75565b60008152600083820152600060408201526000606082015260006080820152600060a0820152600060c082015282828501015201611ca4565b8051821015611d0c5760209160051b010190565b634e487b7160e01b600052603260045260246000fd5b6001600160a01b0390911691908215611eb3576000828152600260205260408120546001600160a01b0316938391859033151580611e1b575b507fddf252ad1be2c89b69c2b068fc378daa952ba7f163c4a11628f55a4df523b3ef9082611de6575b83815260036020526040812060018154019055848152600260205260408120846001600160601b0360a01b82541617905580a46001600160a01b0316808303611dcc57505050565b6364283d7b60e01b60005260045260245260445260646000fd5b600085815260046020526040902080546001600160a01b03191690558281526003602052604081208054600019019055611d84565b915091925080611e64575b15611e35579084849238611d5b565b839085611e4e57602491637e27328960e01b8252600452fd5b60449163177e802f60e01b825233600452602452fd5b503385148015611e92575b80611e265750838152600460205260408120546001600160a01b03163314611e26565b5084815260056020908152604080832033845290915281205460ff16611e6f565b633250574960e11b600052600060045260246000fd5b15611ed057565b60405162461bcd60e51b8152602060048201526024808201527f4f6e6c792063726561746f72732063616e2063616c6c20746869732066756e636044820152633a34b7b760e11b6064820152608490fd5b6000198114611c4a5760010190565b9291611f3d818386611d22565b813b611f4a575b50505050565b604051630a85bd0160e11b81523360048201526001600160a01b0394851660248201526044810191909152608060648201529216919060209082908190611f9590608483019061198d565b03816000865af18091600091612034575b5090611fff57503d15611ff8573d611fbd81611ac7565b90611fcb6040519283611aa6565b81523d6000602083013e5b80519081611ff35782633250574960e11b60005260045260246000fd5b602001fd5b6060611fd6565b6001600160e01b03191663757a42ff60e11b01612020575038808080611f44565b633250574960e11b60005260045260246000fd5b6020813d60201161206f575b8161204d60209383611aa6565b810103126101b05751906001600160e01b0319821682036101b2575038611fa6565b3d9150612040565b61208081612143565b5060005260066020526040600020604051908160008254926120a184611c03565b808452936001811690811561212157506001146120da575b506120c692500382611aa6565b60006040516120d6602082611aa6565b5290565b90506000929192526020600020906000915b8183106121055750509060206120c692820101386120b9565b60209193508060019154838588010152019101909183926120ec565b9050602092506120c694915060ff191682840152151560051b820101386120b9565b6000818152600260205260409020546001600160a01b0316908115612166575090565b637e27328960e01b60005260045260246000fd5b90928215610995577f181a47b5695555f517b1a68c10fcf517a29223f2036c9e3871a63f8ffa6c58319160a0916009549485916121b683611f21565b600955600180861b031692604051906121ce82611a75565b83825261228a600560208401938b8552604081018881526060820130815260808301918883528b8401976000895260c08501976001808f1b03169a8b8952600052600c6020526040600020945185555160018501556001808d1b0390511660028401906001808e1b03166001600160601b038d1b8254161790556001808c1b0390511660038301906001808d1b03166001600160601b038c1b8254161790555160048201550192511515839060ff801983541691151516179055565b518154610100600160a81b03191660089190911b610100600160a81b031617905560408051938452306020850152830152600060608301526080820152a356fe6080604052346104eb5761170f80380380610019816104f0565b92833981016060828203126104eb5781516001600160401b0381116104eb5781610044918401610515565b60208301519092906001600160401b0381116104eb5782610066918301610515565b60408201519092906001600160401b0381116104eb576100869201610515565b82516001600160401b03811161030157600054600181811c911680156104e1575b60208210146102e157601f811161047d575b506020601f8211600114610417578192939460009261040c575b50508160011b916000199060031b1c1916176000555b81516001600160401b03811161030157600154600181811c91168015610402575b60208210146102e157601f811161039d575b50602092601f8211600114610338579281929360009261032d575b50508160011b916000199060031b1c1916176001555b33156103175760078054336001600160a01b0319821681179092556001600160a01b03167f8be0079c531659141344cd1fd0a4f28419497f9722a3daafe3b4186f6b6457e0600080a3600060085580516001600160401b03811161030157600954600181811c911680156102f7575b60208210146102e157601f811161027c575b50602091601f82116001146102185791819260009261020d575b50508160011b916000199060031b1c1916176009555b60405161118e90816105818239f35b0151905038806101e8565b601f198216926009600052806000209160005b8581106102645750836001951061024b575b505050811b016009556101fe565b015160001960f88460031b161c1916905538808061023d565b9192602060018192868501518155019401920161022b565b60096000527f6e1540171b6c0c960b71a7020d9f60077f6af931a8bbf590da0223dacf75c7af601f830160051c810191602084106102d7575b601f0160051c01905b8181106102cb57506101ce565b600081556001016102be565b90915081906102b5565b634e487b7160e01b600052602260045260246000fd5b90607f16906101bc565b634e487b7160e01b600052604160045260246000fd5b631e4fbdf760e01b600052600060045260246000fd5b015190503880610137565b601f198216936001600052806000209160005b868110610385575083600195961061036c575b505050811b0160015561014d565b015160001960f88460031b161c1916905538808061035e565b9192602060018192868501518155019401920161034b565b60016000527fb10e2d527612073b26eecdfd717e6a320cf44b4afac2b0732d9fcbe2b7fa0cf6601f830160051c810191602084106103f8575b601f0160051c01905b8181106103ec575061011c565b600081556001016103df565b90915081906103d6565b90607f169061010a565b0151905038806100d3565b601f1982169060008052806000209160005b8181106104655750958360019596971061044c575b505050811b016000556100e9565b015160001960f88460031b161c1916905538808061043e565b9192602060018192868b015181550194019201610429565b600080527f290decd9548b62a8d60345a988386fc84ba6bc95484008f6362f93160ef3e563601f830160051c810191602084106104d7575b601f0160051c01905b8181106104cb57506100b9565b600081556001016104be565b90915081906104b5565b90607f16906100a7565b600080fd5b6040519190601f01601f191682016001600160401b0381118382101761030157604052565b81601f820112156104eb578051906001600160401b03821161030157610544601f8301601f19166020016104f0565b92828452602083830101116104eb5760005b82811061056b57505060206000918301015290565b8060208092840101518282870101520161055656fe608080604052600436101561001357600080fd5b60003560e01c90816301ffc9a714610b135750806306fdde0314610a6e578063081812fc14610a30578063095ea7b31461094157806323b872dd1461092a5780633c130d901461090e57806342842e0e146108de57806354ba0f27146105165780636352211e146104e657806370a0823114610490578063715018a6146104335780638da5cb5b1461040a57806395d89b411461033d578063a22cb4651461029c578063b88d4fde14610206578063c87b56dd146101cf578063e985e9c5146101745763f2fde38b146100e557600080fd5b3461016f57602036600319011261016f576100fe610bd7565b610106611007565b6001600160a01b0316801561015957600780546001600160a01b0319811683179091556001600160a01b03167f8be0079c531659141344cd1fd0a4f28419497f9722a3daafe3b4186f6b6457e0600080a3005b631e4fbdf760e01b600052600060045260246000fd5b600080fd5b3461016f57604036600319011261016f5761018d610bd7565b610195610bed565b9060018060a01b0316600052600560205260406000209060018060a01b0316600052602052602060ff604060002054166040519015158152f35b3461016f57602036600319011261016f576102026101ee600435610f04565b604051918291602083526020830190610b98565b0390f35b3461016f57608036600319011261016f5761021f610bd7565b610227610bed565b906044356064359267ffffffffffffffff841161016f573660238501121561016f5783600401359261025884610d52565b936102666040519586610c77565b808552366024828801011161016f57602081600092602461029a99018389013786010152610295838383610d6e565b611030565b005b3461016f57604036600319011261016f576102b5610bd7565b6024359081151580920361016f576001600160a01b031690811561032857336000526005602052604060002082600052602052604060002060ff1981541660ff83161790556040519081527f17307eab39ab6107e8899845ad3d59bd9653f200f220920489ca2b5937696c3160203392a3005b50630b61174360e31b60005260045260246000fd5b3461016f57600036600319011261016f57604051600060015461035f81610c3d565b80845290600181169081156103e65750600114610387575b610202836101ee81850382610c77565b600160009081527fb10e2d527612073b26eecdfd717e6a320cf44b4afac2b0732d9fcbe2b7fa0cf6939250905b8082106103cc575090915081016020016101ee610377565b9192600181602092548385880101520191019092916103b4565b60ff191660208086019190915291151560051b840190910191506101ee9050610377565b3461016f57600036600319011261016f576007546040516001600160a01b039091168152602090f35b3461016f57600036600319011261016f5761044c611007565b600780546001600160a01b031981169091556000906001600160a01b03167f8be0079c531659141344cd1fd0a4f28419497f9722a3daafe3b4186f6b6457e08280a3005b3461016f57602036600319011261016f576001600160a01b036104b1610bd7565b1680156104d05760005260036020526020604060002054604051908152f35b6322718ad960e21b600052600060045260246000fd5b3461016f57602036600319011261016f576020610504600435610fd0565b6040516001600160a01b039091168152f35b602036600319011261016f5761052a610bd7565b60085460001981146108c8576001018060085560209060405161054d8382610c77565b600081526001600160a01b0384169384156108b25760008381526002855260018060a01b036040822054168487827fddf252ad1be2c89b69c2b068fc378daa952ba7f163c4a11628f55a4df523b3ef811515958661087e575b83815260038b5260408082208054600101905585825260028c52812080546001600160a01b0319168517905580a450610868573b610749575b509091506105eb610c99565b9080600052600683526040600020825167ffffffffffffffff8111610733576106148254610c3d565b601f81116106ed575b508493601f821160011461068957938192939460009261067e575b50508160011b916000199060031b1c19161790555b7ff8e1a15aba9398e019f0b49df1a4fde98ee17ae345cb5f6b5e2c27f5033e8ce782604051838152a1604051908152f35b015190508580610638565b601f1982169483600052866000209160005b888882106106d7575050836001959697106106be575b505050811b01905561064d565b015160001960f88460031b161c191690558580806106b1565b600184958293958501518155019401920161069b565b8260005285600020601f830160051c810191878410610729575b601f0160051c01905b81811061071d575061061d565b60008155600101610710565b9091508190610707565b634e487b7160e01b600052604160045260246000fd5b826107839160405180938192630a85bd0160e11b835233600484015260006024840152866044840152608060648401526084830190610b98565b03816000885af18091600091610823575b50906107eb5750503d156107e4573d6107ac81610d52565b906107ba6040519283610c77565b81523d60008383013e5b805191826107e15783633250574960e11b60005260045260246000fd5b01fd5b60606107c4565b919290916001600160e01b03191663757a42ff60e11b0161080f57508190836105df565b633250574960e11b60005260045260246000fd5b8481813d8311610861575b6108388183610c77565b8101031261085d5751906001600160e01b03198216820361085a575085610794565b80fd5b5080fd5b503d61082e565b6339e3563760e11b600052600060045260246000fd5b600085815260046020526040902080546001600160a01b031916905582815260038b526040812080546000190190556105a6565b633250574960e11b600052600060045260246000fd5b634e487b7160e01b600052601160045260246000fd5b3461016f5761029a6108ef36610c03565b90604051926108ff602085610c77565b60008452610295838383610d6e565b3461016f57600036600319011261016f576102026101ee610c99565b3461016f5761029a61093b36610c03565b91610d6e565b3461016f57604036600319011261016f5761095a610bd7565b60243561096681610fd0565b33151580610a1d575b806109ef575b6109da5781906001600160a01b0384811691167f8c5be1e5ebec7d5bd14f71427d1e84f3dd0314c0f7b2291e5b200ac8c7c3b925600080a4600090815260046020526040902080546001600160a01b0319166001600160a01b03909216919091179055005b63a9fbf51f60e01b6000523360045260246000fd5b506001600160a01b038116600090815260056020908152604080832033845290915290205460ff1615610975565b506001600160a01b03811633141561096f565b3461016f57602036600319011261016f57600435610a4d81610fd0565b506000526004602052602060018060a01b0360406000205416604051908152f35b3461016f57600036600319011261016f5760405160008054610a8f81610c3d565b80845290600181169081156103e65750600114610ab657610202836101ee81850382610c77565b60008080527f290decd9548b62a8d60345a988386fc84ba6bc95484008f6362f93160ef3e563939250905b808210610af9575090915081016020016101ee610377565b919260018160209254838588010152019101909291610ae1565b3461016f57602036600319011261016f576004359063ffffffff60e01b821680920361016f57602091632483248360e11b8114908115610b55575b5015158152f35b6380ac58cd60e01b811491508115610b87575b8115610b76575b5083610b4e565b6301ffc9a760e01b14905083610b6f565b635b5e139f60e01b81149150610b68565b919082518082526020808301940160005b828110610bc7575050600081602094950152601f8019910116010190565b8181015186820152602001610ba9565b600435906001600160a01b038216820361016f57565b602435906001600160a01b038216820361016f57565b606090600319011261016f576004356001600160a01b038116810361016f57906024356001600160a01b038116810361016f579060443590565b90600182811c92168015610c6d575b6020831014610c5757565b634e487b7160e01b600052602260045260246000fd5b91607f1691610c4c565b90601f8019910116810190811067ffffffffffffffff82111761073357604052565b6040519060008260095491610cad83610c3d565b8083529260018116908115610d335750600114610cd3575b610cd192500383610c77565b565b506009600090815290917f6e1540171b6c0c960b71a7020d9f60077f6af931a8bbf590da0223dacf75c7af5b818310610d17575050906020610cd192820101610cc5565b6020919350806001915483858901015201910190918492610cff565b60209250610cd194915060ff191682840152151560051b820101610cc5565b67ffffffffffffffff811161073357601f01601f191660200190565b6001600160a01b03909116919082156108b2576000828152600260205260408120546001600160a01b0316938391859033151580610e6c575b507fddf252ad1be2c89b69c2b068fc378daa952ba7f163c4a11628f55a4df523b3ef9082610e37575b83815260036020526040812060018154019055848152600260205260408120846bffffffffffffffffffffffff60a01b82541617905580a46001600160a01b0316808303610e1d57505050565b6364283d7b60e01b60005260045260245260445260646000fd5b600085815260046020526040902080546001600160a01b03191690558281526003602052604081208054600019019055610dd0565b915091925080610eb5575b15610e86579084849238610da7565b839085610e9f57602491637e27328960e01b8252600452fd5b60449163177e802f60e01b825233600452602452fd5b503385148015610ee3575b80610e775750838152600460205260408120546001600160a01b03163314610e77565b5084815260056020908152604080832033845290915281205460ff16610ec0565b610f0d81610fd0565b506000526006602052604060002060405190816000825492610f2e84610c3d565b8084529360018116908115610fae5750600114610f67575b50610f5392500382610c77565b6000604051610f63602082610c77565b5290565b90506000929192526020600020906000915b818310610f92575050906020610f539282010138610f46565b6020919350806001915483858801015201910190918392610f79565b905060209250610f5394915060ff191682840152151560051b82010138610f46565b6000818152600260205260409020546001600160a01b0316908115610ff3575090565b637e27328960e01b60005260045260246000fd5b6007546001600160a01b0316330361101b57565b63118cdaa760e01b6000523360045260246000fd5b9291813b61103f575b50505050565b604051630a85bd0160e11b81523360048201526001600160a01b039485166024820152604481019190915260806064820152921691906020908290819061108a906084830190610b98565b03816000865af18091600091611115575b50906110f457503d156110ed573d6110b281610d52565b906110c06040519283610c77565b81523d6000602083013e5b805190816110e85782633250574960e11b60005260045260246000fd5b602001fd5b60606110cb565b6001600160e01b03191663757a42ff60e11b0161080f575038808080611039565b6020813d602011611150575b8161112e60209383610c77565b8101031261085d5751906001600160e01b03198216820361085a57503861109b565b3d915061112156fea2646970667358221220ed0868a212c0f14e57f85f5173fc3b880e852064d88813651af1919b1165a88b64736f6c634300081c0033a264697066735822122008afe13061dc4e494ed40e8625240b30eb5c962e0368a15177ae7e1fdf1b11e364736f6c634300081c0033",
  "linkReferences": {},
  "deployedLinkReferences": {}
}