{
  "_format": "hh-sol-artifact-1",
  "contractName": "HistoricalArts",
  "sourceName": "contracts/HistoricalArts.sol",
  "abi": [
    {
      "inputs": [],
      "stateMutability": "nonpayable",
      "type": "constructor"
    },
    {
      "inputs": [
        {
          "internalType": "address",
          "name": "sender",
          "type": "address"
        },
        {
          "internalType": "uint256",
          "name": "tokenId",
          "type": "uint256"
        },
        {
          "internalType": "address",
          "name": "owner",
          "type": "address"
        }
      ],
      "name": "ERC721IncorrectOwner",
      "type": "error"
    },
    {
      "inputs": [
        {
          "internalType": "address",
          "name": "operator",
          "type": "address"
        },
        {
          "internalType": "uint256",
          "name": "tokenId",
          "type": "uint256"
        }
      ],
      "name": "ERC721InsufficientApproval",
      "type": "error"
    },
    {
      "inputs": [
        {
          "internalType": "address",
          "name": "approver",
          "type": "address"
        }
      ],
      "name": "ERC721InvalidApprover",
      "type": "error"
    },
    {
      "inputs": [
        {
          "internalType": "address",
          "name": "operator",
          "type": "address"
        }
      ],
      "name": "ERC721InvalidOperator",
      "type": "error"
    },
    {
      "inputs": [
        {
          "internalType": "address",
          "name": "owner",
          "type": "address"
        }
      ],
      "name": "ERC721InvalidOwner",
      "type": "error"
    },
    {
      "inputs": [
        {
          "internalType": "address",
          "name": "receiver",
          "type": "address"
        }
      ],
      "name": "ERC721InvalidReceiver",
      "type": "error"
    },
    {
      "inputs": [
        {
          "internalType": "address",
          "name": "sender",
          "type": "address"
        }
      ],
      "name": "ERC721InvalidSender",
      "type": "error"
    },
    {
      "inputs": [
        {
          "internalType": "uint256",
          "name": "tokenId",
          "type": "uint256"
        }
      ],
      "name": "ERC721NonexistentToken",
      "type": "error"
    },
    {
      "anonymous": false,
      "inputs": [
        {
          "indexed": true,
          "internalType": "address",
          "name": "owner",
          "type": "address"
        },
        {
          "indexed": true,
          "internalType": "address",
          "name": "approved",
          "type": "address"
        },
        {
          "indexed": true,
          "internalType": "uint256",
          "name": "tokenId",
          "type": "uint256"
        }
      ],
      "name": "Approval",
      "type": "event"
    },
    {
      "anonymous": false,
      "inputs": [
        {
          "indexed": true,
          "internalType": "address",
          "name": "owner",
          "type": "address"
        },
        {
          "indexed": true,
          "internalType": "address",
          "name": "operator",
          "type": "address"
        },
        {
          "indexed": false,
          "internalType": "bool",
          "name": "approved",
          "type": "bool"
        }
      ],
      "name": "ApprovalForAll",
      "type": "event"
    },
    {
      "anonymous": false,
      "inputs": [
        {
          "indexed": false,
          "internalType": "uint256",
          "name": "_fromTokenId",
          "type": "uint256"
        },
        {
          "indexed": false,
          "internalType": "uint256",
          "name": "_toTokenId",
          "type": "uint256"
        }
      ],
      "name": "BatchMetadataUpdate",
      "type": "event"
    },
    {
      "anonymous": false,
      "inputs": [
        {
          "indexed": false,
          "internalType": "uint256",
          "name": "_tokenId",
          "type": "uint256"
        }
      ],
      "name": "MetadataUpdate",
      "type": "event"
    },
    {
      "anonymous": false,
      "inputs": [
        {
          "indexed": true,
          "internalType": "address",
          "name": "from",
          "type": "address"
        },
        {
          "indexed": true,
          "internalType": "address",
          "name": "to",
          "type": "address"
        },
        {
          "indexed": true,
          "internalType": "uint256",
          "name": "tokenId",
          "type": "uint256"
        }
      ],
      "name": "Transfer",
      "type": "event"
    },
    {
      "anonymous": false,
      "inputs": [
        {
          "indexed": true,
          "internalType": "uint256",
          "name": "tokenId",
          "type": "uint256"
        },
        {
          "indexed": false,
          "internalType": "address",
          "name": "seller",
          "type": "address"
        },
        {
          "indexed": false,
          "internalType": "address",
          "name": "owner",
          "type": "address"
        },
        {
          "indexed": false,
          "internalType": "uint256",
          "name": "price",
          "type": "uint256"
        },
        {
          "indexed": false,
          "internalType": "bool",
          "name": "sold",
          "type": "bool"
        },
        {
          "indexed": false,
          "internalType": "address",
          "name": "nftContract",
          "type": "address"
        }
      ],
      "name": "idMarketItemCreated",
      "type": "event"
    },
    {
      "inputs": [
        {
          "internalType": "address",
          "name": "to",
          "type": "address"
        },
        {
          "internalType": "uint256",
          "name": "tokenId",
          "type": "uint256"
        }
      ],
      "name": "approve",
      "outputs": [],
      "stateMutability": "nonpayable",
      "type": "function"
    },
    {
      "inputs": [
        {
          "internalType": "address",
          "name": "owner",
          "type": "address"
        }
      ],
      "name": "balanceOf",
      "outputs": [
        {
          "internalType": "uint256",
          "name": "",
          "type": "uint256"
        }
      ],
      "stateMutability": "view",
      "type": "function"
    },
    {
      "inputs": [
        {
          "internalType": "string",
          "name": "name",
          "type": "string"
        },
        {
          "internalType": "string",
          "name": "imageURL",
          "type": "string"
        },
        {
          "internalType": "string",
          "name": "description",
          "type": "string"
        }
      ],
      "name": "createCreator",
      "outputs": [],
      "stateMutability": "nonpayable",
      "type": "function"
    },
    {
      "inputs": [
        {
          "internalType": "uint256",
          "name": "tokenId",
          "type": "uint256"
        }
      ],
      "name": "createMarketSale",
      "outputs": [],
      "stateMutability": "payable",
      "type": "function"
    },
    {
      "inputs": [
        {
          "internalType": "string",
          "name": "tokenURI",
          "type": "string"
        },
        {
          "internalType": "uint256",
          "name": "price",
          "type": "uint256"
        }
      ],
      "name": "createToken",
      "outputs": [
        {
          "internalType": "uint256",
          "name": "",
          "type": "uint256"
        }
      ],
      "stateMutability": "payable",
      "type": "function"
    },
    {
      "inputs": [],
      "name": "fetchItemsListed",
      "outputs": [
        {
          "components": [
            {
              "internalType": "uint256",
              "name": "tokenId",
              "type": "uint256"
            },
            {
              "internalType": "address payable",
              "name": "seller",
              "type": "address"
            },
            {
              "internalType": "address payable",
              "name": "owner",
              "type": "address"
            },
            {
              "internalType": "uint256",
              "name": "price",
              "type": "uint256"
            },
            {
              "internalType": "bool",
              "name": "sold",
              "type": "bool"
            },
            {
              "internalType": "address",
              "name": "nftContract",
              "type": "address"
            }
          ],
          "internalType": "struct HistoricalArts.MarketItem[]",
          "name": "",
          "type": "tuple[]"
        }
      ],
      "stateMutability": "view",
      "type": "function"
    },
    {
      "inputs": [],
      "name": "fetchMarketItems",
      "outputs": [
        {
          "components": [
            {
              "internalType": "uint256",
              "name": "tokenId",
              "type": "uint256"
            },
            {
              "internalType": "address payable",
              "name": "seller",
              "type": "address"
            },
            {
              "internalType": "address payable",
              "name": "owner",
              "type": "address"
            },
            {
              "internalType": "uint256",
              "name": "price",
              "type": "uint256"
            },
            {
              "internalType": "bool",
              "name": "sold",
              "type": "bool"
            },
            {
              "internalType": "address",
              "name": "nftContract",
              "type": "address"
            }
          ],
          "internalType": "struct HistoricalArts.MarketItem[]",
          "name": "",
          "type": "tuple[]"
        }
      ],
      "stateMutability": "view",
      "type": "function"
    },
    {
      "inputs": [],
      "name": "fetchMyArt",
      "outputs": [
        {
          "components": [
            {
              "internalType": "uint256",
              "name": "tokenId",
              "type": "uint256"
            },
            {
              "internalType": "address payable",
              "name": "seller",
              "type": "address"
            },
            {
              "internalType": "address payable",
              "name": "owner",
              "type": "address"
            },
            {
              "internalType": "uint256",
              "name": "price",
              "type": "uint256"
            },
            {
              "internalType": "bool",
              "name": "sold",
              "type": "bool"
            },
            {
              "internalType": "address",
              "name": "nftContract",
              "type": "address"
            }
          ],
          "internalType": "struct HistoricalArts.MarketItem[]",
          "name": "",
          "type": "tuple[]"
        }
      ],
      "stateMutability": "view",
      "type": "function"
    },
    {
      "inputs": [
        {
          "internalType": "uint256",
          "name": "tokenId",
          "type": "uint256"
        }
      ],
      "name": "getApproved",
      "outputs": [
        {
          "internalType": "address",
          "name": "",
          "type": "address"
        }
      ],
      "stateMutability": "view",
      "type": "function"
    },
    {
      "inputs": [],
      "name": "getListingPrice",
      "outputs": [
        {
          "internalType": "uint256",
          "name": "",
          "type": "uint256"
        }
      ],
      "stateMutability": "view",
      "type": "function"
    },
    {
      "inputs": [
        {
          "internalType": "address",
          "name": "owner",
          "type": "address"
        },
        {
          "internalType": "address",
          "name": "operator",
          "type": "address"
        }
      ],
      "name": "isApprovedForAll",
      "outputs": [
        {
          "internalType": "bool",
          "name": "",
          "type": "bool"
        }
      ],
      "stateMutability": "view",
      "type": "function"
    },
    {
      "inputs": [
        {
          "internalType": "address",
          "name": "nftContract",
          "type": "address"
        },
        {
          "internalType": "uint256",
          "name": "tokenId",
          "type": "uint256"
        },
        {
          "internalType": "uint256",
          "name": "price",
          "type": "uint256"
        }
      ],
      "name": "listExistingNFT",
      "outputs": [],
      "stateMutability": "payable",
      "type": "function"
    },
    {
      "inputs": [],
      "name": "listingPrice",
      "outputs": [
        {
          "internalType": "uint256",
          "name": "",
          "type": "uint256"
        }
      ],
      "stateMutability": "view",
      "type": "function"
    },
    {
      "inputs": [],
      "name": "name",
      "outputs": [
        {
          "internalType": "string",
          "name": "",
          "type": "string"
        }
      ],
      "stateMutability": "view",
      "type": "function"
    },
    {
      "inputs": [
        {
          "internalType": "address",
          "name": "",
          "type": "address"
        },
        {
          "internalType": "address",
          "name": "",
          "type": "address"
        },
        {
          "internalType": "uint256",
          "name": "",
          "type": "uint256"
        },
        {
          "internalType": "bytes",
          "name": "",
          "type": "bytes"
        }
      ],
      "name": "onERC721Received",
      "outputs": [
        {
          "internalType": "bytes4",
          "name": "",
          "type": "bytes4"
        }
      ],
      "stateMutability": "nonpayable",
      "type": "function"
    },
    {
      "inputs": [],
      "name": "owner",
      "outputs": [
        {
          "internalType": "address payable",
          "name": "",
          "type": "address"
        }
      ],
      "stateMutability": "view",
      "type": "function"
    },
    {
      "inputs": [
        {
          "internalType": "uint256",
          "name": "tokenId",
          "type": "uint256"
        }
      ],
      "name": "ownerOf",
      "outputs": [
        {
          "internalType": "address",
          "name": "",
          "type": "address"
        }
      ],
      "stateMutability": "view",
      "type": "function"
    },
    {
      "inputs": [
        {
          "internalType": "address",
          "name": "nftContract",
          "type": "address"
        },
        {
          "internalType": "uint256",
          "name": "tokenId",
          "type": "uint256"
        },
        {
          "internalType": "uint256",
          "name": "price",
          "type": "uint256"
        }
      ],
      "name": "reSellToken",
      "outputs": [],
      "stateMutability": "payable",
      "type": "function"
    },
    {
      "inputs": [
        {
          "internalType": "address",
          "name": "from",
          "type": "address"
        },
        {
          "internalType": "address",
          "name": "to",
          "type": "address"
        },
        {
          "internalType": "uint256",
          "name": "tokenId",
          "type": "uint256"
        }
      ],
      "name": "safeTransferFrom",
      "outputs": [],
      "stateMutability": "nonpayable",
      "type": "function"
    },
    {
      "inputs": [
        {
          "internalType": "address",
          "name": "from",
          "type": "address"
        },
        {
          "internalType": "address",
          "name": "to",
          "type": "address"
        },
        {
          "internalType": "uint256",
          "name": "tokenId",
          "type": "uint256"
        },
        {
          "internalType": "bytes",
          "name": "data",
          "type": "bytes"
        }
      ],
      "name": "safeTransferFrom",
      "outputs": [],
      "stateMutability": "nonpayable",
      "type": "function"
    },
    {
      "inputs": [
        {
          "internalType": "address",
          "name": "operator",
          "type": "address"
        },
        {
          "internalType": "bool",
          "name": "approved",
          "type": "bool"
        }
      ],
      "name": "setApprovalForAll",
      "outputs": [],
      "stateMutability": "nonpayable",
      "type": "function"
    },
    {
      "inputs": [
        {
          "internalType": "bytes4",
          "name": "interfaceId",
          "type": "bytes4"
        }
      ],
      "name": "supportsInterface",
      "outputs": [
        {
          "internalType": "bool",
          "name": "",
          "type": "bool"
        }
      ],
      "stateMutability": "view",
      "type": "function"
    },
    {
      "inputs": [],
      "name": "symbol",
      "outputs": [
        {
          "internalType": "string",
          "name": "",
          "type": "string"
        }
      ],
      "stateMutability": "view",
      "type": "function"
    },
    {
      "inputs": [
        {
          "internalType": "uint256",
          "name": "tokenId",
          "type": "uint256"
        }
      ],
      "name": "tokenURI",
      "outputs": [
        {
          "internalType": "string",
          "name": "",
          "type": "string"
        }
      ],
      "stateMutability": "view",
      "type": "function"
    },
    {
      "inputs": [
        {
          "internalType": "address",
          "name": "from",
          "type": "address"
        },
        {
          "internalType": "address",
          "name": "to",
          "type": "address"
        },
        {
          "internalType": "uint256",
          "name": "tokenId",
          "type": "uint256"
        }
      ],
      "name": "transferFrom",
      "outputs": [],
      "stateMutability": "nonpayable",
      "type": "function"
    },
    {
      "inputs": [
        {
          "internalType": "uint256",
          "name": "_listingPrice",
          "type": "uint256"
        }
      ],
      "name": "updateListingPrice",
      "outputs": [],
      "stateMutability": "payable",
      "type": "function"
    }
  ],
  "bytecode": "0x60806040523461035557604080519081016001600160401b03811182821017610262576040908152601482527f486973746f726963616c2041525420546f6b656e000000000000000000000000602083015280519081016001600160401b0381118282101761026257604052600381526212105560ea1b602082015281516001600160401b03811161026257600054600181811c9116801561034b575b602082101461024257601f81116102e7575b50602092601f82116001146102835792819293600092610278575b50508160011b916000199060031b1c1916176000555b80516001600160401b03811161026257600154600181811c91168015610258575b602082101461024257601f81116101dd575b50602091601f82116001146101795791819260009261016e575b50508160011b916000199060031b1c1916176001555b6608e1bc9bf04000600955600a80546001600160a01b03191633179055604051612089908161035b8239f35b01519050388061012c565b601f198216926001600052806000209160005b8581106101c5575083600195106101ac575b505050811b01600155610142565b015160001960f88460031b161c1916905538808061019e565b9192602060018192868501518155019401920161018c565b60016000527fb10e2d527612073b26eecdfd717e6a320cf44b4afac2b0732d9fcbe2b7fa0cf6601f830160051c81019160208410610238575b601f0160051c01905b81811061022c5750610112565b6000815560010161021f565b9091508190610216565b634e487b7160e01b600052602260045260246000fd5b90607f1690610100565b634e487b7160e01b600052604160045260246000fd5b0151905038806100c9565b601f1982169360008052806000209160005b8681106102cf57508360019596106102b6575b505050811b016000556100df565b015160001960f88460031b161c191690553880806102a8565b91926020600181928685015181550194019201610295565b600080527f290decd9548b62a8d60345a988386fc84ba6bc95484008f6362f93160ef3e563601f830160051c81019160208410610341575b601f0160051c01905b81811061033557506100ae565b60008155600101610328565b909150819061031f565b90607f169061009c565b600080fdfe608080604052600436101561001357600080fd5b600090813560e01c90816301ffc9a71461163f5750806306fdde031461159a578063081812fc1461155d578063095ea7b3146114755780630f08efe01461137357806312e85585146101e2578063150b7a021461134f57806323b872dd1461133757806342842e0e1461130d57806345f8fa80146111c85780636352211e14611197578063671dcfaf146110eb57806370a082311461109857806372b3b62014610df257806384fcd6171461094257806386591f28146107d55780638da5cb5b146107ac57806395d89b41146106dd578063a010c4fd14610568578063a22cb465146104bb578063ae677aa314610428578063b88d4fde1461040a578063be9af53614610200578063c78f19f9146101e2578063c87b56dd146101aa5763e985e9c51461013f57600080fd5b346101a75760403660031901126101a757610158611705565b60243591906001600160a01b03831683036101a5579060409160018060a01b031681526005602052209060018060a01b0316600052602052602060ff604060002054166040519015158152f35b505b80fd5b50346101a75760203660031901126101a7576101de6101ca600435611dd4565b6040519182916020835260208301906116c6565b0390f35b50346101a757806003193601126101a7576020600954604051908152f35b5060203660031901126101a757600435808252600b602052600360408320015434036103b157808252600b6020818152604080852060019081015485875284845282872060020180546001600160a01b03191633179055858752939092528420600401805460ff191690911790556008546001600160a01b039190911691839161028990611c68565b6008908155818352600b6020526040832060040154901c6001600160a01b0316803b156103ad576040516323b872dd60e01b8152306004820152336024820152604481019290925282908290606490829084905af180156103a25761038d575b50600a546009548291829182916001600160a01b0316828215610384575bf11561036e578180341561037b575b81808092853491f11561036e57808252600d602052604082206103398154611c68565b90558152600c6020526004604082200180549034820180921161035a575580f35b634e487b7160e01b83526011600452602483fd5b50604051903d90823e3d90fd5b506108fc610316565b506108fc610307565b81610397916117d2565b6101a55781386102e9565b6040513d84823e3d90fd5b8280fd5b60405162461bcd60e51b815260206004820152602b60248201527f5375626d69742061736b696e6720707269636520746f20636f6d706c6574652060448201526a3a3930b739b0b1ba34b7b760a91b6064820152608490fd5b50346101a75761042561041c36611845565b92919091611c8d565b80f35b5060203660031901126101a757600a546001600160a01b031633036104505760043560095580f35b60405162461bcd60e51b815260206004820152603760248201527f4f6e6c7920746865206d61726b6574706c616365206f776e65722063616e206360448201527f68616e676520746865206c697374696e672070726963650000000000000000006064820152608490fd5b50346101a75760403660031901126101a7576104d5611705565b6024359081151590818303610564576001600160a01b031691821561055057610521903385526005602052604085208460005260205260406000209060ff801983541691151516179055565b6040519081527f17307eab39ab6107e8899845ad3d59bd9653f200f220920489ca2b5937696c3160203392a380f35b630b61174360e31b84526004839052602484fd5b8380fd5b50610572366118ea565b929192338352600c60205261059060ff600360408620015416611bcb565b818352600b6020526040832060020154336001600160a01b039091160361068e576105be6009543414611c23565b818352600b60208181526040808620600401805460ff191690558486528282528086206003019390935583855281815282852060010180546001600160a01b0319908116331790915584865291905290832060020180549091163017905560085492831561035a5782936000190160085560018060a01b0316803b1561068a576040516323b872dd60e01b8152336004820152306024820152604481019290925282908290606490829084905af180156103a2576106795750f35b81610683916117d2565b6101a75780f35b5050fd5b60405162461bcd60e51b815260206004820152602160248201527f4f6e6c7920746865206974656d206f776e65722063616e20726573656c6c20696044820152601d60fa1b6064820152608490fd5b50346101a757806003193601126101a7576040519080600154906107008261192f565b80855291600181169081156107855750600114610728575b6101de846101ca818603826117d2565b600181527fb10e2d527612073b26eecdfd717e6a320cf44b4afac2b0732d9fcbe2b7fa0cf6939250905b80821061076b575090915081016020016101ca82610718565b919260018160209254838588010152019101909291610752565b60ff191660208087019190915292151560051b850190920192506101ca9150839050610718565b50346101a757806003193601126101a757600a546040516001600160a01b039091168152602090f35b50346101a757806003193601126101a757600754819081805b8281106108fe57506107ff90611980565b9183905b82821061081857604051806101de8682611720565b600182018083116108ea57808652600b60205260408620600201546001600160a01b0316331461084e575b509060010190610803565b8552600b60205260408520600460405191610868836117a1565b8054835260018101546001600160a01b0390811660208501526002820154811660408501526003820154606085015291015460ff81161515608084015260081c1660a08201526108b882866119fa565b526108c381856119fa565b50600181018091116108d6576001610843565b634e487b7160e01b85526011600452602485fd5b634e487b7160e01b86526011600452602486fd5b600181018082116108ea578552600b60205260408520600201546001600160a01b03163314610930575b6001016107ee565b90600181018091116108d65790610928565b50346101a75760603660031901126101a7576004356001600160401b0381116101a557610973903690600401611914565b6024356001600160401b0381116103ad57610992903690600401611914565b6044356001600160401b038111610564576109b1903690600401611914565b338452600c60205260ff600360408620015416610dad576040519260a084018481106001600160401b03821117610d9957604052835260208301918252604083019081526060830190600182526080840192858452338652600c6020526040862094518051906001600160401b038211610cc7578190610a31885461192f565b601f8111610d49575b50602090601f8311600114610ce6578992610cdb575b50508160011b916000199060031b1c19161785555b51805160018601916001600160401b038211610cc7578190610a87845461192f565b601f8111610c77575b50602090601f8311600114610c14578992610c09575b50508160011b916000199060031b1c19161790555b51805160028501916001600160401b038211610bf557610adb835461192f565b601f8111610bb0575b50602090601f8311600114610b45579180610b33949260049796948a92610b3a575b50508160011b916000199060031b1c19161790555b511515600385019060ff801983541691151516179055565b5191015580f35b015190503880610b06565b8388528188209190601f198416895b818110610b9857509260019285926004999896610b33989610610b7f575b505050811b019055610b1b565b015160001960f88460031b161c19169055388080610b72565b92936020600181928786015181550195019301610b54565b83885260208820601f840160051c81019160208510610beb575b601f0160051c01905b818110610be05750610ae4565b888155600101610bd3565b9091508190610bca565b634e487b7160e01b87526041600452602487fd5b015190503880610aa6565b848a52818a209250601f1984168a5b818110610c5f5750908460019594939210610c46575b505050811b019055610abb565b015160001960f88460031b161c19169055388080610c39565b92936020600181928786015181550195019301610c23565b90915083895260208920601f840160051c81019160208510610cbd575b90601f859493920160051c01905b818110610caf5750610a90565b8a8155849350600101610ca2565b9091508190610c94565b634e487b7160e01b88526041600452602488fd5b015190503880610a50565b888a52818a209250601f1984168a5b818110610d315750908460019594939210610d18575b505050811b018555610a65565b015160001960f88460031b161c19169055388080610d0b565b92936020600181928786015181550195019301610cf5565b90915087895260208920601f840160051c81019160208510610d8f575b90601f859493920160051c01905b818110610d815750610a3a565b8a8155849350600101610d74565b9091508190610d66565b634e487b7160e01b86526041600452602486fd5b60405162461bcd60e51b815260206004820152601a60248201527f43726561746f7220616c726561647920726567697374657265640000000000006044820152606490fd5b5060403660031901126101a7576004356001600160401b0381116101a557610e1e903690600401611914565b338252600c602052610e3960ff600360408520015416611bcb565b610e466009543414611c23565b600754610e5281611c68565b600755331561108457808352600260205260408320546001600160a01b0316801515908161104f575b33808652600360209081526040808820805460010190558588526002909152862080546001600160a01b031916821790558390827fddf252ad1be2c89b69c2b068fc378daa952ba7f163c4a11628f55a4df523b3ef8880a45061103b5780835260066020526040832082516001600160401b03811161102757610efe825461192f565b601f8111610fe2575b5060209485906001601f841114610f8257948293949592610f77575b50508160011b916000199060031b1c19161790555b7ff8e1a15aba9398e019f0b49df1a4fde98ee17ae345cb5f6b5e2c27f5033e8ce782604051838152a1610f6f336024358330611ed7565b604051908152f35b015190503880610f23565b90601f19831695848352818320925b878110610fcb575083600195969710610fb2575b505050811b019055610f38565b015160001960f88460031b161c19169055388080610fa5565b919288600181928685015181550194019201610f91565b82865260208620601f830160051c8101916020841061101d575b601f0160051c01905b8181106110125750610f07565b868155600101611005565b9091508190610ffc565b634e487b7160e01b85526041600452602485fd5b6339e3563760e11b83526004839052602483fd5b600083815260046020526040902080546001600160a01b03191690558085526003602052604085208054600019019055610e7b565b633250574960e11b83526004839052602483fd5b50346101a75760203660031901126101a7576001600160a01b036110ba611705565b1680156110d7578160409160209352600383522054604051908152f35b6322718ad960e21b82526004829052602482fd5b506110f5366118ea565b92919092338352600c60205261111460ff600360408620015416611bcb565b6111216009543414611c23565b6001600160a01b038216803b15610564576040516323b872dd60e01b8152336004820152306024820152604481018690529084908290606490829084905af1801561118c57611178575b5061042592933392611ed7565b9261118681610425956117d2565b9261116b565b6040513d86823e3d90fd5b50346101a75760203660031901126101a75760206111b6600435611ea0565b6040516001600160a01b039091168152f35b50346101a757806003193601126101a757600754819081805b8281106112c957506111f290611980565b9183905b82821061120b57604051806101de8682611720565b600182018083116108ea57808652600b60205260408620600101546001600160a01b03163314611241575b5090600101906111f6565b8552600b6020526040852060046040519161125b836117a1565b8054835260018101546001600160a01b0390811660208501526002820154811660408501526003820154606085015291015460ff81161515608084015260081c1660a08201526112ab82866119fa565b526112b681856119fa565b50600181018091116108d6576001611236565b600181018082116108ea578552600b60205260408520600101546001600160a01b031633146112fb575b6001016111e1565b90600181018091116108d657906112f3565b50346101a75761042561131f366118b0565b906040519261132f6020856117d2565b858452611c8d565b50346101a757610425611349366118b0565b91611a24565b50346101a75761135e36611845565b505050506020604051630a85bd0160e11b8152f35b50346101a757806003193601126101a75760075460085481039080821161035a5761139e8392611980565b9183905b8282106113b757604051806101de8682611720565b600182018083116108ea57808652600b60205260408620600201546001600160a01b031630146113ed575b5090600101906113a2565b8552600b60205260408520600460405191611407836117a1565b8054835260018101546001600160a01b0390811660208501526002820154811660408501526003820154606085015291015460ff81161515608084015260081c1660a082015261145782866119fa565b5261146281856119fa565b50600181018091116108d65760016113e2565b50346101a75760403660031901126101a75761148f611705565b60243561149b81611ea0565b3315158061154a575b8061151f575b61150c5781906001600160a01b0384811691167f8c5be1e5ebec7d5bd14f71427d1e84f3dd0314c0f7b2291e5b200ac8c7c3b9258680a4825260046020526040822080546001600160a01b0319166001600160a01b0390921691909117905580f35b63a9fbf51f60e01b845233600452602484fd5b506001600160a01b038116845260056020908152604080862033875290915284205460ff16156114aa565b506001600160a01b0381163314156114a4565b50346101a75760203660031901126101a75760209060043561157e81611ea0565b50815260048252604060018060a01b0391205416604051908152f35b50346101a757806003193601126101a75760405190808054906115bc8261192f565b808552916001811690811561078557506001146115e3576101de846101ca818603826117d2565b8080527f290decd9548b62a8d60345a988386fc84ba6bc95484008f6362f93160ef3e563939250905b808210611625575090915081016020016101ca82610718565b91926001816020925483858801015201910190929161160c565b9050346101a55760203660031901126101a55760043563ffffffff60e01b81168091036103ad5760209250632483248360e11b8114908115611683575b5015158152f35b6380ac58cd60e01b8114915081156116b5575b81156116a4575b503861167c565b6301ffc9a760e01b1490503861169d565b635b5e139f60e01b81149150611696565b919082518082526020808301940160005b8281106116f5575050600081602094950152601f8019910116010190565b81810151868201526020016116d7565b600435906001600160a01b038216820361171b57565b600080fd5b602060408183019282815284518094520192019060005b8181106117445750505090565b8251805185526020818101516001600160a01b03908116828801526040808401518216908801526060808401519088015260808084015115159088015260a092830151169186019190915260c09094019390920191600101611737565b60c081019081106001600160401b038211176117bc57604052565b634e487b7160e01b600052604160045260246000fd5b90601f801991011681019081106001600160401b038211176117bc57604052565b6001600160401b0381116117bc57601f01601f191660200190565b92919261181a826117f3565b9161182860405193846117d2565b82948184528183011161171b578281602093846000960137010152565b90608060031983011261171b576004356001600160a01b038116810361171b57916024356001600160a01b038116810361171b579160443591606435906001600160401b03821161171b578060238301121561171b578160246118ad9360040135910161180e565b90565b606090600319011261171b576004356001600160a01b038116810361171b57906024356001600160a01b038116810361171b579060443590565b606090600319011261171b576004356001600160a01b038116810361171b57906024359060443590565b9080601f8301121561171b578160206118ad9335910161180e565b90600182811c9216801561195f575b602083101461194957565b634e487b7160e01b600052602260045260246000fd5b91607f169161193e565b6001600160401b0381116117bc5760051b60200190565b9061198a82611969565b61199760405191826117d2565b82815280926119a8601f1991611969565b019060005b8281106119b957505050565b6020906040516119c8816117a1565b60008152600083820152600060408201526000606082015260006080820152600060a0820152828285010152016119ad565b8051821015611a0e5760209160051b010190565b634e487b7160e01b600052603260045260246000fd5b6001600160a01b0390911691908215611bb5576000828152600260205260408120546001600160a01b0316938391859033151580611b1d575b507fddf252ad1be2c89b69c2b068fc378daa952ba7f163c4a11628f55a4df523b3ef9082611ae8575b83815260036020526040812060018154019055848152600260205260408120846001600160601b0360a01b82541617905580a46001600160a01b0316808303611ace57505050565b6364283d7b60e01b60005260045260245260445260646000fd5b600085815260046020526040902080546001600160a01b03191690558281526003602052604081208054600019019055611a86565b915091925080611b66575b15611b37579084849238611a5d565b839085611b5057602491637e27328960e01b8252600452fd5b60449163177e802f60e01b825233600452602452fd5b503385148015611b94575b80611b285750838152600460205260408120546001600160a01b03163314611b28565b5084815260056020908152604080832033845290915281205460ff16611b71565b633250574960e11b600052600060045260246000fd5b15611bd257565b60405162461bcd60e51b8152602060048201526024808201527f4f6e6c792063726561746f72732063616e2063616c6c20746869732066756e636044820152633a34b7b760e11b6064820152608490fd5b15611c2a57565b60405162461bcd60e51b8152602060048201526016602482015275131a5cdd1a5b99c81c1c9a58d9481c995c5d5a5c995960521b6044820152606490fd5b6000198114611c775760010190565b634e487b7160e01b600052601160045260246000fd5b9291611c9a818386611a24565b813b611ca7575b50505050565b604051630a85bd0160e11b81523360048201526001600160a01b0394851660248201526044810191909152608060648201529216919060209082908190611cf29060848301906116c6565b03816000865af18091600091611d91575b5090611d5c57503d15611d55573d611d1a816117f3565b90611d2860405192836117d2565b81523d6000602083013e5b80519081611d505782633250574960e11b60005260045260246000fd5b602001fd5b6060611d33565b6001600160e01b03191663757a42ff60e11b01611d7d575038808080611ca1565b633250574960e11b60005260045260246000fd5b6020813d602011611dcc575b81611daa602093836117d2565b810103126101a55751906001600160e01b0319821682036101a7575038611d03565b3d9150611d9d565b611ddd81611ea0565b506000526006602052604060002060405190816000825492611dfe8461192f565b8084529360018116908115611e7e5750600114611e37575b50611e23925003826117d2565b6000604051611e336020826117d2565b5290565b90506000929192526020600020906000915b818310611e62575050906020611e239282010138611e16565b6020919350806001915483858801015201910190918392611e49565b905060209250611e2394915060ff191682840152151560051b82010138611e16565b6000818152600260205260409020546001600160a01b0316908115611ec3575090565b637e27328960e01b60005260045260246000fd5b91929092801561200e576040517fd6c9caa8d8816575fa6ede26664a0f2a934b14bbfc89a7f2858f3fa3d5ff37469360a0936001600160a01b0316929091611f1e816117a1565b8681526020810192848452611fce60046040840193308552606081018681526080820195600087528a8301956001808d1b0316988987528d600052600b6020526040600020935184556001808d1b0390511660018401906001808e1b03166001600160601b038d1b8254161790556001808c1b0390511660028301906001808d1b03166001600160601b038c1b8254161790555160038201550192511515839060ff801983541691151516179055565b518154610100600160a81b03191660089190911b610100600160a81b031617905560408051938452306020850152830152600060608301526080820152a2565b60405162461bcd60e51b815260206004820152601c60248201527f5072696365206d757374206265206174206c65617374203120776569000000006044820152606490fdfea26469706673582212203e895676eb88128d249655ad0ff9bcb787ec176b95f403dda1d35d8ffdf6343b64736f6c634300081c0033",
  "linkReferences": {},
  "deployedLinkReferences": {}
}